{
  "contractName": "BookLibrary",
  "abi": [
    {
      "inputs": [
        {
          "internalType": "address",
          "name": "_libTokenAddress",
          "type": "address"
        },
        {
          "internalType": "address",
          "name": "_libWrapperAddress",
          "type": "address"
        }
      ],
      "stateMutability": "nonpayable",
      "type": "constructor"
    },
    {
      "anonymous": false,
      "inputs": [
        {
          "indexed": false,
          "internalType": "address",
          "name": "_user",
          "type": "address"
        },
        {
          "indexed": false,
          "internalType": "string",
          "name": "_bookName",
          "type": "string"
        }
      ],
      "name": "BookBorrowed",
      "type": "event"
    },
    {
      "anonymous": false,
      "inputs": [
        {
          "indexed": false,
          "internalType": "address",
          "name": "_user",
          "type": "address"
        },
        {
          "indexed": false,
          "internalType": "string",
          "name": "_bookName",
          "type": "string"
        }
      ],
      "name": "BookReturned",
      "type": "event"
    },
    {
      "anonymous": false,
      "inputs": [
        {
          "indexed": false,
          "internalType": "address",
          "name": "_user",
          "type": "address"
        },
        {
          "indexed": false,
          "internalType": "string",
          "name": "_bookName",
          "type": "string"
        },
        {
          "indexed": false,
          "internalType": "uint64",
          "name": "_quantity",
          "type": "uint64"
        }
      ],
      "name": "NewBookAdded",
      "type": "event"
    },
    {
      "anonymous": false,
      "inputs": [
        {
          "indexed": false,
          "internalType": "uint256",
          "name": "_amount",
          "type": "uint256"
        }
      ],
      "name": "UnwrapInBookContract",
      "type": "event"
    },
    {
      "inputs": [],
      "name": "LIBToken",
      "outputs": [
        {
          "internalType": "contract LIB",
          "name": "",
          "type": "address"
        }
      ],
      "stateMutability": "view",
      "type": "function"
    },
    {
      "inputs": [],
      "name": "_owner",
      "outputs": [
        {
          "internalType": "address",
          "name": "",
          "type": "address"
        }
      ],
      "stateMutability": "view",
      "type": "function"
    },
    {
      "inputs": [
        {
          "internalType": "uint256",
          "name": "",
          "type": "uint256"
        }
      ],
      "name": "bookKeys",
      "outputs": [
        {
          "internalType": "bytes32",
          "name": "",
          "type": "bytes32"
        }
      ],
      "stateMutability": "view",
      "type": "function"
    },
    {
      "inputs": [
        {
          "internalType": "bytes32",
          "name": "",
          "type": "bytes32"
        }
      ],
      "name": "books",
      "outputs": [
        {
          "internalType": "string",
          "name": "bookName",
          "type": "string"
        },
        {
          "internalType": "uint64",
          "name": "numberOfCopies",
          "type": "uint64"
        },
        {
          "internalType": "bytes32",
          "name": "bookId",
          "type": "bytes32"
        }
      ],
      "stateMutability": "view",
      "type": "function"
    },
    {
      "inputs": [],
      "name": "owner",
      "outputs": [
        {
          "internalType": "address",
          "name": "",
          "type": "address"
        }
      ],
      "stateMutability": "view",
      "type": "function"
    },
    {
      "inputs": [],
      "name": "rentPrice",
      "outputs": [
        {
          "internalType": "uint256",
          "name": "",
          "type": "uint256"
        }
      ],
      "stateMutability": "view",
      "type": "function"
    },
    {
      "inputs": [
        {
          "internalType": "address",
          "name": "",
          "type": "address"
        },
        {
          "internalType": "bytes32",
          "name": "",
          "type": "bytes32"
        }
      ],
      "name": "userBorrowedBooks",
      "outputs": [
        {
          "internalType": "uint8",
          "name": "",
          "type": "uint8"
        }
      ],
      "stateMutability": "view",
      "type": "function"
    },
    {
      "inputs": [],
      "name": "wrapperContract",
      "outputs": [
        {
          "internalType": "contract WrapperContract",
          "name": "",
          "type": "address"
        }
      ],
      "stateMutability": "view",
      "type": "function"
    },
    {
      "stateMutability": "payable",
      "type": "receive"
    },
    {
      "inputs": [
        {
          "internalType": "string",
          "name": "_bookName",
          "type": "string"
        },
        {
          "internalType": "uint64",
          "name": "_numberOfCopies",
          "type": "uint64"
        }
      ],
      "name": "addBook",
      "outputs": [],
      "stateMutability": "nonpayable",
      "type": "function"
    },
    {
      "inputs": [
        {
          "internalType": "bytes32",
          "name": "_bookId",
          "type": "bytes32"
        },
        {
          "internalType": "uint256",
          "name": "value",
          "type": "uint256"
        },
        {
          "internalType": "uint256",
          "name": "deadline",
          "type": "uint256"
        },
        {
          "internalType": "uint8",
          "name": "v",
          "type": "uint8"
        },
        {
          "internalType": "bytes32",
          "name": "r",
          "type": "bytes32"
        },
        {
          "internalType": "bytes32",
          "name": "s",
          "type": "bytes32"
        }
      ],
      "name": "borrowBookById",
      "outputs": [],
      "stateMutability": "nonpayable",
      "type": "function"
    },
    {
      "inputs": [
        {
          "internalType": "bytes32",
          "name": "_bookId",
          "type": "bytes32"
        }
      ],
      "name": "returnBookById",
      "outputs": [],
      "stateMutability": "nonpayable",
      "type": "function"
    },
    {
      "inputs": [
        {
          "internalType": "bytes32",
          "name": "_bookId",
          "type": "bytes32"
        }
      ],
      "name": "getUsersBorrowedBook",
      "outputs": [
        {
          "internalType": "address[]",
          "name": "",
          "type": "address[]"
        }
      ],
      "stateMutability": "view",
      "type": "function"
    },
    {
      "inputs": [],
      "name": "getCount",
      "outputs": [
        {
          "internalType": "uint256",
          "name": "count",
          "type": "uint256"
        }
      ],
      "stateMutability": "view",
      "type": "function"
    },
    {
      "inputs": [],
      "name": "getAllBooks",
      "outputs": [
        {
          "components": [
            {
              "internalType": "string",
              "name": "bookName",
              "type": "string"
            },
            {
              "internalType": "uint64",
              "name": "numberOfCopies",
              "type": "uint64"
            },
            {
              "internalType": "bytes32",
              "name": "bookId",
              "type": "bytes32"
            },
            {
              "internalType": "address[]",
              "name": "borrowedFromAdresses",
              "type": "address[]"
            }
          ],
          "internalType": "struct BookLibrary.Book[]",
          "name": "",
          "type": "tuple[]"
        }
      ],
      "stateMutability": "view",
      "type": "function"
    },
    {
      "inputs": [
        {
          "internalType": "uint256",
          "name": "_amount",
          "type": "uint256"
        }
      ],
      "name": "exchangeTokens",
      "outputs": [],
      "stateMutability": "nonpayable",
      "type": "function"
    },
    {
      "inputs": [
        {
          "internalType": "uint256",
          "name": "value",
          "type": "uint256"
        }
      ],
      "name": "withdraw",
      "outputs": [],
      "stateMutability": "nonpayable",
      "type": "function"
    },
    {
      "inputs": [
        {
          "internalType": "bytes32",
          "name": "hashedMessage",
          "type": "bytes32"
        },
        {
          "internalType": "uint8",
          "name": "v",
          "type": "uint8"
        },
        {
          "internalType": "bytes32",
          "name": "r",
          "type": "bytes32"
        },
        {
          "internalType": "bytes32",
          "name": "s",
          "type": "bytes32"
        },
        {
          "internalType": "address",
          "name": "receiver",
          "type": "address"
        },
        {
          "internalType": "bytes32",
          "name": "bookId",
          "type": "bytes32"
        }
      ],
      "name": "borrowWithSignature",
      "outputs": [],
      "stateMutability": "payable",
      "type": "function"
    }
  ],
  "bytecode": "0x6080604052662386f26fc100006008553480156200001c57600080fd5b5060405162002d5038038062002d508339818101604052810190620000429190620001ab565b336000806101000a81548173ffffffffffffffffffffffffffffffffffffffff021916908373ffffffffffffffffffffffffffffffffffffffff160217905550600081905082600460006101000a81548173ffffffffffffffffffffffffffffffffffffffff021916908373ffffffffffffffffffffffffffffffffffffffff16021790555081600360006101000a81548173ffffffffffffffffffffffffffffffffffffffff021916908373ffffffffffffffffffffffffffffffffffffffff16021790555082600160006101000a81548173ffffffffffffffffffffffffffffffffffffffff021916908373ffffffffffffffffffffffffffffffffffffffff16021790555080600260006101000a81548173ffffffffffffffffffffffffffffffffffffffff021916908373ffffffffffffffffffffffffffffffffffffffff1602179055505050506200023a565b600081519050620001a58162000220565b92915050565b60008060408385031215620001bf57600080fd5b6000620001cf8582860162000194565b9250506020620001e28582860162000194565b9150509250929050565b6000620001f98262000200565b9050919050565b600073ffffffffffffffffffffffffffffffffffffffff82169050919050565b6200022b81620001ec565b81146200023757600080fd5b50565b612b06806200024a6000396000f3fe6080604052600436106101025760003560e01c80638da5cb5b11610095578063b2bdfa7b11610064578063b2bdfa7b14610340578063dae47ab01461036b578063db81a28d146103a8578063e2e8b935146103c4578063f8af64ed146103ef57610109565b80638da5cb5b146102845780639777b16f146102af578063a054bf50146102d8578063a87d942c1461031557610109565b806340477126116100d157806340477126146101cc57806346f4172a146101f55780636aebba09146102325780636cddfeff1461025b57610109565b80630c0dee701461010e5780631ba3192b1461014d5780632e1a7d4d14610178578063354528e8146101a157610109565b3661010957005b600080fd5b34801561011a57600080fd5b5061013560048036038101906101309190611ad6565b61041a565b60405161014493929190612631565b60405180910390f35b34801561015957600080fd5b506101626104f0565b60405161016f91906125fb565b60405180910390f35b34801561018457600080fd5b5061019f600480360381019061019a9190611c65565b610516565b005b3480156101ad57600080fd5b506101b66105ee565b6040516101c39190612579565b60405180910390f35b3480156101d857600080fd5b506101f360048036038101906101ee9190611c65565b610827565b005b34801561020157600080fd5b5061021c60048036038101906102179190611ad6565b610a4e565b6040516102299190612557565b60405180910390f35b34801561023e57600080fd5b5061025960048036038101906102549190611ad6565b610af2565b005b34801561026757600080fd5b50610282600480360381019061027d9190611c11565b610cad565b005b34801561029057600080fd5b50610299610fbc565b6040516102a69190612398565b60405180910390f35b3480156102bb57600080fd5b506102d660048036038101906102d19190611aff565b610fe5565b005b3480156102e457600080fd5b506102ff60048036038101906102fa9190611a71565b611450565b60405161030c91906127aa565b60405180910390f35b34801561032157600080fd5b5061032a61147f565b604051610337919061278f565b60405180910390f35b34801561034c57600080fd5b5061035561148c565b6040516103629190612398565b60405180910390f35b34801561037757600080fd5b50610392600480360381019061038d9190611c65565b6114b0565b60405161039f919061259b565b60405180910390f35b6103c260048036038101906103bd9190611b88565b6114d1565b005b3480156103d057600080fd5b506103d9611791565b6040516103e69190612616565b60405180910390f35b3480156103fb57600080fd5b506104046117b7565b604051610411919061278f565b60405180910390f35b6005602052806000526040600020600091509050806000018054600181600116156101000203166002900480601f0160208091040260200160405190810160405280929190818152602001828054600181600116156101000203166002900480156104c65780601f1061049b576101008083540402835291602001916104c6565b820191906000526020600020905b8154815290600101906020018083116104a957829003601f168201915b5050505050908060010160009054906101000a900467ffffffffffffffff16908060020154905083565b600160009054906101000a900473ffffffffffffffffffffffffffffffffffffffff1681565b3373ffffffffffffffffffffffffffffffffffffffff1660008054906101000a900473ffffffffffffffffffffffffffffffffffffffff1673ffffffffffffffffffffffffffffffffffffffff16146105a4576040517f08c379a000000000000000000000000000000000000000000000000000000000815260040161059b9061276f565b60405180910390fd5b3373ffffffffffffffffffffffffffffffffffffffff166108fc829081150290604051600060405180830381858888f193505050501580156105ea573d6000803e3d6000fd5b5050565b60608060078054905067ffffffffffffffff8111801561060d57600080fd5b5060405190808252806020026020018201604052801561064757816020015b610634611843565b81526020019060019003908161062c5790505b50905060005b60078054905081101561081f57600560006007838154811061066b57fe5b90600052602060002001548152602001908152602001600020604051806080016040529081600082018054600181600116156101000203166002900480601f0160208091040260200160405190810160405280929190818152602001828054600181600116156101000203166002900480156107285780601f106106fd57610100808354040283529160200191610728565b820191906000526020600020905b81548152906001019060200180831161070b57829003601f168201915b505050505081526020016001820160009054906101000a900467ffffffffffffffff1667ffffffffffffffff1667ffffffffffffffff16815260200160028201548152602001600382018054806020026020016040519081016040528092919081815260200182805480156107f257602002820191906000526020600020905b8160009054906101000a900473ffffffffffffffffffffffffffffffffffffffff1673ffffffffffffffffffffffffffffffffffffffff16815260200190600101908083116107a8575b50505050508152505082828151811061080757fe5b6020026020010181905250808060010191505061064d565b508091505090565b3373ffffffffffffffffffffffffffffffffffffffff1660008054906101000a900473ffffffffffffffffffffffffffffffffffffffff1673ffffffffffffffffffffffffffffffffffffffff16146108b5576040517f08c379a00000000000000000000000000000000000000000000000000000000081526004016108ac9061276f565b60405180910390fd5b600160009054906101000a900473ffffffffffffffffffffffffffffffffffffffff1673ffffffffffffffffffffffffffffffffffffffff1663095ea7b3600360009054906101000a900473ffffffffffffffffffffffffffffffffffffffff16836040518363ffffffff1660e01b815260040161093492919061252e565b602060405180830381600087803b15801561094e57600080fd5b505af1158015610962573d6000803e3d6000fd5b505050506040513d601f19601f820116820180604052508101906109869190611aad565b507ffe6bc1cb3eea4afff7f53d3433775946658a78135835b151ae13ac0b18ad7d15816040516109b6919061278f565b60405180910390a1600260009054906101000a900473ffffffffffffffffffffffffffffffffffffffff1673ffffffffffffffffffffffffffffffffffffffff1663de0e9a3e826040518263ffffffff1660e01b8152600401610a19919061278f565b600060405180830381600087803b158015610a3357600080fd5b505af1158015610a47573d6000803e3d6000fd5b5050505050565b606060056000838152602001908152602001600020600301805480602002602001604051908101604052809291908181526020018280548015610ae657602002820191906000526020600020905b8160009054906101000a900473ffffffffffffffffffffffffffffffffffffffff1673ffffffffffffffffffffffffffffffffffffffff1681526020019060010190808311610a9c575b50505050509050919050565b806001600660003373ffffffffffffffffffffffffffffffffffffffff1673ffffffffffffffffffffffffffffffffffffffff168152602001908152602001600020600083815260200190815260200160002060009054906101000a900460ff1660ff1614610b96576040517f08c379a0000000000000000000000000000000000000000000000000000000008152600401610b8d9061270f565b60405180910390fd5b60056000838152602001908152602001600020600101600081819054906101000a900467ffffffffffffffff168092919060010191906101000a81548167ffffffffffffffff021916908367ffffffffffffffff160217905550506000600660003373ffffffffffffffffffffffffffffffffffffffff1673ffffffffffffffffffffffffffffffffffffffff168152602001908152602001600020600084815260200190815260200160002060006101000a81548160ff021916908360ff1602179055507fe3cd3b52a818cbb5f9753b3887e5654b9db07a5e3754f33dbb8fe8ab597682c73360056000858152602001908152602001600020600001604051610ca1929190612497565b60405180910390a15050565b3373ffffffffffffffffffffffffffffffffffffffff1660008054906101000a900473ffffffffffffffffffffffffffffffffffffffff1673ffffffffffffffffffffffffffffffffffffffff1614610d3b576040517f08c379a0000000000000000000000000000000000000000000000000000000008152600401610d329061276f565b60405180910390fd5b816000815111610d80576040517f08c379a0000000000000000000000000000000000000000000000000000000008152600401610d779061272f565b60405180910390fd5b8160008167ffffffffffffffff1611610dce576040517f08c379a0000000000000000000000000000000000000000000000000000000008152600401610dc59061266f565b60405180910390fd5b8360006005600083604051602001610de6919061235b565b60405160208183030381529060405280519060200120815260200190815260200160002060000180546001816001161561010002031660029004905014610e62576040517f08c379a0000000000000000000000000000000000000000000000000000000008152600401610e59906126af565b60405180910390fd5b6060600086604051602001610e77919061235b565b604051602081830303815290604052805190602001209050610e97611843565b60405180608001604052808981526020018867ffffffffffffffff16815260200183815260200184815250905080600560008481526020019081526020016000206000820151816000019080519060200190610ef4929190611878565b5060208201518160010160006101000a81548167ffffffffffffffff021916908367ffffffffffffffff160217905550604082015181600201556060820151816003019080519060200190610f4a9291906118f8565b5090505060078290806001815401808255809150506001900390600052602060002001600090919091909150557f82101690d24dd630a230245038a1fd10dd65503e6a15fadd35bd8752cd2859fa338989604051610faa93929190612459565b60405180910390a15050505050505050565b60008060009054906101000a900473ffffffffffffffffffffffffffffffffffffffff16905090565b856000600560008381526020019081526020016000206000018054600181600116156101000203166002900490501415611054576040517f08c379a000000000000000000000000000000000000000000000000000000000815260040161104b9061274f565b60405180910390fd5b60006005600083815260200190815260200160002060010160009054906101000a900467ffffffffffffffff1667ffffffffffffffff16116110cb576040517f08c379a00000000000000000000000000000000000000000000000000000000081526004016110c2906126cf565b60405180910390fd5b6001600660003373ffffffffffffffffffffffffffffffffffffffff1673ffffffffffffffffffffffffffffffffffffffff168152602001908152602001600020600083815260200190815260200160002060009054906101000a900460ff1660ff16141561116f576040517f08c379a00000000000000000000000000000000000000000000000000000000081526004016111669061268f565b60405180910390fd5b600160009054906101000a900473ffffffffffffffffffffffffffffffffffffffff1673ffffffffffffffffffffffffffffffffffffffff1663d505accf333089898989896040518863ffffffff1660e01b81526004016111d697969594939291906123ea565b600060405180830381600087803b1580156111f057600080fd5b505af1158015611204573d6000803e3d6000fd5b50505050600160009054906101000a900473ffffffffffffffffffffffffffffffffffffffff1673ffffffffffffffffffffffffffffffffffffffff166323b872dd33306008546040518463ffffffff1660e01b8152600401611269939291906123b3565b602060405180830381600087803b15801561128357600080fd5b505af1158015611297573d6000803e3d6000fd5b505050506040513d601f19601f820116820180604052508101906112bb9190611aad565b5060056000888152602001908152602001600020600101600081819054906101000a900467ffffffffffffffff16809291906001900391906101000a81548167ffffffffffffffff021916908367ffffffffffffffff1602179055505060056000888152602001908152602001600020600301339080600181540180825580915050600190039060005260206000200160009091909190916101000a81548173ffffffffffffffffffffffffffffffffffffffff021916908373ffffffffffffffffffffffffffffffffffffffff1602179055506001600660003373ffffffffffffffffffffffffffffffffffffffff1673ffffffffffffffffffffffffffffffffffffffff168152602001908152602001600020600089815260200190815260200160002060006101000a81548160ff021916908360ff1602179055507f3fe4f233676aaf0d0bebb622e330814c40074fe607082e9ecb3d1d48ae1d86a933600560008a815260200190815260200160002060000160405161143f929190612497565b60405180910390a150505050505050565b60066020528160005260406000206020528060005260406000206000915091509054906101000a900460ff1681565b6000600780549050905090565b60008054906101000a900473ffffffffffffffffffffffffffffffffffffffff1681565b600781815481106114bd57fe5b906000526020600020016000915090505481565b8173ffffffffffffffffffffffffffffffffffffffff166114f4878787876117bd565b73ffffffffffffffffffffffffffffffffffffffff161461154a576040517f08c379a0000000000000000000000000000000000000000000000000000000008152600401611541906126ef565b60405180910390fd5b600160009054906101000a900473ffffffffffffffffffffffffffffffffffffffff1673ffffffffffffffffffffffffffffffffffffffff166323b872dd83306008546040518463ffffffff1660e01b81526004016115ab939291906124c7565b602060405180830381600087803b1580156115c557600080fd5b505af11580156115d9573d6000803e3d6000fd5b505050506040513d601f19601f820116820180604052508101906115fd9190611aad565b5060056000828152602001908152602001600020600101600081819054906101000a900467ffffffffffffffff16809291906001900391906101000a81548167ffffffffffffffff021916908367ffffffffffffffff1602179055505060056000828152602001908152602001600020600301829080600181540180825580915050600190039060005260206000200160009091909190916101000a81548173ffffffffffffffffffffffffffffffffffffffff021916908373ffffffffffffffffffffffffffffffffffffffff1602179055506001600660008473ffffffffffffffffffffffffffffffffffffffff1673ffffffffffffffffffffffffffffffffffffffff168152602001908152602001600020600083815260200190815260200160002060006101000a81548160ff021916908360ff1602179055507f3fe4f233676aaf0d0bebb622e330814c40074fe607082e9ecb3d1d48ae1d86a982600560008481526020019081526020016000206000016040516117819291906124fe565b60405180910390a1505050505050565b600260009054906101000a900473ffffffffffffffffffffffffffffffffffffffff1681565b60085481565b600080856040516020016117d19190612372565b6040516020818303038152906040528051906020012090506001818686866040516000815260200160405260405161180c94939291906125b6565b6020604051602081039080840390855afa15801561182e573d6000803e3d6000fd5b50505060206040510351915050949350505050565b604051806080016040528060608152602001600067ffffffffffffffff16815260200160008019168152602001606081525090565b828054600181600116156101000203166002900490600052602060002090601f016020900481019282601f106118b957805160ff19168380011785556118e7565b828001600101855582156118e7579182015b828111156118e65782518255916020019190600101906118cb565b5b5090506118f49190611982565b5090565b828054828255906000526020600020908101928215611971579160200282015b828111156119705782518260006101000a81548173ffffffffffffffffffffffffffffffffffffffff021916908373ffffffffffffffffffffffffffffffffffffffff16021790555091602001919060010190611918565b5b50905061197e9190611982565b5090565b5b8082111561199b576000816000905550600101611983565b5090565b6000813590506119ae81612a46565b92915050565b6000815190506119c381612a5d565b92915050565b6000813590506119d881612a74565b92915050565b600082601f8301126119ef57600080fd5b8135611a026119fd826127f6565b6127c5565b91508082526020830160208301858383011115611a1e57600080fd5b611a298382846129e7565b50505092915050565b600081359050611a4181612a8b565b92915050565b600081359050611a5681612aa2565b92915050565b600081359050611a6b81612ab9565b92915050565b60008060408385031215611a8457600080fd5b6000611a928582860161199f565b9250506020611aa3858286016119c9565b9150509250929050565b600060208284031215611abf57600080fd5b6000611acd848285016119b4565b91505092915050565b600060208284031215611ae857600080fd5b6000611af6848285016119c9565b91505092915050565b60008060008060008060c08789031215611b1857600080fd5b6000611b2689828a016119c9565b9650506020611b3789828a01611a32565b9550506040611b4889828a01611a32565b9450506060611b5989828a01611a5c565b9350506080611b6a89828a016119c9565b92505060a0611b7b89828a016119c9565b9150509295509295509295565b60008060008060008060c08789031215611ba157600080fd5b6000611baf89828a016119c9565b9650506020611bc089828a01611a5c565b9550506040611bd189828a016119c9565b9450506060611be289828a016119c9565b9350506080611bf389828a0161199f565b92505060a0611c0489828a016119c9565b9150509295509295509295565b60008060408385031215611c2457600080fd5b600083013567ffffffffffffffff811115611c3e57600080fd5b611c4a858286016119de565b9250506020611c5b85828601611a47565b9150509250929050565b600060208284031215611c7757600080fd5b6000611c8584828501611a32565b91505092915050565b6000611c9a8383611cc9565b60208301905092915050565b6000611cb283836122b5565b905092915050565b611cc381612969565b82525050565b611cd2816128f6565b82525050565b611ce1816128f6565b82525050565b6000611cf28261285b565b611cfc8185612896565b9350611d0783612826565b8060005b83811015611d38578151611d1f8882611c8e565b9750611d2a8361287c565b925050600181019050611d0b565b5085935050505092915050565b6000611d508261285b565b611d5a81856128a7565b9350611d6583612826565b8060005b83811015611d96578151611d7d8882611c8e565b9750611d888361287c565b925050600181019050611d69565b5085935050505092915050565b6000611dae82612866565b611db881856128b8565b935083602082028501611dca85612836565b8060005b85811015611e065784840389528151611de78582611ca6565b9450611df283612889565b925060208a01995050600181019050611dce565b50829750879550505050505092915050565b611e2181612914565b82525050565b611e3081612914565b82525050565b611e47611e4282612914565b612a29565b82525050565b611e568161297b565b82525050565b611e658161299f565b82525050565b6000611e7682612871565b611e8081856128c9565b9350611e908185602086016129f6565b611e9981612a35565b840191505092915050565b6000611eaf82612871565b611eb981856128da565b9350611ec98185602086016129f6565b611ed281612a35565b840191505092915050565b6000611ee882612871565b611ef281856128eb565b9350611f028185602086016129f6565b80840191505092915050565b600081546001811660008114611f2b5760018114611f5157611f95565b607f6002830416611f3c81876128da565b955060ff198316865260208601935050611f95565b60028204611f5f81876128da565b9550611f6a85612846565b60005b82811015611f8c57815481890152600182019150602081019050611f6d565b80880195505050505b505092915050565b6000611faa601c836128eb565b91507f19457468657265756d205369676e6564204d6573736167653a0a3332000000006000830152601c82019050919050565b6000611fea6022836128da565b91507f596f75206e65656420746f2070726f766964652076616c6964207175616e746960008301527f74790000000000000000000000000000000000000000000000000000000000006020830152604082019050919050565b60006120506037836128da565b91507f596f752061726520616c6c6f77656420746f20626f72726f77206f6e6c79206f60008301527f6e6520636f7079206f66206365727461696e20626f6f6b0000000000000000006020830152604082019050919050565b60006120b6602a836128da565b91507f596f7520616c72656164792068617665207468697320626f6f6b20696e20796f60008301527f7572206c696272617279000000000000000000000000000000000000000000006020830152604082019050919050565b600061211c600b836128da565b91507f4e6f207175616e746974790000000000000000000000000000000000000000006000830152602082019050919050565b600061215c6024836128da565b91507f526563656976657220646f6573206e6f74207369676e656420746865206d657360008301527f73616765000000000000000000000000000000000000000000000000000000006020830152604082019050919050565b60006121c2601e836128da565b91507f596f7520686176656e277420626f72726f776564207468697320626f6f6b00006000830152602082019050919050565b6000612202601d836128da565b91507f596f75206861766520746f2070726f7669646520626f6f6b206e616d650000006000830152602082019050919050565b6000612242600f836128da565b91507f496e76616c696420626f6f6b20696400000000000000000000000000000000006000830152602082019050919050565b60006122826018836128da565b91507f4e6f7420696e766f6b656420627920746865206f776e657200000000000000006000830152602082019050919050565b600060808301600083015184820360008601526122d28282611e6b565b91505060208301516122e7602086018261232e565b5060408301516122fa6040860182611e18565b50606083015184820360608601526123128282611ce7565b9150508091505092915050565b6123288161293e565b82525050565b61233781612948565b82525050565b61234681612948565b82525050565b6123558161295c565b82525050565b60006123678284611edd565b915081905092915050565b600061237d82611f9d565b91506123898284611e36565b60208201915081905092915050565b60006020820190506123ad6000830184611cd8565b92915050565b60006060820190506123c86000830186611cba565b6123d56020830185611cba565b6123e2604083018461231f565b949350505050565b600060e0820190506123ff600083018a611cba565b61240c6020830189611cba565b612419604083018861231f565b612426606083018761231f565b612433608083018661234c565b61244060a0830185611e27565b61244d60c0830184611e27565b98975050505050505050565b600060608201905061246e6000830186611cba565b81810360208301526124808185611ea4565b905061248f604083018461233d565b949350505050565b60006040820190506124ac6000830185611cba565b81810360208301526124be8184611f0e565b90509392505050565b60006060820190506124dc6000830186611cd8565b6124e96020830185611cba565b6124f6604083018461231f565b949350505050565b60006040820190506125136000830185611cd8565b81810360208301526125258184611f0e565b90509392505050565b60006040820190506125436000830185611cd8565b612550602083018461231f565b9392505050565b600060208201905081810360008301526125718184611d45565b905092915050565b600060208201905081810360008301526125938184611da3565b905092915050565b60006020820190506125b06000830184611e27565b92915050565b60006080820190506125cb6000830187611e27565b6125d8602083018661234c565b6125e56040830185611e27565b6125f26060830184611e27565b95945050505050565b60006020820190506126106000830184611e4d565b92915050565b600060208201905061262b6000830184611e5c565b92915050565b6000606082019050818103600083015261264b8186611ea4565b905061265a602083018561233d565b6126676040830184611e27565b949350505050565b6000602082019050818103600083015261268881611fdd565b9050919050565b600060208201905081810360008301526126a881612043565b9050919050565b600060208201905081810360008301526126c8816120a9565b9050919050565b600060208201905081810360008301526126e88161210f565b9050919050565b600060208201905081810360008301526127088161214f565b9050919050565b60006020820190508181036000830152612728816121b5565b9050919050565b60006020820190508181036000830152612748816121f5565b9050919050565b6000602082019050818103600083015261276881612235565b9050919050565b6000602082019050818103600083015261278881612275565b9050919050565b60006020820190506127a4600083018461231f565b92915050565b60006020820190506127bf600083018461234c565b92915050565b6000604051905081810181811067ffffffffffffffff821117156127ec576127eb612a33565b5b8060405250919050565b600067ffffffffffffffff82111561281157612810612a33565b5b601f19601f8301169050602081019050919050565b6000819050602082019050919050565b6000819050602082019050919050565b60008190508160005260206000209050919050565b600081519050919050565b600081519050919050565b600081519050919050565b6000602082019050919050565b6000602082019050919050565b600082825260208201905092915050565b600082825260208201905092915050565b600082825260208201905092915050565b600082825260208201905092915050565b600082825260208201905092915050565b600081905092915050565b60006129018261291e565b9050919050565b60008115159050919050565b6000819050919050565b600073ffffffffffffffffffffffffffffffffffffffff82169050919050565b6000819050919050565b600067ffffffffffffffff82169050919050565b600060ff82169050919050565b6000612974826129c3565b9050919050565b60006129868261298d565b9050919050565b60006129988261291e565b9050919050565b60006129aa826129b1565b9050919050565b60006129bc8261291e565b9050919050565b60006129ce826129d5565b9050919050565b60006129e08261291e565b9050919050565b82818337600083830152505050565b60005b83811015612a145780820151818401526020810190506129f9565b83811115612a23576000848401525b50505050565b6000819050919050565bfe5b6000601f19601f8301169050919050565b612a4f816128f6565b8114612a5a57600080fd5b50565b612a6681612908565b8114612a7157600080fd5b50565b612a7d81612914565b8114612a8857600080fd5b50565b612a948161293e565b8114612a9f57600080fd5b50565b612aab81612948565b8114612ab657600080fd5b50565b612ac28161295c565b8114612acd57600080fd5b5056fea2646970667358221220b8cce91360f36c699b4616a7c05fe1fc82fa70004818aaacc48bedc3d97eba8564736f6c63430007030033",
  "source": "// SPDX-License-Identifier: UNLICENSED\npragma solidity ^0.7.0;\n// pragma abicoder v2;\npragma experimental ABIEncoderV2;\nimport './Ownable.sol';\nimport \"./LibToken.sol\";\nimport \"./LIBWrapper.sol\";\n\ncontract BookLibrary is Ownable {\n    LIB public LIBToken;\n    WrapperContract public wrapperContract;\n\n    address wrapperAddress;\n    address tokenAddress;\n\n\n    struct Book {\n        string bookName;\n        uint64 numberOfCopies;\n        bytes32 bookId;\n        address[] borrowedFromAdresses;\n    }\n\n    //All books in library    \n    mapping (bytes32 => Book) public books;\n    //Holds information about the borrowed books by user \n    mapping (address => mapping(bytes32 => uint8)) public userBorrowedBooks;\n    //Array with the keys of all existing books \n    bytes32[] public bookKeys;\n    uint256 public rentPrice = 10000000000000000;\n    \n    //Adding events so the front-end could hook to them\n    event NewBookAdded(address _user, string _bookName, uint64 _quantity);\n    event BookBorrowed(address _user, string _bookName);\n    event BookReturned(address _user, string _bookName);\n    event UnwrapInBookContract(uint _amount);\n\n    constructor(address _libTokenAddress, address _libWrapperAddress) public {\n        address payable payableWrapperAddress = address(uint160(_libWrapperAddress));\n        tokenAddress = _libTokenAddress;\n        wrapperAddress = _libWrapperAddress;\n\n        LIBToken = LIB(_libTokenAddress);\n        wrapperContract = WrapperContract(payableWrapperAddress);\n\t}\n\n    modifier validTitle(string memory _bookName) {\n        require (bytes(_bookName).length > 0, \"You have to provide book name\");\n        _;\n    }\n\n    modifier validQuantity(uint64 _numberOfCopies) {\n        require (_numberOfCopies > 0, \"You need to provide valid quantity\");\n        _;\n    }\n    \n    modifier bookNotExist(string memory _bookName) {\n        require (bytes(books[keccak256(abi.encodePacked(_bookName))].bookName).length == 0, \"You already have this book in your library\");\n        _;\n    }\n    \n    modifier userAllowedToBorrowBook(bytes32 _bookId) {\n        require (bytes(books[_bookId].bookName).length != 0, \"Invalid book id\");\n        require(books[_bookId].numberOfCopies > 0, \"No quantity\");\n        require(userBorrowedBooks[msg.sender][_bookId] != 1, \"You are allowed to borrow only one copy of certain book\");\n        _;\n    }\n    \n    modifier userAllowedToReturnBook(bytes32 _bookId) {\n        require(userBorrowedBooks[msg.sender][_bookId] == 1, \"You haven't borrowed this book\");\n        _;\n    }\n    \n    function addBook (string memory _bookName, uint64 _numberOfCopies) public onlyOwner validTitle(_bookName) validQuantity(_numberOfCopies) bookNotExist(_bookName){\n        address[] memory borrowedFromAdresses;\n        bytes32 bookKey = keccak256(abi.encodePacked(_bookName));\n        Book memory newBook = Book(_bookName, _numberOfCopies, bookKey, borrowedFromAdresses);\n\n        books[bookKey] = newBook;\n        bookKeys.push(bookKey);\n        \n        emit NewBookAdded(msg.sender, _bookName, _numberOfCopies);\n    }\n    \n    function borrowBookById(bytes32 _bookId, uint256 value, uint256 deadline, uint8 v, bytes32 r, bytes32 s) public userAllowedToBorrowBook(_bookId) {\n        LIBToken.permit(msg.sender, address(this), value, deadline, v,r,s);\n\t\tLIBToken.transferFrom(msg.sender, address(this), rentPrice);\n\n        books[_bookId].numberOfCopies--;\n        books[_bookId].borrowedFromAdresses.push(msg.sender);\n        userBorrowedBooks[msg.sender][_bookId] = 1;\n        \n        emit BookBorrowed(msg.sender, books[_bookId].bookName);\n    }\n    \n    function returnBookById(bytes32 _bookId) public userAllowedToReturnBook(_bookId) {\n        books[_bookId].numberOfCopies++;\n        userBorrowedBooks[msg.sender][_bookId] = 0;\n        \n        emit BookReturned(msg.sender, books[_bookId].bookName);\n    }\n    \n    function getUsersBorrowedBook(bytes32 _bookId) public view returns(address[] memory) {\n        return books[_bookId].borrowedFromAdresses;\n    }\n    \n    function getCount() public view returns(uint count) {\n        return bookKeys.length;\n    }   \n    //Returns all the books as an array, so the user could have a list the books in the library.\n    //Implemented in case if user interacts with the contract using Remix interface. It might not be needed if user interacts with the contract using web3 client.\n    function getAllBooks() public view returns (Book[] memory) {\n        Book[] memory availableBooks = new Book[](bookKeys.length);\n\n        for(uint i=0; i < bookKeys.length; i++){\n            availableBooks[i] = books[bookKeys[i]];\n        }\n        \n        return availableBooks;\n    }\n    // unwrap contract tokens\n    function exchangeTokens(uint _amount) public onlyOwner {\n        LIBToken.approve(wrapperAddress, _amount);\n        emit UnwrapInBookContract(_amount);\n        wrapperContract.unwrap(_amount);\n    }\n    // send ETH to owner\n    function withdraw(uint256 value) public onlyOwner {\n        msg.sender.transfer(value);\n    }\n    // rent a book on behalf of abother user signed a message for this\n    function borrowWithSignature(bytes32 hashedMessage, uint8 v, bytes32 r, bytes32 s, address receiver, bytes32 bookId) public payable {\n\t\trequire(recoverSigner(hashedMessage, v,r,s) == receiver, 'Receiver does not signed the message');\n\n        LIBToken.transferFrom(receiver, address(this), rentPrice);\n\n        books[bookId].numberOfCopies--;\n        books[bookId].borrowedFromAdresses.push(receiver);\n        userBorrowedBooks[receiver][bookId] = 1;\n        \n        emit BookBorrowed(receiver, books[bookId].bookName);\n\t}\n\n    function recoverSigner(bytes32 hashedMessage, uint8 v, bytes32 r, bytes32 s) internal returns (address) {\n\t\tbytes32 messageDigest = keccak256(abi.encodePacked(\"\\x19Ethereum Signed Message:\\n32\", hashedMessage));\n        return ecrecover(messageDigest, v, r, s);\n\t}\n\n    receive() external payable {}\n\n}",
  "sourcePath": "/Users/dimitaratanasov/Desktop/limetraining/contracts/BookLibrary.sol",
  "compiler": {
    "name": "solc",
    "version": "0.7.3+commit.9bfce1f6.Emscripten.clang",
    "optimizer": false,
    "runs": 200
  },
  "schemaVersion": "2.3.5",
  "updatedAt": "2021-06-30T14:22:58.379Z"
}