{
  "contractName": "BookLibrary",
  "abi": [
    {
      "inputs": [
        {
          "internalType": "address",
          "name": "_libTokenAddress",
          "type": "address"
        },
        {
          "internalType": "address",
          "name": "_libWrapperAddress",
          "type": "address"
        }
      ],
      "stateMutability": "nonpayable",
      "type": "constructor"
    },
    {
      "anonymous": false,
      "inputs": [
        {
          "indexed": false,
          "internalType": "address",
          "name": "_user",
          "type": "address"
        },
        {
          "indexed": false,
          "internalType": "string",
          "name": "_bookName",
          "type": "string"
        }
      ],
      "name": "BookBorrowed",
      "type": "event"
    },
    {
      "anonymous": false,
      "inputs": [
        {
          "indexed": false,
          "internalType": "address",
          "name": "_user",
          "type": "address"
        },
        {
          "indexed": false,
          "internalType": "string",
          "name": "_bookName",
          "type": "string"
        }
      ],
      "name": "BookReturned",
      "type": "event"
    },
    {
      "anonymous": false,
      "inputs": [
        {
          "indexed": false,
          "internalType": "address",
          "name": "_user",
          "type": "address"
        },
        {
          "indexed": false,
          "internalType": "string",
          "name": "_bookName",
          "type": "string"
        },
        {
          "indexed": false,
          "internalType": "uint64",
          "name": "_quantity",
          "type": "uint64"
        }
      ],
      "name": "NewBookAdded",
      "type": "event"
    },
    {
      "anonymous": false,
      "inputs": [
        {
          "indexed": false,
          "internalType": "uint256",
          "name": "_amount",
          "type": "uint256"
        }
      ],
      "name": "UnwrapInBookContract",
      "type": "event"
    },
    {
      "inputs": [],
      "name": "LIBToken",
      "outputs": [
        {
          "internalType": "contract LIB",
          "name": "",
          "type": "address"
        }
      ],
      "stateMutability": "view",
      "type": "function"
    },
    {
      "inputs": [
        {
          "internalType": "uint256",
          "name": "",
          "type": "uint256"
        }
      ],
      "name": "bookKeys",
      "outputs": [
        {
          "internalType": "bytes32",
          "name": "",
          "type": "bytes32"
        }
      ],
      "stateMutability": "view",
      "type": "function"
    },
    {
      "inputs": [
        {
          "internalType": "bytes32",
          "name": "",
          "type": "bytes32"
        }
      ],
      "name": "books",
      "outputs": [
        {
          "internalType": "string",
          "name": "bookName",
          "type": "string"
        },
        {
          "internalType": "uint64",
          "name": "numberOfCopies",
          "type": "uint64"
        },
        {
          "internalType": "bytes32",
          "name": "bookId",
          "type": "bytes32"
        }
      ],
      "stateMutability": "view",
      "type": "function"
    },
    {
      "inputs": [],
      "name": "owner",
      "outputs": [
        {
          "internalType": "address",
          "name": "",
          "type": "address"
        }
      ],
      "stateMutability": "view",
      "type": "function"
    },
    {
      "inputs": [],
      "name": "rentPrice",
      "outputs": [
        {
          "internalType": "uint256",
          "name": "",
          "type": "uint256"
        }
      ],
      "stateMutability": "view",
      "type": "function"
    },
    {
      "inputs": [
        {
          "internalType": "address",
          "name": "",
          "type": "address"
        },
        {
          "internalType": "bytes32",
          "name": "",
          "type": "bytes32"
        }
      ],
      "name": "userBorrowedBooks",
      "outputs": [
        {
          "internalType": "uint8",
          "name": "",
          "type": "uint8"
        }
      ],
      "stateMutability": "view",
      "type": "function"
    },
    {
      "inputs": [],
      "name": "wrapperContract",
      "outputs": [
        {
          "internalType": "contract WrapperContract",
          "name": "",
          "type": "address"
        }
      ],
      "stateMutability": "view",
      "type": "function"
    },
    {
      "inputs": [
        {
          "internalType": "string",
          "name": "_bookName",
          "type": "string"
        },
        {
          "internalType": "uint64",
          "name": "_numberOfCopies",
          "type": "uint64"
        }
      ],
      "name": "addBook",
      "outputs": [],
      "stateMutability": "nonpayable",
      "type": "function"
    },
    {
      "inputs": [
        {
          "internalType": "bytes32",
          "name": "_bookId",
          "type": "bytes32"
        },
        {
          "internalType": "uint256",
          "name": "value",
          "type": "uint256"
        },
        {
          "internalType": "uint256",
          "name": "deadline",
          "type": "uint256"
        },
        {
          "internalType": "uint8",
          "name": "v",
          "type": "uint8"
        },
        {
          "internalType": "bytes32",
          "name": "r",
          "type": "bytes32"
        },
        {
          "internalType": "bytes32",
          "name": "s",
          "type": "bytes32"
        }
      ],
      "name": "borrowBookById",
      "outputs": [],
      "stateMutability": "nonpayable",
      "type": "function"
    },
    {
      "inputs": [
        {
          "internalType": "bytes32",
          "name": "_bookId",
          "type": "bytes32"
        }
      ],
      "name": "returnBookById",
      "outputs": [],
      "stateMutability": "nonpayable",
      "type": "function"
    },
    {
      "inputs": [
        {
          "internalType": "bytes32",
          "name": "_bookId",
          "type": "bytes32"
        }
      ],
      "name": "getUsersBorrowedBook",
      "outputs": [
        {
          "internalType": "address[]",
          "name": "",
          "type": "address[]"
        }
      ],
      "stateMutability": "view",
      "type": "function"
    },
    {
      "inputs": [],
      "name": "getCount",
      "outputs": [
        {
          "internalType": "uint256",
          "name": "count",
          "type": "uint256"
        }
      ],
      "stateMutability": "view",
      "type": "function"
    },
    {
      "inputs": [],
      "name": "getAllBooks",
      "outputs": [
        {
          "components": [
            {
              "internalType": "string",
              "name": "bookName",
              "type": "string"
            },
            {
              "internalType": "uint64",
              "name": "numberOfCopies",
              "type": "uint64"
            },
            {
              "internalType": "bytes32",
              "name": "bookId",
              "type": "bytes32"
            },
            {
              "internalType": "address[]",
              "name": "borrowedFromAdresses",
              "type": "address[]"
            }
          ],
          "internalType": "struct BookLibrary.Book[]",
          "name": "",
          "type": "tuple[]"
        }
      ],
      "stateMutability": "view",
      "type": "function"
    },
    {
      "inputs": [
        {
          "internalType": "uint256",
          "name": "_amount",
          "type": "uint256"
        }
      ],
      "name": "exchangeTokens",
      "outputs": [],
      "stateMutability": "nonpayable",
      "type": "function"
    },
    {
      "inputs": [
        {
          "internalType": "bytes32",
          "name": "hashedMessage",
          "type": "bytes32"
        },
        {
          "internalType": "uint8",
          "name": "v",
          "type": "uint8"
        },
        {
          "internalType": "bytes32",
          "name": "r",
          "type": "bytes32"
        },
        {
          "internalType": "bytes32",
          "name": "s",
          "type": "bytes32"
        },
        {
          "internalType": "address",
          "name": "receiver",
          "type": "address"
        },
        {
          "internalType": "bytes32",
          "name": "bookId",
          "type": "bytes32"
        }
      ],
      "name": "borrowWithSignature",
      "outputs": [],
      "stateMutability": "payable",
      "type": "function"
    }
  ],
  "bytecode": "0x6080604052662386f26fc100006008553480156200001c57600080fd5b5060405162002bda38038062002bda8339818101604052810190620000429190620001ab565b336000806101000a81548173ffffffffffffffffffffffffffffffffffffffff021916908373ffffffffffffffffffffffffffffffffffffffff160217905550600081905082600460006101000a81548173ffffffffffffffffffffffffffffffffffffffff021916908373ffffffffffffffffffffffffffffffffffffffff16021790555081600360006101000a81548173ffffffffffffffffffffffffffffffffffffffff021916908373ffffffffffffffffffffffffffffffffffffffff16021790555082600160006101000a81548173ffffffffffffffffffffffffffffffffffffffff021916908373ffffffffffffffffffffffffffffffffffffffff16021790555080600260006101000a81548173ffffffffffffffffffffffffffffffffffffffff021916908373ffffffffffffffffffffffffffffffffffffffff1602179055505050506200023a565b600081519050620001a58162000220565b92915050565b60008060408385031215620001bf57600080fd5b6000620001cf8582860162000194565b9250506020620001e28582860162000194565b9150509250929050565b6000620001f98262000200565b9050919050565b600073ffffffffffffffffffffffffffffffffffffffff82169050919050565b6200022b81620001ec565b81146200023757600080fd5b50565b612990806200024a6000396000f3fe6080604052600436106100e85760003560e01c80638da5cb5b1161008a578063dae47ab011610059578063dae47ab0146102f6578063db81a28d14610333578063e2e8b9351461034f578063f8af64ed1461037a576100e8565b80638da5cb5b1461023a5780639777b16f14610265578063a054bf501461028e578063a87d942c146102cb576100e8565b806340477126116100c6578063404771261461018257806346f4172a146101ab5780636aebba09146101e85780636cddfeff14610211576100e8565b80630c0dee70146100ed5780631ba3192b1461012c578063354528e814610157575b600080fd5b3480156100f957600080fd5b50610114600480360381019061010f9190611960565b6103a5565b604051610123939291906124bb565b60405180910390f35b34801561013857600080fd5b5061014161047b565b60405161014e9190612485565b60405180910390f35b34801561016357600080fd5b5061016c6104a1565b6040516101799190612403565b60405180910390f35b34801561018e57600080fd5b506101a960048036038101906101a49190611aef565b6106da565b005b3480156101b757600080fd5b506101d260048036038101906101cd9190611960565b610901565b6040516101df91906123e1565b60405180910390f35b3480156101f457600080fd5b5061020f600480360381019061020a9190611960565b6109a5565b005b34801561021d57600080fd5b5061023860048036038101906102339190611a9b565b610b60565b005b34801561024657600080fd5b5061024f610e6f565b60405161025c9190612222565b60405180910390f35b34801561027157600080fd5b5061028c60048036038101906102879190611989565b610e93565b005b34801561029a57600080fd5b506102b560048036038101906102b091906118fb565b6112fe565b6040516102c29190612634565b60405180910390f35b3480156102d757600080fd5b506102e061132d565b6040516102ed9190612619565b60405180910390f35b34801561030257600080fd5b5061031d60048036038101906103189190611aef565b61133a565b60405161032a9190612425565b60405180910390f35b61034d60048036038101906103489190611a12565b61135b565b005b34801561035b57600080fd5b5061036461161b565b60405161037191906124a0565b60405180910390f35b34801561038657600080fd5b5061038f611641565b60405161039c9190612619565b60405180910390f35b6005602052806000526040600020600091509050806000018054600181600116156101000203166002900480601f0160208091040260200160405190810160405280929190818152602001828054600181600116156101000203166002900480156104515780601f1061042657610100808354040283529160200191610451565b820191906000526020600020905b81548152906001019060200180831161043457829003601f168201915b5050505050908060010160009054906101000a900467ffffffffffffffff16908060020154905083565b600160009054906101000a900473ffffffffffffffffffffffffffffffffffffffff1681565b60608060078054905067ffffffffffffffff811180156104c057600080fd5b506040519080825280602002602001820160405280156104fa57816020015b6104e76116cd565b8152602001906001900390816104df5790505b50905060005b6007805490508110156106d257600560006007838154811061051e57fe5b90600052602060002001548152602001908152602001600020604051806080016040529081600082018054600181600116156101000203166002900480601f0160208091040260200160405190810160405280929190818152602001828054600181600116156101000203166002900480156105db5780601f106105b0576101008083540402835291602001916105db565b820191906000526020600020905b8154815290600101906020018083116105be57829003601f168201915b505050505081526020016001820160009054906101000a900467ffffffffffffffff1667ffffffffffffffff1667ffffffffffffffff16815260200160028201548152602001600382018054806020026020016040519081016040528092919081815260200182805480156106a557602002820191906000526020600020905b8160009054906101000a900473ffffffffffffffffffffffffffffffffffffffff1673ffffffffffffffffffffffffffffffffffffffff168152602001906001019080831161065b575b5050505050815250508282815181106106ba57fe5b60200260200101819052508080600101915050610500565b508091505090565b3373ffffffffffffffffffffffffffffffffffffffff1660008054906101000a900473ffffffffffffffffffffffffffffffffffffffff1673ffffffffffffffffffffffffffffffffffffffff1614610768576040517f08c379a000000000000000000000000000000000000000000000000000000000815260040161075f906125f9565b60405180910390fd5b600160009054906101000a900473ffffffffffffffffffffffffffffffffffffffff1673ffffffffffffffffffffffffffffffffffffffff1663095ea7b3600360009054906101000a900473ffffffffffffffffffffffffffffffffffffffff16836040518363ffffffff1660e01b81526004016107e79291906123b8565b602060405180830381600087803b15801561080157600080fd5b505af1158015610815573d6000803e3d6000fd5b505050506040513d601f19601f820116820180604052508101906108399190611937565b507ffe6bc1cb3eea4afff7f53d3433775946658a78135835b151ae13ac0b18ad7d15816040516108699190612619565b60405180910390a1600260009054906101000a900473ffffffffffffffffffffffffffffffffffffffff1673ffffffffffffffffffffffffffffffffffffffff1663de0e9a3e826040518263ffffffff1660e01b81526004016108cc9190612619565b600060405180830381600087803b1580156108e657600080fd5b505af11580156108fa573d6000803e3d6000fd5b5050505050565b60606005600083815260200190815260200160002060030180548060200260200160405190810160405280929190818152602001828054801561099957602002820191906000526020600020905b8160009054906101000a900473ffffffffffffffffffffffffffffffffffffffff1673ffffffffffffffffffffffffffffffffffffffff168152602001906001019080831161094f575b50505050509050919050565b806001600660003373ffffffffffffffffffffffffffffffffffffffff1673ffffffffffffffffffffffffffffffffffffffff168152602001908152602001600020600083815260200190815260200160002060009054906101000a900460ff1660ff1614610a49576040517f08c379a0000000000000000000000000000000000000000000000000000000008152600401610a4090612599565b60405180910390fd5b60056000838152602001908152602001600020600101600081819054906101000a900467ffffffffffffffff168092919060010191906101000a81548167ffffffffffffffff021916908367ffffffffffffffff160217905550506000600660003373ffffffffffffffffffffffffffffffffffffffff1673ffffffffffffffffffffffffffffffffffffffff168152602001908152602001600020600084815260200190815260200160002060006101000a81548160ff021916908360ff1602179055507fe3cd3b52a818cbb5f9753b3887e5654b9db07a5e3754f33dbb8fe8ab597682c73360056000858152602001908152602001600020600001604051610b54929190612321565b60405180910390a15050565b3373ffffffffffffffffffffffffffffffffffffffff1660008054906101000a900473ffffffffffffffffffffffffffffffffffffffff1673ffffffffffffffffffffffffffffffffffffffff1614610bee576040517f08c379a0000000000000000000000000000000000000000000000000000000008152600401610be5906125f9565b60405180910390fd5b816000815111610c33576040517f08c379a0000000000000000000000000000000000000000000000000000000008152600401610c2a906125b9565b60405180910390fd5b8160008167ffffffffffffffff1611610c81576040517f08c379a0000000000000000000000000000000000000000000000000000000008152600401610c78906124f9565b60405180910390fd5b8360006005600083604051602001610c9991906121e5565b60405160208183030381529060405280519060200120815260200190815260200160002060000180546001816001161561010002031660029004905014610d15576040517f08c379a0000000000000000000000000000000000000000000000000000000008152600401610d0c90612539565b60405180910390fd5b6060600086604051602001610d2a91906121e5565b604051602081830303815290604052805190602001209050610d4a6116cd565b60405180608001604052808981526020018867ffffffffffffffff16815260200183815260200184815250905080600560008481526020019081526020016000206000820151816000019080519060200190610da7929190611702565b5060208201518160010160006101000a81548167ffffffffffffffff021916908367ffffffffffffffff160217905550604082015181600201556060820151816003019080519060200190610dfd929190611782565b5090505060078290806001815401808255809150506001900390600052602060002001600090919091909150557f82101690d24dd630a230245038a1fd10dd65503e6a15fadd35bd8752cd2859fa338989604051610e5d939291906122e3565b60405180910390a15050505050505050565b60008054906101000a900473ffffffffffffffffffffffffffffffffffffffff1681565b856000600560008381526020019081526020016000206000018054600181600116156101000203166002900490501415610f02576040517f08c379a0000000000000000000000000000000000000000000000000000000008152600401610ef9906125d9565b60405180910390fd5b60006005600083815260200190815260200160002060010160009054906101000a900467ffffffffffffffff1667ffffffffffffffff1611610f79576040517f08c379a0000000000000000000000000000000000000000000000000000000008152600401610f7090612559565b60405180910390fd5b6001600660003373ffffffffffffffffffffffffffffffffffffffff1673ffffffffffffffffffffffffffffffffffffffff168152602001908152602001600020600083815260200190815260200160002060009054906101000a900460ff1660ff16141561101d576040517f08c379a000000000000000000000000000000000000000000000000000000000815260040161101490612519565b60405180910390fd5b600160009054906101000a900473ffffffffffffffffffffffffffffffffffffffff1673ffffffffffffffffffffffffffffffffffffffff1663d505accf333089898989896040518863ffffffff1660e01b81526004016110849796959493929190612274565b600060405180830381600087803b15801561109e57600080fd5b505af11580156110b2573d6000803e3d6000fd5b50505050600160009054906101000a900473ffffffffffffffffffffffffffffffffffffffff1673ffffffffffffffffffffffffffffffffffffffff166323b872dd33306008546040518463ffffffff1660e01b81526004016111179392919061223d565b602060405180830381600087803b15801561113157600080fd5b505af1158015611145573d6000803e3d6000fd5b505050506040513d601f19601f820116820180604052508101906111699190611937565b5060056000888152602001908152602001600020600101600081819054906101000a900467ffffffffffffffff16809291906001900391906101000a81548167ffffffffffffffff021916908367ffffffffffffffff1602179055505060056000888152602001908152602001600020600301339080600181540180825580915050600190039060005260206000200160009091909190916101000a81548173ffffffffffffffffffffffffffffffffffffffff021916908373ffffffffffffffffffffffffffffffffffffffff1602179055506001600660003373ffffffffffffffffffffffffffffffffffffffff1673ffffffffffffffffffffffffffffffffffffffff168152602001908152602001600020600089815260200190815260200160002060006101000a81548160ff021916908360ff1602179055507f3fe4f233676aaf0d0bebb622e330814c40074fe607082e9ecb3d1d48ae1d86a933600560008a81526020019081526020016000206000016040516112ed929190612321565b60405180910390a150505050505050565b60066020528160005260406000206020528060005260406000206000915091509054906101000a900460ff1681565b6000600780549050905090565b6007818154811061134757fe5b906000526020600020016000915090505481565b8173ffffffffffffffffffffffffffffffffffffffff1661137e87878787611647565b73ffffffffffffffffffffffffffffffffffffffff16146113d4576040517f08c379a00000000000000000000000000000000000000000000000000000000081526004016113cb90612579565b60405180910390fd5b600160009054906101000a900473ffffffffffffffffffffffffffffffffffffffff1673ffffffffffffffffffffffffffffffffffffffff166323b872dd83306008546040518463ffffffff1660e01b815260040161143593929190612351565b602060405180830381600087803b15801561144f57600080fd5b505af1158015611463573d6000803e3d6000fd5b505050506040513d601f19601f820116820180604052508101906114879190611937565b5060056000828152602001908152602001600020600101600081819054906101000a900467ffffffffffffffff16809291906001900391906101000a81548167ffffffffffffffff021916908367ffffffffffffffff1602179055505060056000828152602001908152602001600020600301829080600181540180825580915050600190039060005260206000200160009091909190916101000a81548173ffffffffffffffffffffffffffffffffffffffff021916908373ffffffffffffffffffffffffffffffffffffffff1602179055506001600660008473ffffffffffffffffffffffffffffffffffffffff1673ffffffffffffffffffffffffffffffffffffffff168152602001908152602001600020600083815260200190815260200160002060006101000a81548160ff021916908360ff1602179055507f3fe4f233676aaf0d0bebb622e330814c40074fe607082e9ecb3d1d48ae1d86a9826005600084815260200190815260200160002060000160405161160b929190612388565b60405180910390a1505050505050565b600260009054906101000a900473ffffffffffffffffffffffffffffffffffffffff1681565b60085481565b6000808560405160200161165b91906121fc565b604051602081830303815290604052805190602001209050600181868686604051600081526020016040526040516116969493929190612440565b6020604051602081039080840390855afa1580156116b8573d6000803e3d6000fd5b50505060206040510351915050949350505050565b604051806080016040528060608152602001600067ffffffffffffffff16815260200160008019168152602001606081525090565b828054600181600116156101000203166002900490600052602060002090601f016020900481019282601f1061174357805160ff1916838001178555611771565b82800160010185558215611771579182015b82811115611770578251825591602001919060010190611755565b5b50905061177e919061180c565b5090565b8280548282559060005260206000209081019282156117fb579160200282015b828111156117fa5782518260006101000a81548173ffffffffffffffffffffffffffffffffffffffff021916908373ffffffffffffffffffffffffffffffffffffffff160217905550916020019190600101906117a2565b5b509050611808919061180c565b5090565b5b8082111561182557600081600090555060010161180d565b5090565b600081359050611838816128d0565b92915050565b60008151905061184d816128e7565b92915050565b600081359050611862816128fe565b92915050565b600082601f83011261187957600080fd5b813561188c61188782612680565b61264f565b915080825260208301602083018583830111156118a857600080fd5b6118b3838284612871565b50505092915050565b6000813590506118cb81612915565b92915050565b6000813590506118e08161292c565b92915050565b6000813590506118f581612943565b92915050565b6000806040838503121561190e57600080fd5b600061191c85828601611829565b925050602061192d85828601611853565b9150509250929050565b60006020828403121561194957600080fd5b60006119578482850161183e565b91505092915050565b60006020828403121561197257600080fd5b600061198084828501611853565b91505092915050565b60008060008060008060c087890312156119a257600080fd5b60006119b089828a01611853565b96505060206119c189828a016118bc565b95505060406119d289828a016118bc565b94505060606119e389828a016118e6565b93505060806119f489828a01611853565b92505060a0611a0589828a01611853565b9150509295509295509295565b60008060008060008060c08789031215611a2b57600080fd5b6000611a3989828a01611853565b9650506020611a4a89828a016118e6565b9550506040611a5b89828a01611853565b9450506060611a6c89828a01611853565b9350506080611a7d89828a01611829565b92505060a0611a8e89828a01611853565b9150509295509295509295565b60008060408385031215611aae57600080fd5b600083013567ffffffffffffffff811115611ac857600080fd5b611ad485828601611868565b9250506020611ae5858286016118d1565b9150509250929050565b600060208284031215611b0157600080fd5b6000611b0f848285016118bc565b91505092915050565b6000611b248383611b53565b60208301905092915050565b6000611b3c838361213f565b905092915050565b611b4d816127f3565b82525050565b611b5c81612780565b82525050565b611b6b81612780565b82525050565b6000611b7c826126e5565b611b868185612720565b9350611b91836126b0565b8060005b83811015611bc2578151611ba98882611b18565b9750611bb483612706565b925050600181019050611b95565b5085935050505092915050565b6000611bda826126e5565b611be48185612731565b9350611bef836126b0565b8060005b83811015611c20578151611c078882611b18565b9750611c1283612706565b925050600181019050611bf3565b5085935050505092915050565b6000611c38826126f0565b611c428185612742565b935083602082028501611c54856126c0565b8060005b85811015611c905784840389528151611c718582611b30565b9450611c7c83612713565b925060208a01995050600181019050611c58565b50829750879550505050505092915050565b611cab8161279e565b82525050565b611cba8161279e565b82525050565b611cd1611ccc8261279e565b6128b3565b82525050565b611ce081612805565b82525050565b611cef81612829565b82525050565b6000611d00826126fb565b611d0a8185612753565b9350611d1a818560208601612880565b611d23816128bf565b840191505092915050565b6000611d39826126fb565b611d438185612764565b9350611d53818560208601612880565b611d5c816128bf565b840191505092915050565b6000611d72826126fb565b611d7c8185612775565b9350611d8c818560208601612880565b80840191505092915050565b600081546001811660008114611db55760018114611ddb57611e1f565b607f6002830416611dc68187612764565b955060ff198316865260208601935050611e1f565b60028204611de98187612764565b9550611df4856126d0565b60005b82811015611e1657815481890152600182019150602081019050611df7565b80880195505050505b505092915050565b6000611e34601c83612775565b91507f19457468657265756d205369676e6564204d6573736167653a0a3332000000006000830152601c82019050919050565b6000611e74602283612764565b91507f596f75206e65656420746f2070726f766964652076616c6964207175616e746960008301527f74790000000000000000000000000000000000000000000000000000000000006020830152604082019050919050565b6000611eda603783612764565b91507f596f752061726520616c6c6f77656420746f20626f72726f77206f6e6c79206f60008301527f6e6520636f7079206f66206365727461696e20626f6f6b0000000000000000006020830152604082019050919050565b6000611f40602a83612764565b91507f596f7520616c72656164792068617665207468697320626f6f6b20696e20796f60008301527f7572206c696272617279000000000000000000000000000000000000000000006020830152604082019050919050565b6000611fa6600b83612764565b91507f4e6f207175616e746974790000000000000000000000000000000000000000006000830152602082019050919050565b6000611fe6602483612764565b91507f526563656976657220646f6573206e6f74207369676e656420746865206d657360008301527f73616765000000000000000000000000000000000000000000000000000000006020830152604082019050919050565b600061204c601e83612764565b91507f596f7520686176656e277420626f72726f776564207468697320626f6f6b00006000830152602082019050919050565b600061208c601d83612764565b91507f596f75206861766520746f2070726f7669646520626f6f6b206e616d650000006000830152602082019050919050565b60006120cc600f83612764565b91507f496e76616c696420626f6f6b20696400000000000000000000000000000000006000830152602082019050919050565b600061210c601883612764565b91507f4e6f7420696e766f6b656420627920746865206f776e657200000000000000006000830152602082019050919050565b6000608083016000830151848203600086015261215c8282611cf5565b915050602083015161217160208601826121b8565b5060408301516121846040860182611ca2565b506060830151848203606086015261219c8282611b71565b9150508091505092915050565b6121b2816127c8565b82525050565b6121c1816127d2565b82525050565b6121d0816127d2565b82525050565b6121df816127e6565b82525050565b60006121f18284611d67565b915081905092915050565b600061220782611e27565b91506122138284611cc0565b60208201915081905092915050565b60006020820190506122376000830184611b62565b92915050565b60006060820190506122526000830186611b44565b61225f6020830185611b62565b61226c60408301846121a9565b949350505050565b600060e082019050612289600083018a611b44565b6122966020830189611b62565b6122a360408301886121a9565b6122b060608301876121a9565b6122bd60808301866121d6565b6122ca60a0830185611cb1565b6122d760c0830184611cb1565b98975050505050505050565b60006060820190506122f86000830186611b44565b818103602083015261230a8185611d2e565b905061231960408301846121c7565b949350505050565b60006040820190506123366000830185611b44565b81810360208301526123488184611d98565b90509392505050565b60006060820190506123666000830186611b62565b6123736020830185611b62565b61238060408301846121a9565b949350505050565b600060408201905061239d6000830185611b62565b81810360208301526123af8184611d98565b90509392505050565b60006040820190506123cd6000830185611b62565b6123da60208301846121a9565b9392505050565b600060208201905081810360008301526123fb8184611bcf565b905092915050565b6000602082019050818103600083015261241d8184611c2d565b905092915050565b600060208201905061243a6000830184611cb1565b92915050565b60006080820190506124556000830187611cb1565b61246260208301866121d6565b61246f6040830185611cb1565b61247c6060830184611cb1565b95945050505050565b600060208201905061249a6000830184611cd7565b92915050565b60006020820190506124b56000830184611ce6565b92915050565b600060608201905081810360008301526124d58186611d2e565b90506124e460208301856121c7565b6124f16040830184611cb1565b949350505050565b6000602082019050818103600083015261251281611e67565b9050919050565b6000602082019050818103600083015261253281611ecd565b9050919050565b6000602082019050818103600083015261255281611f33565b9050919050565b6000602082019050818103600083015261257281611f99565b9050919050565b6000602082019050818103600083015261259281611fd9565b9050919050565b600060208201905081810360008301526125b28161203f565b9050919050565b600060208201905081810360008301526125d28161207f565b9050919050565b600060208201905081810360008301526125f2816120bf565b9050919050565b60006020820190508181036000830152612612816120ff565b9050919050565b600060208201905061262e60008301846121a9565b92915050565b600060208201905061264960008301846121d6565b92915050565b6000604051905081810181811067ffffffffffffffff82111715612676576126756128bd565b5b8060405250919050565b600067ffffffffffffffff82111561269b5761269a6128bd565b5b601f19601f8301169050602081019050919050565b6000819050602082019050919050565b6000819050602082019050919050565b60008190508160005260206000209050919050565b600081519050919050565b600081519050919050565b600081519050919050565b6000602082019050919050565b6000602082019050919050565b600082825260208201905092915050565b600082825260208201905092915050565b600082825260208201905092915050565b600082825260208201905092915050565b600082825260208201905092915050565b600081905092915050565b600061278b826127a8565b9050919050565b60008115159050919050565b6000819050919050565b600073ffffffffffffffffffffffffffffffffffffffff82169050919050565b6000819050919050565b600067ffffffffffffffff82169050919050565b600060ff82169050919050565b60006127fe8261284d565b9050919050565b600061281082612817565b9050919050565b6000612822826127a8565b9050919050565b60006128348261283b565b9050919050565b6000612846826127a8565b9050919050565b60006128588261285f565b9050919050565b600061286a826127a8565b9050919050565b82818337600083830152505050565b60005b8381101561289e578082015181840152602081019050612883565b838111156128ad576000848401525b50505050565b6000819050919050565bfe5b6000601f19601f8301169050919050565b6128d981612780565b81146128e457600080fd5b50565b6128f081612792565b81146128fb57600080fd5b50565b6129078161279e565b811461291257600080fd5b50565b61291e816127c8565b811461292957600080fd5b50565b612935816127d2565b811461294057600080fd5b50565b61294c816127e6565b811461295757600080fd5b5056fea2646970667358221220099b308e8381752b38eb3109d98166b2f958959501b4d295599d91dda1ea2cb464736f6c63430007030033",
  "source": "// SPDX-License-Identifier: UNLICENSED\npragma solidity ^0.7.0;\n// pragma abicoder v2;\npragma experimental ABIEncoderV2;\nimport './Ownable.sol';\nimport \"./LibToken.sol\";\nimport \"./LIBWrapper.sol\";\n\ncontract BookLibrary is Ownable {\n    LIB public LIBToken;\n    WrapperContract public wrapperContract;\n\n    address wrapperAddress;\n    address tokenAddress;\n\n\n    struct Book {\n        string bookName;\n        uint64 numberOfCopies;\n        bytes32 bookId;\n        address[] borrowedFromAdresses;\n    }\n\n    //All books in library    \n    mapping (bytes32 => Book) public books;\n    //Holds information about the borrowed books by user \n    mapping (address => mapping(bytes32 => uint8)) public userBorrowedBooks;\n    //Array with the keys of all existing books \n    bytes32[] public bookKeys;\n    uint256 public rentPrice = 10000000000000000;\n    \n    //Adding events so the front-end could hook to them\n    event NewBookAdded(address _user, string _bookName, uint64 _quantity);\n    event BookBorrowed(address _user, string _bookName);\n    event BookReturned(address _user, string _bookName);\n    event UnwrapInBookContract(uint _amount);\n\n    constructor(address _libTokenAddress, address _libWrapperAddress) public {\n        address payable payableWrapperAddress = address(uint160(_libWrapperAddress));\n        tokenAddress = _libTokenAddress;\n        wrapperAddress = _libWrapperAddress;\n\n        LIBToken = LIB(_libTokenAddress);\n        wrapperContract = WrapperContract(payableWrapperAddress);\n\t}\n\n    modifier validTitle(string memory _bookName) {\n        require (bytes(_bookName).length > 0, \"You have to provide book name\");\n        _;\n    }\n\n    modifier validQuantity(uint64 _numberOfCopies) {\n        require (_numberOfCopies > 0, \"You need to provide valid quantity\");\n        _;\n    }\n    \n    modifier bookNotExist(string memory _bookName) {\n        require (bytes(books[keccak256(abi.encodePacked(_bookName))].bookName).length == 0, \"You already have this book in your library\");\n        _;\n    }\n    \n    modifier userAllowedToBorrowBook(bytes32 _bookId) {\n        require (bytes(books[_bookId].bookName).length != 0, \"Invalid book id\");\n        require(books[_bookId].numberOfCopies > 0, \"No quantity\");\n        require(userBorrowedBooks[msg.sender][_bookId] != 1, \"You are allowed to borrow only one copy of certain book\");\n        _;\n    }\n    \n    modifier userAllowedToReturnBook(bytes32 _bookId) {\n        require(userBorrowedBooks[msg.sender][_bookId] == 1, \"You haven't borrowed this book\");\n        _;\n    }\n    \n    function addBook (string memory _bookName, uint64 _numberOfCopies) public onlyOwner validTitle(_bookName) validQuantity(_numberOfCopies) bookNotExist(_bookName){\n        address[] memory borrowedFromAdresses;\n        bytes32 bookKey = keccak256(abi.encodePacked(_bookName));\n        Book memory newBook = Book(_bookName, _numberOfCopies, bookKey, borrowedFromAdresses);\n\n        books[bookKey] = newBook;\n        bookKeys.push(bookKey);\n        \n        emit NewBookAdded(msg.sender, _bookName, _numberOfCopies);\n    }\n    \n    function borrowBookById(bytes32 _bookId, uint256 value, uint256 deadline, uint8 v, bytes32 r, bytes32 s) public userAllowedToBorrowBook(_bookId) {\n        LIBToken.permit(msg.sender, address(this), value, deadline, v,r,s);\n\t\tLIBToken.transferFrom(msg.sender, address(this), rentPrice);\n\n        books[_bookId].numberOfCopies--;\n        books[_bookId].borrowedFromAdresses.push(msg.sender);\n        userBorrowedBooks[msg.sender][_bookId] = 1;\n        \n        emit BookBorrowed(msg.sender, books[_bookId].bookName);\n    }\n    \n    function returnBookById(bytes32 _bookId) public userAllowedToReturnBook(_bookId) {\n        books[_bookId].numberOfCopies++;\n        userBorrowedBooks[msg.sender][_bookId] = 0;\n        \n        emit BookReturned(msg.sender, books[_bookId].bookName);\n    }\n    \n    function getUsersBorrowedBook(bytes32 _bookId) public view returns(address[] memory) {\n        return books[_bookId].borrowedFromAdresses;\n    }\n    \n    function getCount() public view returns(uint count) {\n        return bookKeys.length;\n    }   \n    //Returns all the books as an array, so the user could have a list the books in the library.\n    //Implemented in case if user interacts with the contract using Remix interface. It might not be needed if user interacts with the contract using web3 client.\n    function getAllBooks() public view returns (Book[] memory) {\n        Book[] memory availableBooks = new Book[](bookKeys.length);\n\n        for(uint i=0; i < bookKeys.length; i++){\n            availableBooks[i] = books[bookKeys[i]];\n        }\n        \n        return availableBooks;\n    }\n\n    function exchangeTokens(uint _amount) public onlyOwner {\n        LIBToken.approve(wrapperAddress, _amount);\n        emit UnwrapInBookContract(_amount);\n        wrapperContract.unwrap(_amount);\n    }\n\n    function borrowWithSignature(bytes32 hashedMessage, uint8 v, bytes32 r, bytes32 s, address receiver, bytes32 bookId) public payable {\n\t\t// require(msg.value > 0, \"We need to wrap at least 1 wei\");\n\t\trequire(recoverSigner(hashedMessage, v,r,s) == receiver, 'Receiver does not signed the message');\n\n        LIBToken.transferFrom(receiver, address(this), rentPrice);\n\n        books[bookId].numberOfCopies--;\n        books[bookId].borrowedFromAdresses.push(receiver);\n        userBorrowedBooks[receiver][bookId] = 1;\n        \n        emit BookBorrowed(receiver, books[bookId].bookName);\n\t}\n\n    function recoverSigner(bytes32 hashedMessage, uint8 v, bytes32 r, bytes32 s) internal returns (address) {\n\t\tbytes32 messageDigest = keccak256(abi.encodePacked(\"\\x19Ethereum Signed Message:\\n32\", hashedMessage));\n        return ecrecover(messageDigest, v, r, s);\n\t}\n\n}",
  "sourcePath": "/Users/dimitaratanasov/Desktop/limetraining/contracts/BookLibrary.sol",
  "compiler": {
    "name": "solc",
    "version": "0.7.3+commit.9bfce1f6.Emscripten.clang",
    "optimizer": false,
    "runs": 200
  },
  "schemaVersion": "2.3.5",
  "updatedAt": "2021-06-30T07:22:55.280Z"
}