{
  "contractName": "BookLibrary",
  "abi": [
    {
      "inputs": [
        {
          "internalType": "address",
          "name": "_libTokenAddress",
          "type": "address"
        },
        {
          "internalType": "address",
          "name": "_libWrapperAddress",
          "type": "address"
        }
      ],
      "stateMutability": "nonpayable",
      "type": "constructor"
    },
    {
      "anonymous": false,
      "inputs": [
        {
          "indexed": false,
          "internalType": "address",
          "name": "_user",
          "type": "address"
        },
        {
          "indexed": false,
          "internalType": "string",
          "name": "_bookName",
          "type": "string"
        }
      ],
      "name": "BookBorrowed",
      "type": "event"
    },
    {
      "anonymous": false,
      "inputs": [
        {
          "indexed": false,
          "internalType": "address",
          "name": "_user",
          "type": "address"
        },
        {
          "indexed": false,
          "internalType": "string",
          "name": "_bookName",
          "type": "string"
        }
      ],
      "name": "BookReturned",
      "type": "event"
    },
    {
      "anonymous": false,
      "inputs": [
        {
          "indexed": false,
          "internalType": "address",
          "name": "_user",
          "type": "address"
        },
        {
          "indexed": false,
          "internalType": "string",
          "name": "_bookName",
          "type": "string"
        },
        {
          "indexed": false,
          "internalType": "uint64",
          "name": "_quantity",
          "type": "uint64"
        }
      ],
      "name": "NewBookAdded",
      "type": "event"
    },
    {
      "anonymous": false,
      "inputs": [
        {
          "indexed": false,
          "internalType": "uint256",
          "name": "_amount",
          "type": "uint256"
        }
      ],
      "name": "UnwrapInBookContract",
      "type": "event"
    },
    {
      "inputs": [],
      "name": "LIBToken",
      "outputs": [
        {
          "internalType": "contract LIB",
          "name": "",
          "type": "address"
        }
      ],
      "stateMutability": "view",
      "type": "function"
    },
    {
      "inputs": [
        {
          "internalType": "uint256",
          "name": "",
          "type": "uint256"
        }
      ],
      "name": "bookKeys",
      "outputs": [
        {
          "internalType": "bytes32",
          "name": "",
          "type": "bytes32"
        }
      ],
      "stateMutability": "view",
      "type": "function"
    },
    {
      "inputs": [
        {
          "internalType": "bytes32",
          "name": "",
          "type": "bytes32"
        }
      ],
      "name": "books",
      "outputs": [
        {
          "internalType": "string",
          "name": "bookName",
          "type": "string"
        },
        {
          "internalType": "uint64",
          "name": "numberOfCopies",
          "type": "uint64"
        },
        {
          "internalType": "bytes32",
          "name": "bookId",
          "type": "bytes32"
        }
      ],
      "stateMutability": "view",
      "type": "function"
    },
    {
      "inputs": [],
      "name": "owner",
      "outputs": [
        {
          "internalType": "address",
          "name": "",
          "type": "address"
        }
      ],
      "stateMutability": "view",
      "type": "function"
    },
    {
      "inputs": [],
      "name": "rentPrice",
      "outputs": [
        {
          "internalType": "uint256",
          "name": "",
          "type": "uint256"
        }
      ],
      "stateMutability": "view",
      "type": "function"
    },
    {
      "inputs": [
        {
          "internalType": "address",
          "name": "",
          "type": "address"
        },
        {
          "internalType": "bytes32",
          "name": "",
          "type": "bytes32"
        }
      ],
      "name": "userBorrowedBooks",
      "outputs": [
        {
          "internalType": "uint8",
          "name": "",
          "type": "uint8"
        }
      ],
      "stateMutability": "view",
      "type": "function"
    },
    {
      "inputs": [],
      "name": "wrapperContract",
      "outputs": [
        {
          "internalType": "contract WrapperContract",
          "name": "",
          "type": "address"
        }
      ],
      "stateMutability": "view",
      "type": "function"
    },
    {
      "stateMutability": "payable",
      "type": "receive"
    },
    {
      "inputs": [
        {
          "internalType": "string",
          "name": "_bookName",
          "type": "string"
        },
        {
          "internalType": "uint64",
          "name": "_numberOfCopies",
          "type": "uint64"
        }
      ],
      "name": "addBook",
      "outputs": [],
      "stateMutability": "nonpayable",
      "type": "function"
    },
    {
      "inputs": [
        {
          "internalType": "bytes32",
          "name": "_bookId",
          "type": "bytes32"
        },
        {
          "internalType": "uint256",
          "name": "value",
          "type": "uint256"
        },
        {
          "internalType": "uint256",
          "name": "deadline",
          "type": "uint256"
        },
        {
          "internalType": "uint8",
          "name": "v",
          "type": "uint8"
        },
        {
          "internalType": "bytes32",
          "name": "r",
          "type": "bytes32"
        },
        {
          "internalType": "bytes32",
          "name": "s",
          "type": "bytes32"
        }
      ],
      "name": "borrowBookById",
      "outputs": [],
      "stateMutability": "nonpayable",
      "type": "function"
    },
    {
      "inputs": [
        {
          "internalType": "bytes32",
          "name": "_bookId",
          "type": "bytes32"
        }
      ],
      "name": "returnBookById",
      "outputs": [],
      "stateMutability": "nonpayable",
      "type": "function"
    },
    {
      "inputs": [
        {
          "internalType": "bytes32",
          "name": "_bookId",
          "type": "bytes32"
        }
      ],
      "name": "getUsersBorrowedBook",
      "outputs": [
        {
          "internalType": "address[]",
          "name": "",
          "type": "address[]"
        }
      ],
      "stateMutability": "view",
      "type": "function"
    },
    {
      "inputs": [],
      "name": "getCount",
      "outputs": [
        {
          "internalType": "uint256",
          "name": "count",
          "type": "uint256"
        }
      ],
      "stateMutability": "view",
      "type": "function"
    },
    {
      "inputs": [],
      "name": "getAllBooks",
      "outputs": [
        {
          "components": [
            {
              "internalType": "string",
              "name": "bookName",
              "type": "string"
            },
            {
              "internalType": "uint64",
              "name": "numberOfCopies",
              "type": "uint64"
            },
            {
              "internalType": "bytes32",
              "name": "bookId",
              "type": "bytes32"
            },
            {
              "internalType": "address[]",
              "name": "borrowedFromAdresses",
              "type": "address[]"
            }
          ],
          "internalType": "struct BookLibrary.Book[]",
          "name": "",
          "type": "tuple[]"
        }
      ],
      "stateMutability": "view",
      "type": "function"
    },
    {
      "inputs": [
        {
          "internalType": "uint256",
          "name": "_amount",
          "type": "uint256"
        }
      ],
      "name": "exchangeTokens",
      "outputs": [],
      "stateMutability": "nonpayable",
      "type": "function"
    },
    {
      "inputs": [
        {
          "internalType": "uint256",
          "name": "value",
          "type": "uint256"
        }
      ],
      "name": "withdraw",
      "outputs": [],
      "stateMutability": "nonpayable",
      "type": "function"
    },
    {
      "inputs": [
        {
          "internalType": "bytes32",
          "name": "hashedMessage",
          "type": "bytes32"
        },
        {
          "internalType": "uint8",
          "name": "v",
          "type": "uint8"
        },
        {
          "internalType": "bytes32",
          "name": "r",
          "type": "bytes32"
        },
        {
          "internalType": "bytes32",
          "name": "s",
          "type": "bytes32"
        },
        {
          "internalType": "address",
          "name": "receiver",
          "type": "address"
        },
        {
          "internalType": "bytes32",
          "name": "bookId",
          "type": "bytes32"
        }
      ],
      "name": "borrowWithSignature",
      "outputs": [],
      "stateMutability": "payable",
      "type": "function"
    },
    {
      "inputs": [],
      "name": "IsUserOwner",
      "outputs": [
        {
          "internalType": "bool",
          "name": "",
          "type": "bool"
        }
      ],
      "stateMutability": "nonpayable",
      "type": "function"
    }
  ],
  "bytecode": "0x6080604052662386f26fc100006008553480156200001c57600080fd5b5060405162002da938038062002da98339818101604052810190620000429190620001ab565b336000806101000a81548173ffffffffffffffffffffffffffffffffffffffff021916908373ffffffffffffffffffffffffffffffffffffffff160217905550600081905082600460006101000a81548173ffffffffffffffffffffffffffffffffffffffff021916908373ffffffffffffffffffffffffffffffffffffffff16021790555081600360006101000a81548173ffffffffffffffffffffffffffffffffffffffff021916908373ffffffffffffffffffffffffffffffffffffffff16021790555082600160006101000a81548173ffffffffffffffffffffffffffffffffffffffff021916908373ffffffffffffffffffffffffffffffffffffffff16021790555080600260006101000a81548173ffffffffffffffffffffffffffffffffffffffff021916908373ffffffffffffffffffffffffffffffffffffffff1602179055505050506200023a565b600081519050620001a58162000220565b92915050565b60008060408385031215620001bf57600080fd5b6000620001cf8582860162000194565b9250506020620001e28582860162000194565b9150509250929050565b6000620001f98262000200565b9050919050565b600073ffffffffffffffffffffffffffffffffffffffff82169050919050565b6200022b81620001ec565b81146200023757600080fd5b50565b612b5f806200024a6000396000f3fe6080604052600436106101025760003560e01c80638da5cb5b11610095578063dae47ab011610064578063dae47ab014610340578063db81a28d1461037d578063e2e8b93514610399578063f3bfc1c4146103c4578063f8af64ed146103ef57610109565b80638da5cb5b146102845780639777b16f146102af578063a054bf50146102d8578063a87d942c1461031557610109565b806340477126116100d157806340477126146101cc57806346f4172a146101f55780636aebba09146102325780636cddfeff1461025b57610109565b80630c0dee701461010e5780631ba3192b1461014d5780632e1a7d4d14610178578063354528e8146101a157610109565b3661010957005b600080fd5b34801561011a57600080fd5b5061013560048036038101906101309190611b05565b61041a565b6040516101449392919061268a565b60405180910390f35b34801561015957600080fd5b506101626104f0565b60405161016f9190612654565b60405180910390f35b34801561018457600080fd5b5061019f600480360381019061019a9190611c94565b610516565b005b3480156101ad57600080fd5b506101b66105f0565b6040516101c391906125b7565b60405180910390f35b3480156101d857600080fd5b506101f360048036038101906101ee9190611c94565b610829565b005b34801561020157600080fd5b5061021c60048036038101906102179190611b05565b610a50565b6040516102299190612595565b60405180910390f35b34801561023e57600080fd5b5061025960048036038101906102549190611b05565b610af4565b005b34801561026757600080fd5b50610282600480360381019061027d9190611c40565b610caf565b005b34801561029057600080fd5b50610299610fbe565b6040516102a691906123d6565b60405180910390f35b3480156102bb57600080fd5b506102d660048036038101906102d19190611b2e565b610fe2565b005b3480156102e457600080fd5b506102ff60048036038101906102fa9190611aa0565b61144d565b60405161030c9190612803565b60405180910390f35b34801561032157600080fd5b5061032a61147c565b60405161033791906127e8565b60405180910390f35b34801561034c57600080fd5b5061036760048036038101906103629190611c94565b611489565b60405161037491906125f4565b60405180910390f35b61039760048036038101906103929190611bb7565b6114aa565b005b3480156103a557600080fd5b506103ae61176a565b6040516103bb919061266f565b60405180910390f35b3480156103d057600080fd5b506103d9611790565b6040516103e691906125d9565b60405180910390f35b3480156103fb57600080fd5b506104046117e6565b60405161041191906127e8565b60405180910390f35b6005602052806000526040600020600091509050806000018054600181600116156101000203166002900480601f0160208091040260200160405190810160405280929190818152602001828054600181600116156101000203166002900480156104c65780601f1061049b576101008083540402835291602001916104c6565b820191906000526020600020905b8154815290600101906020018083116104a957829003601f168201915b5050505050908060010160009054906101000a900467ffffffffffffffff16908060020154905083565b600160009054906101000a900473ffffffffffffffffffffffffffffffffffffffff1681565b3373ffffffffffffffffffffffffffffffffffffffff1660008054906101000a900473ffffffffffffffffffffffffffffffffffffffff1673ffffffffffffffffffffffffffffffffffffffff16146105a4576040517f08c379a000000000000000000000000000000000000000000000000000000000815260040161059b906127c8565b60405180910390fd5b3373ffffffffffffffffffffffffffffffffffffffff166108fc6008549081150290604051600060405180830381858888f193505050501580156105ec573d6000803e3d6000fd5b5050565b60608060078054905067ffffffffffffffff8111801561060f57600080fd5b5060405190808252806020026020018201604052801561064957816020015b610636611872565b81526020019060019003908161062e5790505b50905060005b60078054905081101561082157600560006007838154811061066d57fe5b90600052602060002001548152602001908152602001600020604051806080016040529081600082018054600181600116156101000203166002900480601f01602080910402602001604051908101604052809291908181526020018280546001816001161561010002031660029004801561072a5780601f106106ff5761010080835404028352916020019161072a565b820191906000526020600020905b81548152906001019060200180831161070d57829003601f168201915b505050505081526020016001820160009054906101000a900467ffffffffffffffff1667ffffffffffffffff1667ffffffffffffffff16815260200160028201548152602001600382018054806020026020016040519081016040528092919081815260200182805480156107f457602002820191906000526020600020905b8160009054906101000a900473ffffffffffffffffffffffffffffffffffffffff1673ffffffffffffffffffffffffffffffffffffffff16815260200190600101908083116107aa575b50505050508152505082828151811061080957fe5b6020026020010181905250808060010191505061064f565b508091505090565b3373ffffffffffffffffffffffffffffffffffffffff1660008054906101000a900473ffffffffffffffffffffffffffffffffffffffff1673ffffffffffffffffffffffffffffffffffffffff16146108b7576040517f08c379a00000000000000000000000000000000000000000000000000000000081526004016108ae906127c8565b60405180910390fd5b600160009054906101000a900473ffffffffffffffffffffffffffffffffffffffff1673ffffffffffffffffffffffffffffffffffffffff1663095ea7b3600360009054906101000a900473ffffffffffffffffffffffffffffffffffffffff16836040518363ffffffff1660e01b815260040161093692919061256c565b602060405180830381600087803b15801561095057600080fd5b505af1158015610964573d6000803e3d6000fd5b505050506040513d601f19601f820116820180604052508101906109889190611adc565b507ffe6bc1cb3eea4afff7f53d3433775946658a78135835b151ae13ac0b18ad7d15816040516109b891906127e8565b60405180910390a1600260009054906101000a900473ffffffffffffffffffffffffffffffffffffffff1673ffffffffffffffffffffffffffffffffffffffff1663de0e9a3e826040518263ffffffff1660e01b8152600401610a1b91906127e8565b600060405180830381600087803b158015610a3557600080fd5b505af1158015610a49573d6000803e3d6000fd5b5050505050565b606060056000838152602001908152602001600020600301805480602002602001604051908101604052809291908181526020018280548015610ae857602002820191906000526020600020905b8160009054906101000a900473ffffffffffffffffffffffffffffffffffffffff1673ffffffffffffffffffffffffffffffffffffffff1681526020019060010190808311610a9e575b50505050509050919050565b806001600660003373ffffffffffffffffffffffffffffffffffffffff1673ffffffffffffffffffffffffffffffffffffffff168152602001908152602001600020600083815260200190815260200160002060009054906101000a900460ff1660ff1614610b98576040517f08c379a0000000000000000000000000000000000000000000000000000000008152600401610b8f90612768565b60405180910390fd5b60056000838152602001908152602001600020600101600081819054906101000a900467ffffffffffffffff168092919060010191906101000a81548167ffffffffffffffff021916908367ffffffffffffffff160217905550506000600660003373ffffffffffffffffffffffffffffffffffffffff1673ffffffffffffffffffffffffffffffffffffffff168152602001908152602001600020600084815260200190815260200160002060006101000a81548160ff021916908360ff1602179055507fe3cd3b52a818cbb5f9753b3887e5654b9db07a5e3754f33dbb8fe8ab597682c73360056000858152602001908152602001600020600001604051610ca39291906124d5565b60405180910390a15050565b3373ffffffffffffffffffffffffffffffffffffffff1660008054906101000a900473ffffffffffffffffffffffffffffffffffffffff1673ffffffffffffffffffffffffffffffffffffffff1614610d3d576040517f08c379a0000000000000000000000000000000000000000000000000000000008152600401610d34906127c8565b60405180910390fd5b816000815111610d82576040517f08c379a0000000000000000000000000000000000000000000000000000000008152600401610d7990612788565b60405180910390fd5b8160008167ffffffffffffffff1611610dd0576040517f08c379a0000000000000000000000000000000000000000000000000000000008152600401610dc7906126c8565b60405180910390fd5b8360006005600083604051602001610de89190612399565b60405160208183030381529060405280519060200120815260200190815260200160002060000180546001816001161561010002031660029004905014610e64576040517f08c379a0000000000000000000000000000000000000000000000000000000008152600401610e5b90612708565b60405180910390fd5b6060600086604051602001610e799190612399565b604051602081830303815290604052805190602001209050610e99611872565b60405180608001604052808981526020018867ffffffffffffffff16815260200183815260200184815250905080600560008481526020019081526020016000206000820151816000019080519060200190610ef69291906118a7565b5060208201518160010160006101000a81548167ffffffffffffffff021916908367ffffffffffffffff160217905550604082015181600201556060820151816003019080519060200190610f4c929190611927565b5090505060078290806001815401808255809150506001900390600052602060002001600090919091909150557f82101690d24dd630a230245038a1fd10dd65503e6a15fadd35bd8752cd2859fa338989604051610fac93929190612497565b60405180910390a15050505050505050565b60008054906101000a900473ffffffffffffffffffffffffffffffffffffffff1681565b856000600560008381526020019081526020016000206000018054600181600116156101000203166002900490501415611051576040517f08c379a0000000000000000000000000000000000000000000000000000000008152600401611048906127a8565b60405180910390fd5b60006005600083815260200190815260200160002060010160009054906101000a900467ffffffffffffffff1667ffffffffffffffff16116110c8576040517f08c379a00000000000000000000000000000000000000000000000000000000081526004016110bf90612728565b60405180910390fd5b6001600660003373ffffffffffffffffffffffffffffffffffffffff1673ffffffffffffffffffffffffffffffffffffffff168152602001908152602001600020600083815260200190815260200160002060009054906101000a900460ff1660ff16141561116c576040517f08c379a0000000000000000000000000000000000000000000000000000000008152600401611163906126e8565b60405180910390fd5b600160009054906101000a900473ffffffffffffffffffffffffffffffffffffffff1673ffffffffffffffffffffffffffffffffffffffff1663d505accf333089898989896040518863ffffffff1660e01b81526004016111d39796959493929190612428565b600060405180830381600087803b1580156111ed57600080fd5b505af1158015611201573d6000803e3d6000fd5b50505050600160009054906101000a900473ffffffffffffffffffffffffffffffffffffffff1673ffffffffffffffffffffffffffffffffffffffff166323b872dd33306008546040518463ffffffff1660e01b8152600401611266939291906123f1565b602060405180830381600087803b15801561128057600080fd5b505af1158015611294573d6000803e3d6000fd5b505050506040513d601f19601f820116820180604052508101906112b89190611adc565b5060056000888152602001908152602001600020600101600081819054906101000a900467ffffffffffffffff16809291906001900391906101000a81548167ffffffffffffffff021916908367ffffffffffffffff1602179055505060056000888152602001908152602001600020600301339080600181540180825580915050600190039060005260206000200160009091909190916101000a81548173ffffffffffffffffffffffffffffffffffffffff021916908373ffffffffffffffffffffffffffffffffffffffff1602179055506001600660003373ffffffffffffffffffffffffffffffffffffffff1673ffffffffffffffffffffffffffffffffffffffff168152602001908152602001600020600089815260200190815260200160002060006101000a81548160ff021916908360ff1602179055507f3fe4f233676aaf0d0bebb622e330814c40074fe607082e9ecb3d1d48ae1d86a933600560008a815260200190815260200160002060000160405161143c9291906124d5565b60405180910390a150505050505050565b60066020528160005260406000206020528060005260406000206000915091509054906101000a900460ff1681565b6000600780549050905090565b6007818154811061149657fe5b906000526020600020016000915090505481565b8173ffffffffffffffffffffffffffffffffffffffff166114cd878787876117ec565b73ffffffffffffffffffffffffffffffffffffffff1614611523576040517f08c379a000000000000000000000000000000000000000000000000000000000815260040161151a90612748565b60405180910390fd5b600160009054906101000a900473ffffffffffffffffffffffffffffffffffffffff1673ffffffffffffffffffffffffffffffffffffffff166323b872dd83306008546040518463ffffffff1660e01b815260040161158493929190612505565b602060405180830381600087803b15801561159e57600080fd5b505af11580156115b2573d6000803e3d6000fd5b505050506040513d601f19601f820116820180604052508101906115d69190611adc565b5060056000828152602001908152602001600020600101600081819054906101000a900467ffffffffffffffff16809291906001900391906101000a81548167ffffffffffffffff021916908367ffffffffffffffff1602179055505060056000828152602001908152602001600020600301829080600181540180825580915050600190039060005260206000200160009091909190916101000a81548173ffffffffffffffffffffffffffffffffffffffff021916908373ffffffffffffffffffffffffffffffffffffffff1602179055506001600660008473ffffffffffffffffffffffffffffffffffffffff1673ffffffffffffffffffffffffffffffffffffffff168152602001908152602001600020600083815260200190815260200160002060006101000a81548160ff021916908360ff1602179055507f3fe4f233676aaf0d0bebb622e330814c40074fe607082e9ecb3d1d48ae1d86a9826005600084815260200190815260200160002060000160405161175a92919061253c565b60405180910390a1505050505050565b600260009054906101000a900473ffffffffffffffffffffffffffffffffffffffff1681565b60003373ffffffffffffffffffffffffffffffffffffffff1660008054906101000a900473ffffffffffffffffffffffffffffffffffffffff1673ffffffffffffffffffffffffffffffffffffffff1614905090565b60085481565b6000808560405160200161180091906123b0565b6040516020818303038152906040528051906020012090506001818686866040516000815260200160405260405161183b949392919061260f565b6020604051602081039080840390855afa15801561185d573d6000803e3d6000fd5b50505060206040510351915050949350505050565b604051806080016040528060608152602001600067ffffffffffffffff16815260200160008019168152602001606081525090565b828054600181600116156101000203166002900490600052602060002090601f016020900481019282601f106118e857805160ff1916838001178555611916565b82800160010185558215611916579182015b828111156119155782518255916020019190600101906118fa565b5b50905061192391906119b1565b5090565b8280548282559060005260206000209081019282156119a0579160200282015b8281111561199f5782518260006101000a81548173ffffffffffffffffffffffffffffffffffffffff021916908373ffffffffffffffffffffffffffffffffffffffff16021790555091602001919060010190611947565b5b5090506119ad91906119b1565b5090565b5b808211156119ca5760008160009055506001016119b2565b5090565b6000813590506119dd81612a9f565b92915050565b6000815190506119f281612ab6565b92915050565b600081359050611a0781612acd565b92915050565b600082601f830112611a1e57600080fd5b8135611a31611a2c8261284f565b61281e565b91508082526020830160208301858383011115611a4d57600080fd5b611a58838284612a40565b50505092915050565b600081359050611a7081612ae4565b92915050565b600081359050611a8581612afb565b92915050565b600081359050611a9a81612b12565b92915050565b60008060408385031215611ab357600080fd5b6000611ac1858286016119ce565b9250506020611ad2858286016119f8565b9150509250929050565b600060208284031215611aee57600080fd5b6000611afc848285016119e3565b91505092915050565b600060208284031215611b1757600080fd5b6000611b25848285016119f8565b91505092915050565b60008060008060008060c08789031215611b4757600080fd5b6000611b5589828a016119f8565b9650506020611b6689828a01611a61565b9550506040611b7789828a01611a61565b9450506060611b8889828a01611a8b565b9350506080611b9989828a016119f8565b92505060a0611baa89828a016119f8565b9150509295509295509295565b60008060008060008060c08789031215611bd057600080fd5b6000611bde89828a016119f8565b9650506020611bef89828a01611a8b565b9550506040611c0089828a016119f8565b9450506060611c1189828a016119f8565b9350506080611c2289828a016119ce565b92505060a0611c3389828a016119f8565b9150509295509295509295565b60008060408385031215611c5357600080fd5b600083013567ffffffffffffffff811115611c6d57600080fd5b611c7985828601611a0d565b9250506020611c8a85828601611a76565b9150509250929050565b600060208284031215611ca657600080fd5b6000611cb484828501611a61565b91505092915050565b6000611cc98383611cf8565b60208301905092915050565b6000611ce183836122f3565b905092915050565b611cf2816129c2565b82525050565b611d018161294f565b82525050565b611d108161294f565b82525050565b6000611d21826128b4565b611d2b81856128ef565b9350611d368361287f565b8060005b83811015611d67578151611d4e8882611cbd565b9750611d59836128d5565b925050600181019050611d3a565b5085935050505092915050565b6000611d7f826128b4565b611d898185612900565b9350611d948361287f565b8060005b83811015611dc5578151611dac8882611cbd565b9750611db7836128d5565b925050600181019050611d98565b5085935050505092915050565b6000611ddd826128bf565b611de78185612911565b935083602082028501611df98561288f565b8060005b85811015611e355784840389528151611e168582611cd5565b9450611e21836128e2565b925060208a01995050600181019050611dfd565b50829750879550505050505092915050565b611e5081612961565b82525050565b611e5f8161296d565b82525050565b611e6e8161296d565b82525050565b611e85611e808261296d565b612a82565b82525050565b611e94816129d4565b82525050565b611ea3816129f8565b82525050565b6000611eb4826128ca565b611ebe8185612922565b9350611ece818560208601612a4f565b611ed781612a8e565b840191505092915050565b6000611eed826128ca565b611ef78185612933565b9350611f07818560208601612a4f565b611f1081612a8e565b840191505092915050565b6000611f26826128ca565b611f308185612944565b9350611f40818560208601612a4f565b80840191505092915050565b600081546001811660008114611f695760018114611f8f57611fd3565b607f6002830416611f7a8187612933565b955060ff198316865260208601935050611fd3565b60028204611f9d8187612933565b9550611fa88561289f565b60005b82811015611fca57815481890152600182019150602081019050611fab565b80880195505050505b505092915050565b6000611fe8601c83612944565b91507f19457468657265756d205369676e6564204d6573736167653a0a3332000000006000830152601c82019050919050565b6000612028602283612933565b91507f596f75206e65656420746f2070726f766964652076616c6964207175616e746960008301527f74790000000000000000000000000000000000000000000000000000000000006020830152604082019050919050565b600061208e603783612933565b91507f596f752061726520616c6c6f77656420746f20626f72726f77206f6e6c79206f60008301527f6e6520636f7079206f66206365727461696e20626f6f6b0000000000000000006020830152604082019050919050565b60006120f4602a83612933565b91507f596f7520616c72656164792068617665207468697320626f6f6b20696e20796f60008301527f7572206c696272617279000000000000000000000000000000000000000000006020830152604082019050919050565b600061215a600b83612933565b91507f4e6f207175616e746974790000000000000000000000000000000000000000006000830152602082019050919050565b600061219a602483612933565b91507f526563656976657220646f6573206e6f74207369676e656420746865206d657360008301527f73616765000000000000000000000000000000000000000000000000000000006020830152604082019050919050565b6000612200601e83612933565b91507f596f7520686176656e277420626f72726f776564207468697320626f6f6b00006000830152602082019050919050565b6000612240601d83612933565b91507f596f75206861766520746f2070726f7669646520626f6f6b206e616d650000006000830152602082019050919050565b6000612280600f83612933565b91507f496e76616c696420626f6f6b20696400000000000000000000000000000000006000830152602082019050919050565b60006122c0601883612933565b91507f4e6f7420696e766f6b656420627920746865206f776e657200000000000000006000830152602082019050919050565b600060808301600083015184820360008601526123108282611ea9565b9150506020830151612325602086018261236c565b5060408301516123386040860182611e56565b50606083015184820360608601526123508282611d16565b9150508091505092915050565b61236681612997565b82525050565b612375816129a1565b82525050565b612384816129a1565b82525050565b612393816129b5565b82525050565b60006123a58284611f1b565b915081905092915050565b60006123bb82611fdb565b91506123c78284611e74565b60208201915081905092915050565b60006020820190506123eb6000830184611d07565b92915050565b60006060820190506124066000830186611ce9565b6124136020830185611ce9565b612420604083018461235d565b949350505050565b600060e08201905061243d600083018a611ce9565b61244a6020830189611ce9565b612457604083018861235d565b612464606083018761235d565b612471608083018661238a565b61247e60a0830185611e65565b61248b60c0830184611e65565b98975050505050505050565b60006060820190506124ac6000830186611ce9565b81810360208301526124be8185611ee2565b90506124cd604083018461237b565b949350505050565b60006040820190506124ea6000830185611ce9565b81810360208301526124fc8184611f4c565b90509392505050565b600060608201905061251a6000830186611d07565b6125276020830185611ce9565b612534604083018461235d565b949350505050565b60006040820190506125516000830185611d07565b81810360208301526125638184611f4c565b90509392505050565b60006040820190506125816000830185611d07565b61258e602083018461235d565b9392505050565b600060208201905081810360008301526125af8184611d74565b905092915050565b600060208201905081810360008301526125d18184611dd2565b905092915050565b60006020820190506125ee6000830184611e47565b92915050565b60006020820190506126096000830184611e65565b92915050565b60006080820190506126246000830187611e65565b612631602083018661238a565b61263e6040830185611e65565b61264b6060830184611e65565b95945050505050565b60006020820190506126696000830184611e8b565b92915050565b60006020820190506126846000830184611e9a565b92915050565b600060608201905081810360008301526126a48186611ee2565b90506126b3602083018561237b565b6126c06040830184611e65565b949350505050565b600060208201905081810360008301526126e18161201b565b9050919050565b6000602082019050818103600083015261270181612081565b9050919050565b60006020820190508181036000830152612721816120e7565b9050919050565b600060208201905081810360008301526127418161214d565b9050919050565b600060208201905081810360008301526127618161218d565b9050919050565b60006020820190508181036000830152612781816121f3565b9050919050565b600060208201905081810360008301526127a181612233565b9050919050565b600060208201905081810360008301526127c181612273565b9050919050565b600060208201905081810360008301526127e1816122b3565b9050919050565b60006020820190506127fd600083018461235d565b92915050565b6000602082019050612818600083018461238a565b92915050565b6000604051905081810181811067ffffffffffffffff8211171561284557612844612a8c565b5b8060405250919050565b600067ffffffffffffffff82111561286a57612869612a8c565b5b601f19601f8301169050602081019050919050565b6000819050602082019050919050565b6000819050602082019050919050565b60008190508160005260206000209050919050565b600081519050919050565b600081519050919050565b600081519050919050565b6000602082019050919050565b6000602082019050919050565b600082825260208201905092915050565b600082825260208201905092915050565b600082825260208201905092915050565b600082825260208201905092915050565b600082825260208201905092915050565b600081905092915050565b600061295a82612977565b9050919050565b60008115159050919050565b6000819050919050565b600073ffffffffffffffffffffffffffffffffffffffff82169050919050565b6000819050919050565b600067ffffffffffffffff82169050919050565b600060ff82169050919050565b60006129cd82612a1c565b9050919050565b60006129df826129e6565b9050919050565b60006129f182612977565b9050919050565b6000612a0382612a0a565b9050919050565b6000612a1582612977565b9050919050565b6000612a2782612a2e565b9050919050565b6000612a3982612977565b9050919050565b82818337600083830152505050565b60005b83811015612a6d578082015181840152602081019050612a52565b83811115612a7c576000848401525b50505050565b6000819050919050565bfe5b6000601f19601f8301169050919050565b612aa88161294f565b8114612ab357600080fd5b50565b612abf81612961565b8114612aca57600080fd5b50565b612ad68161296d565b8114612ae157600080fd5b50565b612aed81612997565b8114612af857600080fd5b50565b612b04816129a1565b8114612b0f57600080fd5b50565b612b1b816129b5565b8114612b2657600080fd5b5056fea2646970667358221220902ef815f6f6d4fd747260975c541ed24ddaeb7aadc4797d5e7f3951aa1ff58564736f6c63430007030033",
  "source": "// SPDX-License-Identifier: UNLICENSED\npragma solidity ^0.7.0;\n// pragma abicoder v2;\npragma experimental ABIEncoderV2;\nimport './Ownable.sol';\nimport \"./LibToken.sol\";\nimport \"./LIBWrapper.sol\";\n\ncontract BookLibrary is Ownable {\n    LIB public LIBToken;\n    WrapperContract public wrapperContract;\n\n    address wrapperAddress;\n    address tokenAddress;\n\n\n    struct Book {\n        string bookName;\n        uint64 numberOfCopies;\n        bytes32 bookId;\n        address[] borrowedFromAdresses;\n    }\n\n    //All books in library    \n    mapping (bytes32 => Book) public books;\n    //Holds information about the borrowed books by user \n    mapping (address => mapping(bytes32 => uint8)) public userBorrowedBooks;\n    //Array with the keys of all existing books \n    bytes32[] public bookKeys;\n    uint256 public rentPrice = 10000000000000000;\n    \n    //Adding events so the front-end could hook to them\n    event NewBookAdded(address _user, string _bookName, uint64 _quantity);\n    event BookBorrowed(address _user, string _bookName);\n    event BookReturned(address _user, string _bookName);\n    event UnwrapInBookContract(uint _amount);\n\n    constructor(address _libTokenAddress, address _libWrapperAddress) public {\n        address payable payableWrapperAddress = address(uint160(_libWrapperAddress));\n        tokenAddress = _libTokenAddress;\n        wrapperAddress = _libWrapperAddress;\n\n        LIBToken = LIB(_libTokenAddress);\n        wrapperContract = WrapperContract(payableWrapperAddress);\n\t}\n\n    modifier validTitle(string memory _bookName) {\n        require (bytes(_bookName).length > 0, \"You have to provide book name\");\n        _;\n    }\n\n    modifier validQuantity(uint64 _numberOfCopies) {\n        require (_numberOfCopies > 0, \"You need to provide valid quantity\");\n        _;\n    }\n    \n    modifier bookNotExist(string memory _bookName) {\n        require (bytes(books[keccak256(abi.encodePacked(_bookName))].bookName).length == 0, \"You already have this book in your library\");\n        _;\n    }\n    \n    modifier userAllowedToBorrowBook(bytes32 _bookId) {\n        require (bytes(books[_bookId].bookName).length != 0, \"Invalid book id\");\n        require(books[_bookId].numberOfCopies > 0, \"No quantity\");\n        require(userBorrowedBooks[msg.sender][_bookId] != 1, \"You are allowed to borrow only one copy of certain book\");\n        _;\n    }\n    \n    modifier userAllowedToReturnBook(bytes32 _bookId) {\n        require(userBorrowedBooks[msg.sender][_bookId] == 1, \"You haven't borrowed this book\");\n        _;\n    }\n    \n    function addBook (string memory _bookName, uint64 _numberOfCopies) public onlyOwner validTitle(_bookName) validQuantity(_numberOfCopies) bookNotExist(_bookName){\n        address[] memory borrowedFromAdresses;\n        bytes32 bookKey = keccak256(abi.encodePacked(_bookName));\n        Book memory newBook = Book(_bookName, _numberOfCopies, bookKey, borrowedFromAdresses);\n\n        books[bookKey] = newBook;\n        bookKeys.push(bookKey);\n        \n        emit NewBookAdded(msg.sender, _bookName, _numberOfCopies);\n    }\n    \n    function borrowBookById(bytes32 _bookId, uint256 value, uint256 deadline, uint8 v, bytes32 r, bytes32 s) public userAllowedToBorrowBook(_bookId) {\n        LIBToken.permit(msg.sender, address(this), value, deadline, v,r,s);\n\t\tLIBToken.transferFrom(msg.sender, address(this), rentPrice);\n\n        books[_bookId].numberOfCopies--;\n        books[_bookId].borrowedFromAdresses.push(msg.sender);\n        userBorrowedBooks[msg.sender][_bookId] = 1;\n        \n        emit BookBorrowed(msg.sender, books[_bookId].bookName);\n    }\n    \n    function returnBookById(bytes32 _bookId) public userAllowedToReturnBook(_bookId) {\n        books[_bookId].numberOfCopies++;\n        userBorrowedBooks[msg.sender][_bookId] = 0;\n        \n        emit BookReturned(msg.sender, books[_bookId].bookName);\n    }\n    \n    function getUsersBorrowedBook(bytes32 _bookId) public view returns(address[] memory) {\n        return books[_bookId].borrowedFromAdresses;\n    }\n    \n    function getCount() public view returns(uint count) {\n        return bookKeys.length;\n    }   \n    //Returns all the books as an array, so the user could have a list the books in the library.\n    //Implemented in case if user interacts with the contract using Remix interface. It might not be needed if user interacts with the contract using web3 client.\n    function getAllBooks() public view returns (Book[] memory) {\n        Book[] memory availableBooks = new Book[](bookKeys.length);\n\n        for(uint i=0; i < bookKeys.length; i++){\n            availableBooks[i] = books[bookKeys[i]];\n        }\n        \n        return availableBooks;\n    }\n    // unwrap contract tokens\n    function exchangeTokens(uint _amount) public onlyOwner {\n        LIBToken.approve(wrapperAddress, _amount);\n        emit UnwrapInBookContract(_amount);\n        wrapperContract.unwrap(_amount);\n        // msg.sender.transfer(_amount);\n\n    }\n    // send ETH to owner\n    function withdraw(uint256 value) public onlyOwner {\n        msg.sender.transfer(rentPrice);\n    }\n    // rent a book on behalf of abother user signed a message for this\n    function borrowWithSignature(bytes32 hashedMessage, uint8 v, bytes32 r, bytes32 s, address receiver, bytes32 bookId) public payable {\n\t\trequire(recoverSigner(hashedMessage, v,r,s) == receiver, 'Receiver does not signed the message');\n\n        LIBToken.transferFrom(receiver, address(this), rentPrice);\n\n        books[bookId].numberOfCopies--;\n        books[bookId].borrowedFromAdresses.push(receiver);\n        userBorrowedBooks[receiver][bookId] = 1;\n        \n        emit BookBorrowed(receiver, books[bookId].bookName);\n\t}\n\n    function recoverSigner(bytes32 hashedMessage, uint8 v, bytes32 r, bytes32 s) internal returns (address) {\n\t\tbytes32 messageDigest = keccak256(abi.encodePacked(\"\\x19Ethereum Signed Message:\\n32\", hashedMessage));\n        return ecrecover(messageDigest, v, r, s);\n\t}\n\n    function IsUserOwner() public returns (bool) {\n        return owner == msg.sender;\n    }\n\n    receive() external payable {}\n\n}",
  "sourcePath": "/Users/dimitaratanasov/Desktop/limetraining/contracts/BookLibrary.sol",
  "compiler": {
    "name": "solc",
    "version": "0.7.3+commit.9bfce1f6.Emscripten.clang",
    "optimizer": false,
    "runs": 200
  },
  "schemaVersion": "2.3.5",
  "updatedAt": "2021-06-30T13:03:26.399Z"
}