{
  "contractName": "BookLibrary",
  "abi": [
    {
      "inputs": [
        {
          "internalType": "address",
          "name": "_libTokenAddress",
          "type": "address"
        },
        {
          "internalType": "address",
          "name": "_libWrapperAddress",
          "type": "address"
        }
      ],
      "stateMutability": "nonpayable",
      "type": "constructor"
    },
    {
      "anonymous": false,
      "inputs": [
        {
          "indexed": false,
          "internalType": "address",
          "name": "_user",
          "type": "address"
        },
        {
          "indexed": false,
          "internalType": "string",
          "name": "_bookName",
          "type": "string"
        }
      ],
      "name": "BookBorrowed",
      "type": "event"
    },
    {
      "anonymous": false,
      "inputs": [
        {
          "indexed": false,
          "internalType": "address",
          "name": "_user",
          "type": "address"
        },
        {
          "indexed": false,
          "internalType": "string",
          "name": "_bookName",
          "type": "string"
        }
      ],
      "name": "BookReturned",
      "type": "event"
    },
    {
      "anonymous": false,
      "inputs": [
        {
          "indexed": false,
          "internalType": "address",
          "name": "_user",
          "type": "address"
        },
        {
          "indexed": false,
          "internalType": "string",
          "name": "_bookName",
          "type": "string"
        },
        {
          "indexed": false,
          "internalType": "uint64",
          "name": "_quantity",
          "type": "uint64"
        }
      ],
      "name": "NewBookAdded",
      "type": "event"
    },
    {
      "anonymous": false,
      "inputs": [
        {
          "indexed": false,
          "internalType": "uint256",
          "name": "_amount",
          "type": "uint256"
        }
      ],
      "name": "UnwrapInBookContract",
      "type": "event"
    },
    {
      "inputs": [],
      "name": "LIBToken",
      "outputs": [
        {
          "internalType": "contract LIB",
          "name": "",
          "type": "address"
        }
      ],
      "stateMutability": "view",
      "type": "function"
    },
    {
      "inputs": [],
      "name": "_owner",
      "outputs": [
        {
          "internalType": "address",
          "name": "",
          "type": "address"
        }
      ],
      "stateMutability": "view",
      "type": "function"
    },
    {
      "inputs": [
        {
          "internalType": "uint256",
          "name": "",
          "type": "uint256"
        }
      ],
      "name": "bookKeys",
      "outputs": [
        {
          "internalType": "bytes32",
          "name": "",
          "type": "bytes32"
        }
      ],
      "stateMutability": "view",
      "type": "function"
    },
    {
      "inputs": [
        {
          "internalType": "bytes32",
          "name": "",
          "type": "bytes32"
        }
      ],
      "name": "books",
      "outputs": [
        {
          "internalType": "string",
          "name": "bookName",
          "type": "string"
        },
        {
          "internalType": "uint64",
          "name": "numberOfCopies",
          "type": "uint64"
        }
      ],
      "stateMutability": "view",
      "type": "function"
    },
    {
      "inputs": [],
      "name": "owner",
      "outputs": [
        {
          "internalType": "address",
          "name": "",
          "type": "address"
        }
      ],
      "stateMutability": "view",
      "type": "function"
    },
    {
      "inputs": [],
      "name": "rentPrice",
      "outputs": [
        {
          "internalType": "uint256",
          "name": "",
          "type": "uint256"
        }
      ],
      "stateMutability": "view",
      "type": "function"
    },
    {
      "inputs": [
        {
          "internalType": "address",
          "name": "",
          "type": "address"
        },
        {
          "internalType": "bytes32",
          "name": "",
          "type": "bytes32"
        }
      ],
      "name": "userBorrowedBooks",
      "outputs": [
        {
          "internalType": "uint8",
          "name": "",
          "type": "uint8"
        }
      ],
      "stateMutability": "view",
      "type": "function"
    },
    {
      "inputs": [],
      "name": "wrapperContract",
      "outputs": [
        {
          "internalType": "contract WrapperContract",
          "name": "",
          "type": "address"
        }
      ],
      "stateMutability": "view",
      "type": "function"
    },
    {
      "stateMutability": "payable",
      "type": "receive"
    },
    {
      "inputs": [
        {
          "internalType": "string",
          "name": "_bookName",
          "type": "string"
        },
        {
          "internalType": "uint64",
          "name": "_numberOfCopies",
          "type": "uint64"
        }
      ],
      "name": "addBook",
      "outputs": [],
      "stateMutability": "nonpayable",
      "type": "function"
    },
    {
      "inputs": [
        {
          "internalType": "bytes32",
          "name": "_bookId",
          "type": "bytes32"
        },
        {
          "internalType": "uint256",
          "name": "value",
          "type": "uint256"
        },
        {
          "internalType": "uint256",
          "name": "deadline",
          "type": "uint256"
        },
        {
          "internalType": "uint8",
          "name": "v",
          "type": "uint8"
        },
        {
          "internalType": "bytes32",
          "name": "r",
          "type": "bytes32"
        },
        {
          "internalType": "bytes32",
          "name": "s",
          "type": "bytes32"
        }
      ],
      "name": "borrowBookById",
      "outputs": [],
      "stateMutability": "nonpayable",
      "type": "function"
    },
    {
      "inputs": [
        {
          "internalType": "bytes32",
          "name": "_bookId",
          "type": "bytes32"
        }
      ],
      "name": "returnBookById",
      "outputs": [],
      "stateMutability": "nonpayable",
      "type": "function"
    },
    {
      "inputs": [
        {
          "internalType": "bytes32",
          "name": "_bookId",
          "type": "bytes32"
        }
      ],
      "name": "getUsersBorrowedBook",
      "outputs": [
        {
          "internalType": "address[]",
          "name": "",
          "type": "address[]"
        }
      ],
      "stateMutability": "view",
      "type": "function"
    },
    {
      "inputs": [],
      "name": "getCount",
      "outputs": [
        {
          "internalType": "uint256",
          "name": "count",
          "type": "uint256"
        }
      ],
      "stateMutability": "view",
      "type": "function"
    },
    {
      "inputs": [
        {
          "internalType": "uint256",
          "name": "_amount",
          "type": "uint256"
        }
      ],
      "name": "exchangeTokens",
      "outputs": [],
      "stateMutability": "nonpayable",
      "type": "function"
    },
    {
      "inputs": [
        {
          "internalType": "uint256",
          "name": "value",
          "type": "uint256"
        }
      ],
      "name": "withdraw",
      "outputs": [],
      "stateMutability": "nonpayable",
      "type": "function"
    },
    {
      "inputs": [
        {
          "internalType": "bytes32",
          "name": "hashedMessage",
          "type": "bytes32"
        },
        {
          "internalType": "uint8",
          "name": "v",
          "type": "uint8"
        },
        {
          "internalType": "bytes32",
          "name": "r",
          "type": "bytes32"
        },
        {
          "internalType": "bytes32",
          "name": "s",
          "type": "bytes32"
        },
        {
          "internalType": "address",
          "name": "receiver",
          "type": "address"
        },
        {
          "internalType": "bytes32",
          "name": "bookId",
          "type": "bytes32"
        }
      ],
      "name": "borrowWithSignature",
      "outputs": [],
      "stateMutability": "payable",
      "type": "function"
    }
  ],
  "bytecode": "0x6080604052662386f26fc100006008553480156200001c57600080fd5b50604051620028ad380380620028ad8339818101604052810190620000429190620001ab565b336000806101000a81548173ffffffffffffffffffffffffffffffffffffffff021916908373ffffffffffffffffffffffffffffffffffffffff160217905550600081905082600460006101000a81548173ffffffffffffffffffffffffffffffffffffffff021916908373ffffffffffffffffffffffffffffffffffffffff16021790555081600360006101000a81548173ffffffffffffffffffffffffffffffffffffffff021916908373ffffffffffffffffffffffffffffffffffffffff16021790555082600160006101000a81548173ffffffffffffffffffffffffffffffffffffffff021916908373ffffffffffffffffffffffffffffffffffffffff16021790555080600260006101000a81548173ffffffffffffffffffffffffffffffffffffffff021916908373ffffffffffffffffffffffffffffffffffffffff1602179055505050506200023a565b600081519050620001a58162000220565b92915050565b60008060408385031215620001bf57600080fd5b6000620001cf8582860162000194565b9250506020620001e28582860162000194565b9150509250929050565b6000620001f98262000200565b9050919050565b600073ffffffffffffffffffffffffffffffffffffffff82169050919050565b6200022b81620001ec565b81146200023757600080fd5b50565b612663806200024a6000396000f3fe6080604052600436106100f75760003560e01c80639777b16f1161008a578063dae47ab011610059578063dae47ab014610334578063db81a28d14610371578063e2e8b9351461038d578063f8af64ed146103b8576100fe565b80639777b16f14610278578063a054bf50146102a1578063a87d942c146102de578063b2bdfa7b14610309576100fe565b806346f4172a116100c657806346f4172a146101be5780636aebba09146101fb5780636cddfeff146102245780638da5cb5b1461024d576100fe565b80630c0dee70146101035780631ba3192b146101415780632e1a7d4d1461016c5780634047712614610195576100fe565b366100fe57005b600080fd5b34801561010f57600080fd5b5061012a60048036038101906101259190611866565b6103e3565b6040516101389291906121f7565b60405180910390f35b34801561014d57600080fd5b506101566104b3565b60405161016391906121c1565b60405180910390f35b34801561017857600080fd5b50610193600480360381019061018e91906119f5565b6104d9565b005b3480156101a157600080fd5b506101bc60048036038101906101b791906119f5565b6105b1565b005b3480156101ca57600080fd5b506101e560048036038101906101e09190611866565b6107d8565b6040516101f2919061213f565b60405180910390f35b34801561020757600080fd5b50610222600480360381019061021d9190611866565b61087c565b005b34801561023057600080fd5b5061024b600480360381019061024691906119a1565b610a37565b005b34801561025957600080fd5b50610262610d56565b60405161026f9190611f80565b60405180910390f35b34801561028457600080fd5b5061029f600480360381019061029a919061188f565b610d7f565b005b3480156102ad57600080fd5b506102c860048036038101906102c39190611801565b6111ea565b6040516102d59190612362565b60405180910390f35b3480156102ea57600080fd5b506102f3611219565b6040516103009190612347565b60405180910390f35b34801561031557600080fd5b5061031e611226565b60405161032b9190611f80565b60405180910390f35b34801561034057600080fd5b5061035b600480360381019061035691906119f5565b61124a565b6040516103689190612161565b60405180910390f35b61038b60048036038101906103869190611918565b61126b565b005b34801561039957600080fd5b506103a261152b565b6040516103af91906121dc565b60405180910390f35b3480156103c457600080fd5b506103cd611551565b6040516103da9190612347565b60405180910390f35b6005602052806000526040600020600091509050806000018054600181600116156101000203166002900480601f01602080910402602001604051908101604052809291908181526020018280546001816001161561010002031660029004801561048f5780601f106104645761010080835404028352916020019161048f565b820191906000526020600020905b81548152906001019060200180831161047257829003601f168201915b5050505050908060010160009054906101000a900467ffffffffffffffff16905082565b600160009054906101000a900473ffffffffffffffffffffffffffffffffffffffff1681565b3373ffffffffffffffffffffffffffffffffffffffff1660008054906101000a900473ffffffffffffffffffffffffffffffffffffffff1673ffffffffffffffffffffffffffffffffffffffff1614610567576040517f08c379a000000000000000000000000000000000000000000000000000000000815260040161055e90612327565b60405180910390fd5b3373ffffffffffffffffffffffffffffffffffffffff166108fc829081150290604051600060405180830381858888f193505050501580156105ad573d6000803e3d6000fd5b5050565b3373ffffffffffffffffffffffffffffffffffffffff1660008054906101000a900473ffffffffffffffffffffffffffffffffffffffff1673ffffffffffffffffffffffffffffffffffffffff161461063f576040517f08c379a000000000000000000000000000000000000000000000000000000000815260040161063690612327565b60405180910390fd5b600160009054906101000a900473ffffffffffffffffffffffffffffffffffffffff1673ffffffffffffffffffffffffffffffffffffffff1663095ea7b3600360009054906101000a900473ffffffffffffffffffffffffffffffffffffffff16836040518363ffffffff1660e01b81526004016106be929190612116565b602060405180830381600087803b1580156106d857600080fd5b505af11580156106ec573d6000803e3d6000fd5b505050506040513d601f19601f82011682018060405250810190610710919061183d565b507ffe6bc1cb3eea4afff7f53d3433775946658a78135835b151ae13ac0b18ad7d15816040516107409190612347565b60405180910390a1600260009054906101000a900473ffffffffffffffffffffffffffffffffffffffff1673ffffffffffffffffffffffffffffffffffffffff1663de0e9a3e826040518263ffffffff1660e01b81526004016107a39190612347565b600060405180830381600087803b1580156107bd57600080fd5b505af11580156107d1573d6000803e3d6000fd5b5050505050565b60606005600083815260200190815260200160002060020180548060200260200160405190810160405280929190818152602001828054801561087057602002820191906000526020600020905b8160009054906101000a900473ffffffffffffffffffffffffffffffffffffffff1673ffffffffffffffffffffffffffffffffffffffff1681526020019060010190808311610826575b50505050509050919050565b806001600660003373ffffffffffffffffffffffffffffffffffffffff1673ffffffffffffffffffffffffffffffffffffffff168152602001908152602001600020600083815260200190815260200160002060009054906101000a900460ff1660ff1614610920576040517f08c379a0000000000000000000000000000000000000000000000000000000008152600401610917906122c7565b60405180910390fd5b60056000838152602001908152602001600020600101600081819054906101000a900467ffffffffffffffff168092919060010191906101000a81548167ffffffffffffffff021916908367ffffffffffffffff160217905550506000600660003373ffffffffffffffffffffffffffffffffffffffff1673ffffffffffffffffffffffffffffffffffffffff168152602001908152602001600020600084815260200190815260200160002060006101000a81548160ff021916908360ff1602179055507fe3cd3b52a818cbb5f9753b3887e5654b9db07a5e3754f33dbb8fe8ab597682c73360056000858152602001908152602001600020600001604051610a2b92919061207f565b60405180910390a15050565b3373ffffffffffffffffffffffffffffffffffffffff1660008054906101000a900473ffffffffffffffffffffffffffffffffffffffff1673ffffffffffffffffffffffffffffffffffffffff1614610ac5576040517f08c379a0000000000000000000000000000000000000000000000000000000008152600401610abc90612327565b60405180910390fd5b816000815111610b0a576040517f08c379a0000000000000000000000000000000000000000000000000000000008152600401610b01906122e7565b60405180910390fd5b8160008167ffffffffffffffff1611610b58576040517f08c379a0000000000000000000000000000000000000000000000000000000008152600401610b4f90612227565b60405180910390fd5b8360006005600083604051602001610b709190611f43565b60405160208183030381529060405280519060200120815260200190815260200160002060000180546001816001161561010002031660029004905014610bec576040517f08c379a0000000000000000000000000000000000000000000000000000000008152600401610be390612267565b60405180910390fd5b6060610bf66115dd565b60405180606001604052808881526020018767ffffffffffffffff168152602001838152509050806005600089604051602001610c339190611f43565b6040516020818303038152906040528051906020012081526020019081526020016000206000820151816000019080519060200190610c73929190611608565b5060208201518160010160006101000a81548167ffffffffffffffff021916908367ffffffffffffffff1602179055506040820151816002019080519060200190610cbf929190611688565b50905050600787604051602001610cd69190611f43565b6040516020818303038152906040528051906020012090806001815401808255809150506001900390600052602060002001600090919091909150557f82101690d24dd630a230245038a1fd10dd65503e6a15fadd35bd8752cd2859fa338888604051610d4593929190612041565b60405180910390a150505050505050565b60008060009054906101000a900473ffffffffffffffffffffffffffffffffffffffff16905090565b856000600560008381526020019081526020016000206000018054600181600116156101000203166002900490501415610dee576040517f08c379a0000000000000000000000000000000000000000000000000000000008152600401610de590612307565b60405180910390fd5b60006005600083815260200190815260200160002060010160009054906101000a900467ffffffffffffffff1667ffffffffffffffff1611610e65576040517f08c379a0000000000000000000000000000000000000000000000000000000008152600401610e5c90612287565b60405180910390fd5b6001600660003373ffffffffffffffffffffffffffffffffffffffff1673ffffffffffffffffffffffffffffffffffffffff168152602001908152602001600020600083815260200190815260200160002060009054906101000a900460ff1660ff161415610f09576040517f08c379a0000000000000000000000000000000000000000000000000000000008152600401610f0090612247565b60405180910390fd5b600160009054906101000a900473ffffffffffffffffffffffffffffffffffffffff1673ffffffffffffffffffffffffffffffffffffffff1663d505accf333089898989896040518863ffffffff1660e01b8152600401610f709796959493929190611fd2565b600060405180830381600087803b158015610f8a57600080fd5b505af1158015610f9e573d6000803e3d6000fd5b50505050600160009054906101000a900473ffffffffffffffffffffffffffffffffffffffff1673ffffffffffffffffffffffffffffffffffffffff166323b872dd33306008546040518463ffffffff1660e01b815260040161100393929190611f9b565b602060405180830381600087803b15801561101d57600080fd5b505af1158015611031573d6000803e3d6000fd5b505050506040513d601f19601f82011682018060405250810190611055919061183d565b5060056000888152602001908152602001600020600101600081819054906101000a900467ffffffffffffffff16809291906001900391906101000a81548167ffffffffffffffff021916908367ffffffffffffffff1602179055505060056000888152602001908152602001600020600201339080600181540180825580915050600190039060005260206000200160009091909190916101000a81548173ffffffffffffffffffffffffffffffffffffffff021916908373ffffffffffffffffffffffffffffffffffffffff1602179055506001600660003373ffffffffffffffffffffffffffffffffffffffff1673ffffffffffffffffffffffffffffffffffffffff168152602001908152602001600020600089815260200190815260200160002060006101000a81548160ff021916908360ff1602179055507f3fe4f233676aaf0d0bebb622e330814c40074fe607082e9ecb3d1d48ae1d86a933600560008a81526020019081526020016000206000016040516111d992919061207f565b60405180910390a150505050505050565b60066020528160005260406000206020528060005260406000206000915091509054906101000a900460ff1681565b6000600780549050905090565b60008054906101000a900473ffffffffffffffffffffffffffffffffffffffff1681565b6007818154811061125757fe5b906000526020600020016000915090505481565b8173ffffffffffffffffffffffffffffffffffffffff1661128e87878787611557565b73ffffffffffffffffffffffffffffffffffffffff16146112e4576040517f08c379a00000000000000000000000000000000000000000000000000000000081526004016112db906122a7565b60405180910390fd5b600160009054906101000a900473ffffffffffffffffffffffffffffffffffffffff1673ffffffffffffffffffffffffffffffffffffffff166323b872dd83306008546040518463ffffffff1660e01b8152600401611345939291906120af565b602060405180830381600087803b15801561135f57600080fd5b505af1158015611373573d6000803e3d6000fd5b505050506040513d601f19601f82011682018060405250810190611397919061183d565b5060056000828152602001908152602001600020600101600081819054906101000a900467ffffffffffffffff16809291906001900391906101000a81548167ffffffffffffffff021916908367ffffffffffffffff1602179055505060056000828152602001908152602001600020600201829080600181540180825580915050600190039060005260206000200160009091909190916101000a81548173ffffffffffffffffffffffffffffffffffffffff021916908373ffffffffffffffffffffffffffffffffffffffff1602179055506001600660008473ffffffffffffffffffffffffffffffffffffffff1673ffffffffffffffffffffffffffffffffffffffff168152602001908152602001600020600083815260200190815260200160002060006101000a81548160ff021916908360ff1602179055507f3fe4f233676aaf0d0bebb622e330814c40074fe607082e9ecb3d1d48ae1d86a9826005600084815260200190815260200160002060000160405161151b9291906120e6565b60405180910390a1505050505050565b600260009054906101000a900473ffffffffffffffffffffffffffffffffffffffff1681565b60085481565b6000808560405160200161156b9190611f5a565b604051602081830303815290604052805190602001209050600181868686604051600081526020016040526040516115a6949392919061217c565b6020604051602081039080840390855afa1580156115c8573d6000803e3d6000fd5b50505060206040510351915050949350505050565b604051806060016040528060608152602001600067ffffffffffffffff168152602001606081525090565b828054600181600116156101000203166002900490600052602060002090601f016020900481019282601f1061164957805160ff1916838001178555611677565b82800160010185558215611677579182015b8281111561167657825182559160200191906001019061165b565b5b5090506116849190611712565b5090565b828054828255906000526020600020908101928215611701579160200282015b828111156117005782518260006101000a81548173ffffffffffffffffffffffffffffffffffffffff021916908373ffffffffffffffffffffffffffffffffffffffff160217905550916020019190600101906116a8565b5b50905061170e9190611712565b5090565b5b8082111561172b576000816000905550600101611713565b5090565b60008135905061173e816125a3565b92915050565b600081519050611753816125ba565b92915050565b600081359050611768816125d1565b92915050565b600082601f83011261177f57600080fd5b813561179261178d826123ae565b61237d565b915080825260208301602083018583830111156117ae57600080fd5b6117b9838284612544565b50505092915050565b6000813590506117d1816125e8565b92915050565b6000813590506117e6816125ff565b92915050565b6000813590506117fb81612616565b92915050565b6000806040838503121561181457600080fd5b60006118228582860161172f565b925050602061183385828601611759565b9150509250929050565b60006020828403121561184f57600080fd5b600061185d84828501611744565b91505092915050565b60006020828403121561187857600080fd5b600061188684828501611759565b91505092915050565b60008060008060008060c087890312156118a857600080fd5b60006118b689828a01611759565b96505060206118c789828a016117c2565b95505060406118d889828a016117c2565b94505060606118e989828a016117ec565b93505060806118fa89828a01611759565b92505060a061190b89828a01611759565b9150509295509295509295565b60008060008060008060c0878903121561193157600080fd5b600061193f89828a01611759565b965050602061195089828a016117ec565b955050604061196189828a01611759565b945050606061197289828a01611759565b935050608061198389828a0161172f565b92505060a061199489828a01611759565b9150509295509295509295565b600080604083850312156119b457600080fd5b600083013567ffffffffffffffff8111156119ce57600080fd5b6119da8582860161176e565b92505060206119eb858286016117d7565b9150509250929050565b600060208284031215611a0757600080fd5b6000611a15848285016117c2565b91505092915050565b6000611a2a8383611a45565b60208301905092915050565b611a3f816124c6565b82525050565b611a4e81612453565b82525050565b611a5d81612453565b82525050565b6000611a6e82612403565b611a788185612426565b9350611a83836123de565b8060005b83811015611ab4578151611a9b8882611a1e565b9750611aa683612419565b925050600181019050611a87565b5085935050505092915050565b611aca81612471565b82525050565b611ae1611adc82612471565b612586565b82525050565b611af0816124d8565b82525050565b611aff816124fc565b82525050565b6000611b108261240e565b611b1a8185612437565b9350611b2a818560208601612553565b611b3381612592565b840191505092915050565b6000611b498261240e565b611b538185612448565b9350611b63818560208601612553565b80840191505092915050565b600081546001811660008114611b8c5760018114611bb257611bf6565b607f6002830416611b9d8187612437565b955060ff198316865260208601935050611bf6565b60028204611bc08187612437565b9550611bcb856123ee565b60005b82811015611bed57815481890152600182019150602081019050611bce565b80880195505050505b505092915050565b6000611c0b601c83612448565b91507f19457468657265756d205369676e6564204d6573736167653a0a3332000000006000830152601c82019050919050565b6000611c4b602283612437565b91507f596f75206e65656420746f2070726f766964652076616c6964207175616e746960008301527f74790000000000000000000000000000000000000000000000000000000000006020830152604082019050919050565b6000611cb1603783612437565b91507f596f752061726520616c6c6f77656420746f20626f72726f77206f6e6c79206f60008301527f6e6520636f7079206f66206365727461696e20626f6f6b0000000000000000006020830152604082019050919050565b6000611d17602a83612437565b91507f596f7520616c72656164792068617665207468697320626f6f6b20696e20796f60008301527f7572206c696272617279000000000000000000000000000000000000000000006020830152604082019050919050565b6000611d7d600b83612437565b91507f4e6f207175616e746974790000000000000000000000000000000000000000006000830152602082019050919050565b6000611dbd602483612437565b91507f526563656976657220646f6573206e6f74207369676e656420746865206d657360008301527f73616765000000000000000000000000000000000000000000000000000000006020830152604082019050919050565b6000611e23601e83612437565b91507f596f7520686176656e277420626f72726f776564207468697320626f6f6b00006000830152602082019050919050565b6000611e63601d83612437565b91507f596f75206861766520746f2070726f7669646520626f6f6b206e616d650000006000830152602082019050919050565b6000611ea3600f83612437565b91507f496e76616c696420626f6f6b20696400000000000000000000000000000000006000830152602082019050919050565b6000611ee3601883612437565b91507f4e6f7420696e766f6b656420627920746865206f776e657200000000000000006000830152602082019050919050565b611f1f8161249b565b82525050565b611f2e816124a5565b82525050565b611f3d816124b9565b82525050565b6000611f4f8284611b3e565b915081905092915050565b6000611f6582611bfe565b9150611f718284611ad0565b60208201915081905092915050565b6000602082019050611f956000830184611a54565b92915050565b6000606082019050611fb06000830186611a36565b611fbd6020830185611a36565b611fca6040830184611f16565b949350505050565b600060e082019050611fe7600083018a611a36565b611ff46020830189611a36565b6120016040830188611f16565b61200e6060830187611f16565b61201b6080830186611f34565b61202860a0830185611ac1565b61203560c0830184611ac1565b98975050505050505050565b60006060820190506120566000830186611a36565b81810360208301526120688185611b05565b90506120776040830184611f25565b949350505050565b60006040820190506120946000830185611a36565b81810360208301526120a68184611b6f565b90509392505050565b60006060820190506120c46000830186611a54565b6120d16020830185611a36565b6120de6040830184611f16565b949350505050565b60006040820190506120fb6000830185611a54565b818103602083015261210d8184611b6f565b90509392505050565b600060408201905061212b6000830185611a54565b6121386020830184611f16565b9392505050565b600060208201905081810360008301526121598184611a63565b905092915050565b60006020820190506121766000830184611ac1565b92915050565b60006080820190506121916000830187611ac1565b61219e6020830186611f34565b6121ab6040830185611ac1565b6121b86060830184611ac1565b95945050505050565b60006020820190506121d66000830184611ae7565b92915050565b60006020820190506121f16000830184611af6565b92915050565b600060408201905081810360008301526122118185611b05565b90506122206020830184611f25565b9392505050565b6000602082019050818103600083015261224081611c3e565b9050919050565b6000602082019050818103600083015261226081611ca4565b9050919050565b6000602082019050818103600083015261228081611d0a565b9050919050565b600060208201905081810360008301526122a081611d70565b9050919050565b600060208201905081810360008301526122c081611db0565b9050919050565b600060208201905081810360008301526122e081611e16565b9050919050565b6000602082019050818103600083015261230081611e56565b9050919050565b6000602082019050818103600083015261232081611e96565b9050919050565b6000602082019050818103600083015261234081611ed6565b9050919050565b600060208201905061235c6000830184611f16565b92915050565b60006020820190506123776000830184611f34565b92915050565b6000604051905081810181811067ffffffffffffffff821117156123a4576123a3612590565b5b8060405250919050565b600067ffffffffffffffff8211156123c9576123c8612590565b5b601f19601f8301169050602081019050919050565b6000819050602082019050919050565b60008190508160005260206000209050919050565b600081519050919050565b600081519050919050565b6000602082019050919050565b600082825260208201905092915050565b600082825260208201905092915050565b600081905092915050565b600061245e8261247b565b9050919050565b60008115159050919050565b6000819050919050565b600073ffffffffffffffffffffffffffffffffffffffff82169050919050565b6000819050919050565b600067ffffffffffffffff82169050919050565b600060ff82169050919050565b60006124d182612520565b9050919050565b60006124e3826124ea565b9050919050565b60006124f58261247b565b9050919050565b60006125078261250e565b9050919050565b60006125198261247b565b9050919050565b600061252b82612532565b9050919050565b600061253d8261247b565b9050919050565b82818337600083830152505050565b60005b83811015612571578082015181840152602081019050612556565b83811115612580576000848401525b50505050565b6000819050919050565bfe5b6000601f19601f8301169050919050565b6125ac81612453565b81146125b757600080fd5b50565b6125c381612465565b81146125ce57600080fd5b50565b6125da81612471565b81146125e557600080fd5b50565b6125f18161249b565b81146125fc57600080fd5b50565b612608816124a5565b811461261357600080fd5b50565b61261f816124b9565b811461262a57600080fd5b5056fea2646970667358221220357898b2720460c6a50bd903764293f389329b5c8938ae3107a18421603f420b64736f6c63430007030033",
  "source": "// SPDX-License-Identifier: UNLICENSED\npragma solidity ^0.7.0;\n// pragma abicoder v2;\npragma experimental ABIEncoderV2;\nimport './Ownable.sol';\nimport \"./LibToken.sol\";\nimport \"./LIBWrapper.sol\";\n\ncontract BookLibrary is Ownable {\n    LIB public LIBToken;\n    WrapperContract public wrapperContract;\n\n    address wrapperAddress;\n    address tokenAddress;\n\n\n    struct Book {\n        string bookName;\n        uint64 numberOfCopies;\n        address[] borrowedFromAdresses;\n    }\n\n    //All books in library    \n    mapping (bytes32 => Book) public books;\n    //Holds information about the borrowed books by user \n    mapping (address => mapping(bytes32 => uint8)) public userBorrowedBooks;\n    //Array with the keys of all existing books \n    bytes32[] public bookKeys;\n    uint256 public rentPrice = 10000000000000000;\n    \n    //Adding events so the front-end could hook to them\n    event NewBookAdded(address _user, string _bookName, uint64 _quantity);\n    event BookBorrowed(address _user, string _bookName);\n    event BookReturned(address _user, string _bookName);\n    event UnwrapInBookContract(uint _amount);\n\n    constructor(address _libTokenAddress, address _libWrapperAddress) public {\n        address payable payableWrapperAddress = address(uint160(_libWrapperAddress));\n        tokenAddress = _libTokenAddress;\n        wrapperAddress = _libWrapperAddress;\n\n        LIBToken = LIB(_libTokenAddress);\n        wrapperContract = WrapperContract(payableWrapperAddress);\n\t}\n\n    modifier validTitle(string memory _bookName) {\n        require (bytes(_bookName).length > 0, \"You have to provide book name\");\n        _;\n    }\n\n    modifier validQuantity(uint64 _numberOfCopies) {\n        require (_numberOfCopies > 0, \"You need to provide valid quantity\");\n        _;\n    }\n    \n    modifier bookNotExist(string memory _bookName) {\n        require (bytes(books[keccak256(abi.encodePacked(_bookName))].bookName).length == 0, \"You already have this book in your library\");\n        _;\n    }\n    \n    modifier userAllowedToBorrowBook(bytes32 _bookId) {\n        require (bytes(books[_bookId].bookName).length != 0, \"Invalid book id\");\n        require(books[_bookId].numberOfCopies > 0, \"No quantity\");\n        require(userBorrowedBooks[msg.sender][_bookId] != 1, \"You are allowed to borrow only one copy of certain book\");\n        _;\n    }\n    \n    modifier userAllowedToReturnBook(bytes32 _bookId) {\n        require(userBorrowedBooks[msg.sender][_bookId] == 1, \"You haven't borrowed this book\");\n        _;\n    }\n    \n    function addBook (string memory _bookName, uint64 _numberOfCopies) public onlyOwner validTitle(_bookName) validQuantity(_numberOfCopies) bookNotExist(_bookName){\n        address[] memory borrowedFromAdresses;\n        Book memory newBook = Book(_bookName, _numberOfCopies, borrowedFromAdresses);\n        books[keccak256(abi.encodePacked(_bookName))] = newBook;\n        bookKeys.push(keccak256(abi.encodePacked(_bookName)));\n        \n        emit NewBookAdded(msg.sender, _bookName, _numberOfCopies);\n    }\n    \n    function borrowBookById(bytes32 _bookId, uint256 value, uint256 deadline, uint8 v, bytes32 r, bytes32 s) public userAllowedToBorrowBook(_bookId) {\n        LIBToken.permit(msg.sender, address(this), value, deadline, v,r,s);\n\t\tLIBToken.transferFrom(msg.sender, address(this), rentPrice);\n\n        books[_bookId].numberOfCopies--;\n        books[_bookId].borrowedFromAdresses.push(msg.sender);\n        userBorrowedBooks[msg.sender][_bookId] = 1;\n        \n        emit BookBorrowed(msg.sender, books[_bookId].bookName);\n    }\n    \n    function returnBookById(bytes32 _bookId) public userAllowedToReturnBook(_bookId) {\n        books[_bookId].numberOfCopies++;\n        userBorrowedBooks[msg.sender][_bookId] = 0;\n        \n        emit BookReturned(msg.sender, books[_bookId].bookName);\n    }\n    \n    function getUsersBorrowedBook(bytes32 _bookId) public view returns(address[] memory) {\n        return books[_bookId].borrowedFromAdresses;\n    }\n    \n    function getCount() public view returns(uint count) {\n        return bookKeys.length;\n    }\n    // unwrap contract tokens\n    function exchangeTokens(uint _amount) public onlyOwner {\n        LIBToken.approve(wrapperAddress, _amount);\n        emit UnwrapInBookContract(_amount);\n        wrapperContract.unwrap(_amount);\n    }\n    // send ETH to owner\n    function withdraw(uint256 value) public onlyOwner {\n        msg.sender.transfer(value);\n    }\n    // rent a book on behalf of abother user signed a message for this\n    function borrowWithSignature(bytes32 hashedMessage, uint8 v, bytes32 r, bytes32 s, address receiver, bytes32 bookId) public payable {\n\t\trequire(recoverSigner(hashedMessage, v,r,s) == receiver, 'Receiver does not signed the message');\n\n        LIBToken.transferFrom(receiver, address(this), rentPrice);\n\n        books[bookId].numberOfCopies--;\n        books[bookId].borrowedFromAdresses.push(receiver);\n        userBorrowedBooks[receiver][bookId] = 1;\n        \n        emit BookBorrowed(receiver, books[bookId].bookName);\n\t}\n\n    function recoverSigner(bytes32 hashedMessage, uint8 v, bytes32 r, bytes32 s) internal returns (address) {\n\t\tbytes32 messageDigest = keccak256(abi.encodePacked(\"\\x19Ethereum Signed Message:\\n32\", hashedMessage));\n        return ecrecover(messageDigest, v, r, s);\n\t}\n\n    receive() external payable {}\n\n}",
  "sourcePath": "/Users/dimitaratanasov/Desktop/limetraining/contracts/BookLibrary.sol",
  "compiler": {
    "name": "solc",
    "version": "0.7.3+commit.9bfce1f6.Emscripten.clang",
    "optimizer": false,
    "runs": 200
  },
  "schemaVersion": "2.3.5",
  "updatedAt": "2021-07-01T06:48:34.296Z"
}