{
  "contractName": "BookLibrary",
  "abi": [
    {
      "inputs": [
        {
          "internalType": "address",
          "name": "_libTokenAddress",
          "type": "address"
        },
        {
          "internalType": "address",
          "name": "_libWrapperAddress",
          "type": "address"
        }
      ],
      "stateMutability": "nonpayable",
      "type": "constructor"
    },
    {
      "anonymous": false,
      "inputs": [
        {
          "indexed": false,
          "internalType": "address",
          "name": "_user",
          "type": "address"
        },
        {
          "indexed": false,
          "internalType": "string",
          "name": "_bookName",
          "type": "string"
        }
      ],
      "name": "BookBorrowed",
      "type": "event"
    },
    {
      "anonymous": false,
      "inputs": [
        {
          "indexed": false,
          "internalType": "address",
          "name": "_user",
          "type": "address"
        },
        {
          "indexed": false,
          "internalType": "string",
          "name": "_bookName",
          "type": "string"
        }
      ],
      "name": "BookReturned",
      "type": "event"
    },
    {
      "anonymous": false,
      "inputs": [
        {
          "indexed": false,
          "internalType": "address",
          "name": "_user",
          "type": "address"
        },
        {
          "indexed": false,
          "internalType": "string",
          "name": "_bookName",
          "type": "string"
        },
        {
          "indexed": false,
          "internalType": "uint64",
          "name": "_quantity",
          "type": "uint64"
        }
      ],
      "name": "NewBookAdded",
      "type": "event"
    },
    {
      "anonymous": false,
      "inputs": [
        {
          "indexed": false,
          "internalType": "uint256",
          "name": "_amount",
          "type": "uint256"
        }
      ],
      "name": "UnwrapInBookContract",
      "type": "event"
    },
    {
      "inputs": [],
      "name": "LIBToken",
      "outputs": [
        {
          "internalType": "contract LIB",
          "name": "",
          "type": "address"
        }
      ],
      "stateMutability": "view",
      "type": "function"
    },
    {
      "inputs": [
        {
          "internalType": "uint256",
          "name": "",
          "type": "uint256"
        }
      ],
      "name": "bookKeys",
      "outputs": [
        {
          "internalType": "bytes32",
          "name": "",
          "type": "bytes32"
        }
      ],
      "stateMutability": "view",
      "type": "function"
    },
    {
      "inputs": [
        {
          "internalType": "bytes32",
          "name": "",
          "type": "bytes32"
        }
      ],
      "name": "books",
      "outputs": [
        {
          "internalType": "string",
          "name": "bookName",
          "type": "string"
        },
        {
          "internalType": "uint64",
          "name": "numberOfCopies",
          "type": "uint64"
        },
        {
          "internalType": "bytes32",
          "name": "bookId",
          "type": "bytes32"
        }
      ],
      "stateMutability": "view",
      "type": "function"
    },
    {
      "inputs": [],
      "name": "owner",
      "outputs": [
        {
          "internalType": "address",
          "name": "",
          "type": "address"
        }
      ],
      "stateMutability": "view",
      "type": "function"
    },
    {
      "inputs": [],
      "name": "rentPrice",
      "outputs": [
        {
          "internalType": "uint256",
          "name": "",
          "type": "uint256"
        }
      ],
      "stateMutability": "view",
      "type": "function"
    },
    {
      "inputs": [
        {
          "internalType": "address",
          "name": "",
          "type": "address"
        },
        {
          "internalType": "bytes32",
          "name": "",
          "type": "bytes32"
        }
      ],
      "name": "userBorrowedBooks",
      "outputs": [
        {
          "internalType": "uint8",
          "name": "",
          "type": "uint8"
        }
      ],
      "stateMutability": "view",
      "type": "function"
    },
    {
      "inputs": [],
      "name": "wrapperContract",
      "outputs": [
        {
          "internalType": "contract WrapperContract",
          "name": "",
          "type": "address"
        }
      ],
      "stateMutability": "view",
      "type": "function"
    },
    {
      "stateMutability": "payable",
      "type": "receive"
    },
    {
      "inputs": [
        {
          "internalType": "string",
          "name": "_bookName",
          "type": "string"
        },
        {
          "internalType": "uint64",
          "name": "_numberOfCopies",
          "type": "uint64"
        }
      ],
      "name": "addBook",
      "outputs": [],
      "stateMutability": "nonpayable",
      "type": "function"
    },
    {
      "inputs": [
        {
          "internalType": "bytes32",
          "name": "_bookId",
          "type": "bytes32"
        },
        {
          "internalType": "uint256",
          "name": "value",
          "type": "uint256"
        },
        {
          "internalType": "uint256",
          "name": "deadline",
          "type": "uint256"
        },
        {
          "internalType": "uint8",
          "name": "v",
          "type": "uint8"
        },
        {
          "internalType": "bytes32",
          "name": "r",
          "type": "bytes32"
        },
        {
          "internalType": "bytes32",
          "name": "s",
          "type": "bytes32"
        }
      ],
      "name": "borrowBookById",
      "outputs": [],
      "stateMutability": "nonpayable",
      "type": "function"
    },
    {
      "inputs": [
        {
          "internalType": "bytes32",
          "name": "_bookId",
          "type": "bytes32"
        }
      ],
      "name": "returnBookById",
      "outputs": [],
      "stateMutability": "nonpayable",
      "type": "function"
    },
    {
      "inputs": [
        {
          "internalType": "bytes32",
          "name": "_bookId",
          "type": "bytes32"
        }
      ],
      "name": "getUsersBorrowedBook",
      "outputs": [
        {
          "internalType": "address[]",
          "name": "",
          "type": "address[]"
        }
      ],
      "stateMutability": "view",
      "type": "function"
    },
    {
      "inputs": [],
      "name": "getCount",
      "outputs": [
        {
          "internalType": "uint256",
          "name": "count",
          "type": "uint256"
        }
      ],
      "stateMutability": "view",
      "type": "function"
    },
    {
      "inputs": [],
      "name": "getAllBooks",
      "outputs": [
        {
          "components": [
            {
              "internalType": "string",
              "name": "bookName",
              "type": "string"
            },
            {
              "internalType": "uint64",
              "name": "numberOfCopies",
              "type": "uint64"
            },
            {
              "internalType": "bytes32",
              "name": "bookId",
              "type": "bytes32"
            },
            {
              "internalType": "address[]",
              "name": "borrowedFromAdresses",
              "type": "address[]"
            }
          ],
          "internalType": "struct BookLibrary.Book[]",
          "name": "",
          "type": "tuple[]"
        }
      ],
      "stateMutability": "view",
      "type": "function"
    },
    {
      "inputs": [
        {
          "internalType": "uint256",
          "name": "_amount",
          "type": "uint256"
        }
      ],
      "name": "exchangeTokens",
      "outputs": [],
      "stateMutability": "nonpayable",
      "type": "function"
    },
    {
      "inputs": [
        {
          "internalType": "uint256",
          "name": "value",
          "type": "uint256"
        }
      ],
      "name": "withdraw",
      "outputs": [],
      "stateMutability": "nonpayable",
      "type": "function"
    },
    {
      "inputs": [
        {
          "internalType": "bytes32",
          "name": "hashedMessage",
          "type": "bytes32"
        },
        {
          "internalType": "uint8",
          "name": "v",
          "type": "uint8"
        },
        {
          "internalType": "bytes32",
          "name": "r",
          "type": "bytes32"
        },
        {
          "internalType": "bytes32",
          "name": "s",
          "type": "bytes32"
        },
        {
          "internalType": "address",
          "name": "receiver",
          "type": "address"
        },
        {
          "internalType": "bytes32",
          "name": "bookId",
          "type": "bytes32"
        }
      ],
      "name": "borrowWithSignature",
      "outputs": [],
      "stateMutability": "payable",
      "type": "function"
    }
  ],
  "bytecode": "0x6080604052662386f26fc100006008553480156200001c57600080fd5b5060405162002cf138038062002cf18339818101604052810190620000429190620001ab565b336000806101000a81548173ffffffffffffffffffffffffffffffffffffffff021916908373ffffffffffffffffffffffffffffffffffffffff160217905550600081905082600460006101000a81548173ffffffffffffffffffffffffffffffffffffffff021916908373ffffffffffffffffffffffffffffffffffffffff16021790555081600360006101000a81548173ffffffffffffffffffffffffffffffffffffffff021916908373ffffffffffffffffffffffffffffffffffffffff16021790555082600160006101000a81548173ffffffffffffffffffffffffffffffffffffffff021916908373ffffffffffffffffffffffffffffffffffffffff16021790555080600260006101000a81548173ffffffffffffffffffffffffffffffffffffffff021916908373ffffffffffffffffffffffffffffffffffffffff1602179055505050506200023a565b600081519050620001a58162000220565b92915050565b60008060408385031215620001bf57600080fd5b6000620001cf8582860162000194565b9250506020620001e28582860162000194565b9150509250929050565b6000620001f98262000200565b9050919050565b600073ffffffffffffffffffffffffffffffffffffffff82169050919050565b6200022b81620001ec565b81146200023757600080fd5b50565b612aa7806200024a6000396000f3fe6080604052600436106100f75760003560e01c80638da5cb5b1161008a578063dae47ab011610059578063dae47ab014610335578063db81a28d14610372578063e2e8b9351461038e578063f8af64ed146103b9576100fe565b80638da5cb5b146102795780639777b16f146102a4578063a054bf50146102cd578063a87d942c1461030a576100fe565b806340477126116100c657806340477126146101c157806346f4172a146101ea5780636aebba09146102275780636cddfeff14610250576100fe565b80630c0dee70146101035780631ba3192b146101425780632e1a7d4d1461016d578063354528e814610196576100fe565b366100fe57005b600080fd5b34801561010f57600080fd5b5061012a60048036038101906101259190611a77565b6103e4565b604051610139939291906125d2565b60405180910390f35b34801561014e57600080fd5b506101576104ba565b604051610164919061259c565b60405180910390f35b34801561017957600080fd5b50610194600480360381019061018f9190611c06565b6104e0565b005b3480156101a257600080fd5b506101ab6105b8565b6040516101b8919061251a565b60405180910390f35b3480156101cd57600080fd5b506101e860048036038101906101e39190611c06565b6107f1565b005b3480156101f657600080fd5b50610211600480360381019061020c9190611a77565b610a18565b60405161021e91906124f8565b60405180910390f35b34801561023357600080fd5b5061024e60048036038101906102499190611a77565b610abc565b005b34801561025c57600080fd5b5061027760048036038101906102729190611bb2565b610c77565b005b34801561028557600080fd5b5061028e610f86565b60405161029b9190612339565b60405180910390f35b3480156102b057600080fd5b506102cb60048036038101906102c69190611aa0565b610faa565b005b3480156102d957600080fd5b506102f460048036038101906102ef9190611a12565b611415565b604051610301919061274b565b60405180910390f35b34801561031657600080fd5b5061031f611444565b60405161032c9190612730565b60405180910390f35b34801561034157600080fd5b5061035c60048036038101906103579190611c06565b611451565b604051610369919061253c565b60405180910390f35b61038c60048036038101906103879190611b29565b611472565b005b34801561039a57600080fd5b506103a3611732565b6040516103b091906125b7565b60405180910390f35b3480156103c557600080fd5b506103ce611758565b6040516103db9190612730565b60405180910390f35b6005602052806000526040600020600091509050806000018054600181600116156101000203166002900480601f0160208091040260200160405190810160405280929190818152602001828054600181600116156101000203166002900480156104905780601f1061046557610100808354040283529160200191610490565b820191906000526020600020905b81548152906001019060200180831161047357829003601f168201915b5050505050908060010160009054906101000a900467ffffffffffffffff16908060020154905083565b600160009054906101000a900473ffffffffffffffffffffffffffffffffffffffff1681565b3373ffffffffffffffffffffffffffffffffffffffff1660008054906101000a900473ffffffffffffffffffffffffffffffffffffffff1673ffffffffffffffffffffffffffffffffffffffff161461056e576040517f08c379a000000000000000000000000000000000000000000000000000000000815260040161056590612710565b60405180910390fd5b3373ffffffffffffffffffffffffffffffffffffffff166108fc829081150290604051600060405180830381858888f193505050501580156105b4573d6000803e3d6000fd5b5050565b60608060078054905067ffffffffffffffff811180156105d757600080fd5b5060405190808252806020026020018201604052801561061157816020015b6105fe6117e4565b8152602001906001900390816105f65790505b50905060005b6007805490508110156107e957600560006007838154811061063557fe5b90600052602060002001548152602001908152602001600020604051806080016040529081600082018054600181600116156101000203166002900480601f0160208091040260200160405190810160405280929190818152602001828054600181600116156101000203166002900480156106f25780601f106106c7576101008083540402835291602001916106f2565b820191906000526020600020905b8154815290600101906020018083116106d557829003601f168201915b505050505081526020016001820160009054906101000a900467ffffffffffffffff1667ffffffffffffffff1667ffffffffffffffff16815260200160028201548152602001600382018054806020026020016040519081016040528092919081815260200182805480156107bc57602002820191906000526020600020905b8160009054906101000a900473ffffffffffffffffffffffffffffffffffffffff1673ffffffffffffffffffffffffffffffffffffffff1681526020019060010190808311610772575b5050505050815250508282815181106107d157fe5b60200260200101819052508080600101915050610617565b508091505090565b3373ffffffffffffffffffffffffffffffffffffffff1660008054906101000a900473ffffffffffffffffffffffffffffffffffffffff1673ffffffffffffffffffffffffffffffffffffffff161461087f576040517f08c379a000000000000000000000000000000000000000000000000000000000815260040161087690612710565b60405180910390fd5b600160009054906101000a900473ffffffffffffffffffffffffffffffffffffffff1673ffffffffffffffffffffffffffffffffffffffff1663095ea7b3600360009054906101000a900473ffffffffffffffffffffffffffffffffffffffff16836040518363ffffffff1660e01b81526004016108fe9291906124cf565b602060405180830381600087803b15801561091857600080fd5b505af115801561092c573d6000803e3d6000fd5b505050506040513d601f19601f820116820180604052508101906109509190611a4e565b507ffe6bc1cb3eea4afff7f53d3433775946658a78135835b151ae13ac0b18ad7d15816040516109809190612730565b60405180910390a1600260009054906101000a900473ffffffffffffffffffffffffffffffffffffffff1673ffffffffffffffffffffffffffffffffffffffff1663de0e9a3e826040518263ffffffff1660e01b81526004016109e39190612730565b600060405180830381600087803b1580156109fd57600080fd5b505af1158015610a11573d6000803e3d6000fd5b5050505050565b606060056000838152602001908152602001600020600301805480602002602001604051908101604052809291908181526020018280548015610ab057602002820191906000526020600020905b8160009054906101000a900473ffffffffffffffffffffffffffffffffffffffff1673ffffffffffffffffffffffffffffffffffffffff1681526020019060010190808311610a66575b50505050509050919050565b806001600660003373ffffffffffffffffffffffffffffffffffffffff1673ffffffffffffffffffffffffffffffffffffffff168152602001908152602001600020600083815260200190815260200160002060009054906101000a900460ff1660ff1614610b60576040517f08c379a0000000000000000000000000000000000000000000000000000000008152600401610b57906126b0565b60405180910390fd5b60056000838152602001908152602001600020600101600081819054906101000a900467ffffffffffffffff168092919060010191906101000a81548167ffffffffffffffff021916908367ffffffffffffffff160217905550506000600660003373ffffffffffffffffffffffffffffffffffffffff1673ffffffffffffffffffffffffffffffffffffffff168152602001908152602001600020600084815260200190815260200160002060006101000a81548160ff021916908360ff1602179055507fe3cd3b52a818cbb5f9753b3887e5654b9db07a5e3754f33dbb8fe8ab597682c73360056000858152602001908152602001600020600001604051610c6b929190612438565b60405180910390a15050565b3373ffffffffffffffffffffffffffffffffffffffff1660008054906101000a900473ffffffffffffffffffffffffffffffffffffffff1673ffffffffffffffffffffffffffffffffffffffff1614610d05576040517f08c379a0000000000000000000000000000000000000000000000000000000008152600401610cfc90612710565b60405180910390fd5b816000815111610d4a576040517f08c379a0000000000000000000000000000000000000000000000000000000008152600401610d41906126d0565b60405180910390fd5b8160008167ffffffffffffffff1611610d98576040517f08c379a0000000000000000000000000000000000000000000000000000000008152600401610d8f90612610565b60405180910390fd5b8360006005600083604051602001610db091906122fc565b60405160208183030381529060405280519060200120815260200190815260200160002060000180546001816001161561010002031660029004905014610e2c576040517f08c379a0000000000000000000000000000000000000000000000000000000008152600401610e2390612650565b60405180910390fd5b6060600086604051602001610e4191906122fc565b604051602081830303815290604052805190602001209050610e616117e4565b60405180608001604052808981526020018867ffffffffffffffff16815260200183815260200184815250905080600560008481526020019081526020016000206000820151816000019080519060200190610ebe929190611819565b5060208201518160010160006101000a81548167ffffffffffffffff021916908367ffffffffffffffff160217905550604082015181600201556060820151816003019080519060200190610f14929190611899565b5090505060078290806001815401808255809150506001900390600052602060002001600090919091909150557f82101690d24dd630a230245038a1fd10dd65503e6a15fadd35bd8752cd2859fa338989604051610f74939291906123fa565b60405180910390a15050505050505050565b60008054906101000a900473ffffffffffffffffffffffffffffffffffffffff1681565b856000600560008381526020019081526020016000206000018054600181600116156101000203166002900490501415611019576040517f08c379a0000000000000000000000000000000000000000000000000000000008152600401611010906126f0565b60405180910390fd5b60006005600083815260200190815260200160002060010160009054906101000a900467ffffffffffffffff1667ffffffffffffffff1611611090576040517f08c379a000000000000000000000000000000000000000000000000000000000815260040161108790612670565b60405180910390fd5b6001600660003373ffffffffffffffffffffffffffffffffffffffff1673ffffffffffffffffffffffffffffffffffffffff168152602001908152602001600020600083815260200190815260200160002060009054906101000a900460ff1660ff161415611134576040517f08c379a000000000000000000000000000000000000000000000000000000000815260040161112b90612630565b60405180910390fd5b600160009054906101000a900473ffffffffffffffffffffffffffffffffffffffff1673ffffffffffffffffffffffffffffffffffffffff1663d505accf333089898989896040518863ffffffff1660e01b815260040161119b979695949392919061238b565b600060405180830381600087803b1580156111b557600080fd5b505af11580156111c9573d6000803e3d6000fd5b50505050600160009054906101000a900473ffffffffffffffffffffffffffffffffffffffff1673ffffffffffffffffffffffffffffffffffffffff166323b872dd33306008546040518463ffffffff1660e01b815260040161122e93929190612354565b602060405180830381600087803b15801561124857600080fd5b505af115801561125c573d6000803e3d6000fd5b505050506040513d601f19601f820116820180604052508101906112809190611a4e565b5060056000888152602001908152602001600020600101600081819054906101000a900467ffffffffffffffff16809291906001900391906101000a81548167ffffffffffffffff021916908367ffffffffffffffff1602179055505060056000888152602001908152602001600020600301339080600181540180825580915050600190039060005260206000200160009091909190916101000a81548173ffffffffffffffffffffffffffffffffffffffff021916908373ffffffffffffffffffffffffffffffffffffffff1602179055506001600660003373ffffffffffffffffffffffffffffffffffffffff1673ffffffffffffffffffffffffffffffffffffffff168152602001908152602001600020600089815260200190815260200160002060006101000a81548160ff021916908360ff1602179055507f3fe4f233676aaf0d0bebb622e330814c40074fe607082e9ecb3d1d48ae1d86a933600560008a8152602001908152602001600020600001604051611404929190612438565b60405180910390a150505050505050565b60066020528160005260406000206020528060005260406000206000915091509054906101000a900460ff1681565b6000600780549050905090565b6007818154811061145e57fe5b906000526020600020016000915090505481565b8173ffffffffffffffffffffffffffffffffffffffff166114958787878761175e565b73ffffffffffffffffffffffffffffffffffffffff16146114eb576040517f08c379a00000000000000000000000000000000000000000000000000000000081526004016114e290612690565b60405180910390fd5b600160009054906101000a900473ffffffffffffffffffffffffffffffffffffffff1673ffffffffffffffffffffffffffffffffffffffff166323b872dd83306008546040518463ffffffff1660e01b815260040161154c93929190612468565b602060405180830381600087803b15801561156657600080fd5b505af115801561157a573d6000803e3d6000fd5b505050506040513d601f19601f8201168201806040525081019061159e9190611a4e565b5060056000828152602001908152602001600020600101600081819054906101000a900467ffffffffffffffff16809291906001900391906101000a81548167ffffffffffffffff021916908367ffffffffffffffff1602179055505060056000828152602001908152602001600020600301829080600181540180825580915050600190039060005260206000200160009091909190916101000a81548173ffffffffffffffffffffffffffffffffffffffff021916908373ffffffffffffffffffffffffffffffffffffffff1602179055506001600660008473ffffffffffffffffffffffffffffffffffffffff1673ffffffffffffffffffffffffffffffffffffffff168152602001908152602001600020600083815260200190815260200160002060006101000a81548160ff021916908360ff1602179055507f3fe4f233676aaf0d0bebb622e330814c40074fe607082e9ecb3d1d48ae1d86a9826005600084815260200190815260200160002060000160405161172292919061249f565b60405180910390a1505050505050565b600260009054906101000a900473ffffffffffffffffffffffffffffffffffffffff1681565b60085481565b600080856040516020016117729190612313565b604051602081830303815290604052805190602001209050600181868686604051600081526020016040526040516117ad9493929190612557565b6020604051602081039080840390855afa1580156117cf573d6000803e3d6000fd5b50505060206040510351915050949350505050565b604051806080016040528060608152602001600067ffffffffffffffff16815260200160008019168152602001606081525090565b828054600181600116156101000203166002900490600052602060002090601f016020900481019282601f1061185a57805160ff1916838001178555611888565b82800160010185558215611888579182015b8281111561188757825182559160200191906001019061186c565b5b5090506118959190611923565b5090565b828054828255906000526020600020908101928215611912579160200282015b828111156119115782518260006101000a81548173ffffffffffffffffffffffffffffffffffffffff021916908373ffffffffffffffffffffffffffffffffffffffff160217905550916020019190600101906118b9565b5b50905061191f9190611923565b5090565b5b8082111561193c576000816000905550600101611924565b5090565b60008135905061194f816129e7565b92915050565b600081519050611964816129fe565b92915050565b60008135905061197981612a15565b92915050565b600082601f83011261199057600080fd5b81356119a361199e82612797565b612766565b915080825260208301602083018583830111156119bf57600080fd5b6119ca838284612988565b50505092915050565b6000813590506119e281612a2c565b92915050565b6000813590506119f781612a43565b92915050565b600081359050611a0c81612a5a565b92915050565b60008060408385031215611a2557600080fd5b6000611a3385828601611940565b9250506020611a448582860161196a565b9150509250929050565b600060208284031215611a6057600080fd5b6000611a6e84828501611955565b91505092915050565b600060208284031215611a8957600080fd5b6000611a978482850161196a565b91505092915050565b60008060008060008060c08789031215611ab957600080fd5b6000611ac789828a0161196a565b9650506020611ad889828a016119d3565b9550506040611ae989828a016119d3565b9450506060611afa89828a016119fd565b9350506080611b0b89828a0161196a565b92505060a0611b1c89828a0161196a565b9150509295509295509295565b60008060008060008060c08789031215611b4257600080fd5b6000611b5089828a0161196a565b9650506020611b6189828a016119fd565b9550506040611b7289828a0161196a565b9450506060611b8389828a0161196a565b9350506080611b9489828a01611940565b92505060a0611ba589828a0161196a565b9150509295509295509295565b60008060408385031215611bc557600080fd5b600083013567ffffffffffffffff811115611bdf57600080fd5b611beb8582860161197f565b9250506020611bfc858286016119e8565b9150509250929050565b600060208284031215611c1857600080fd5b6000611c26848285016119d3565b91505092915050565b6000611c3b8383611c6a565b60208301905092915050565b6000611c538383612256565b905092915050565b611c648161290a565b82525050565b611c7381612897565b82525050565b611c8281612897565b82525050565b6000611c93826127fc565b611c9d8185612837565b9350611ca8836127c7565b8060005b83811015611cd9578151611cc08882611c2f565b9750611ccb8361281d565b925050600181019050611cac565b5085935050505092915050565b6000611cf1826127fc565b611cfb8185612848565b9350611d06836127c7565b8060005b83811015611d37578151611d1e8882611c2f565b9750611d298361281d565b925050600181019050611d0a565b5085935050505092915050565b6000611d4f82612807565b611d598185612859565b935083602082028501611d6b856127d7565b8060005b85811015611da75784840389528151611d888582611c47565b9450611d938361282a565b925060208a01995050600181019050611d6f565b50829750879550505050505092915050565b611dc2816128b5565b82525050565b611dd1816128b5565b82525050565b611de8611de3826128b5565b6129ca565b82525050565b611df78161291c565b82525050565b611e0681612940565b82525050565b6000611e1782612812565b611e21818561286a565b9350611e31818560208601612997565b611e3a816129d6565b840191505092915050565b6000611e5082612812565b611e5a818561287b565b9350611e6a818560208601612997565b611e73816129d6565b840191505092915050565b6000611e8982612812565b611e93818561288c565b9350611ea3818560208601612997565b80840191505092915050565b600081546001811660008114611ecc5760018114611ef257611f36565b607f6002830416611edd818761287b565b955060ff198316865260208601935050611f36565b60028204611f00818761287b565b9550611f0b856127e7565b60005b82811015611f2d57815481890152600182019150602081019050611f0e565b80880195505050505b505092915050565b6000611f4b601c8361288c565b91507f19457468657265756d205369676e6564204d6573736167653a0a3332000000006000830152601c82019050919050565b6000611f8b60228361287b565b91507f596f75206e65656420746f2070726f766964652076616c6964207175616e746960008301527f74790000000000000000000000000000000000000000000000000000000000006020830152604082019050919050565b6000611ff160378361287b565b91507f596f752061726520616c6c6f77656420746f20626f72726f77206f6e6c79206f60008301527f6e6520636f7079206f66206365727461696e20626f6f6b0000000000000000006020830152604082019050919050565b6000612057602a8361287b565b91507f596f7520616c72656164792068617665207468697320626f6f6b20696e20796f60008301527f7572206c696272617279000000000000000000000000000000000000000000006020830152604082019050919050565b60006120bd600b8361287b565b91507f4e6f207175616e746974790000000000000000000000000000000000000000006000830152602082019050919050565b60006120fd60248361287b565b91507f526563656976657220646f6573206e6f74207369676e656420746865206d657360008301527f73616765000000000000000000000000000000000000000000000000000000006020830152604082019050919050565b6000612163601e8361287b565b91507f596f7520686176656e277420626f72726f776564207468697320626f6f6b00006000830152602082019050919050565b60006121a3601d8361287b565b91507f596f75206861766520746f2070726f7669646520626f6f6b206e616d650000006000830152602082019050919050565b60006121e3600f8361287b565b91507f496e76616c696420626f6f6b20696400000000000000000000000000000000006000830152602082019050919050565b600061222360188361287b565b91507f4e6f7420696e766f6b656420627920746865206f776e657200000000000000006000830152602082019050919050565b600060808301600083015184820360008601526122738282611e0c565b915050602083015161228860208601826122cf565b50604083015161229b6040860182611db9565b50606083015184820360608601526122b38282611c88565b9150508091505092915050565b6122c9816128df565b82525050565b6122d8816128e9565b82525050565b6122e7816128e9565b82525050565b6122f6816128fd565b82525050565b60006123088284611e7e565b915081905092915050565b600061231e82611f3e565b915061232a8284611dd7565b60208201915081905092915050565b600060208201905061234e6000830184611c79565b92915050565b60006060820190506123696000830186611c5b565b6123766020830185611c5b565b61238360408301846122c0565b949350505050565b600060e0820190506123a0600083018a611c5b565b6123ad6020830189611c5b565b6123ba60408301886122c0565b6123c760608301876122c0565b6123d460808301866122ed565b6123e160a0830185611dc8565b6123ee60c0830184611dc8565b98975050505050505050565b600060608201905061240f6000830186611c5b565b81810360208301526124218185611e45565b905061243060408301846122de565b949350505050565b600060408201905061244d6000830185611c5b565b818103602083015261245f8184611eaf565b90509392505050565b600060608201905061247d6000830186611c79565b61248a6020830185611c5b565b61249760408301846122c0565b949350505050565b60006040820190506124b46000830185611c79565b81810360208301526124c68184611eaf565b90509392505050565b60006040820190506124e46000830185611c79565b6124f160208301846122c0565b9392505050565b600060208201905081810360008301526125128184611ce6565b905092915050565b600060208201905081810360008301526125348184611d44565b905092915050565b60006020820190506125516000830184611dc8565b92915050565b600060808201905061256c6000830187611dc8565b61257960208301866122ed565b6125866040830185611dc8565b6125936060830184611dc8565b95945050505050565b60006020820190506125b16000830184611dee565b92915050565b60006020820190506125cc6000830184611dfd565b92915050565b600060608201905081810360008301526125ec8186611e45565b90506125fb60208301856122de565b6126086040830184611dc8565b949350505050565b6000602082019050818103600083015261262981611f7e565b9050919050565b6000602082019050818103600083015261264981611fe4565b9050919050565b600060208201905081810360008301526126698161204a565b9050919050565b60006020820190508181036000830152612689816120b0565b9050919050565b600060208201905081810360008301526126a9816120f0565b9050919050565b600060208201905081810360008301526126c981612156565b9050919050565b600060208201905081810360008301526126e981612196565b9050919050565b60006020820190508181036000830152612709816121d6565b9050919050565b6000602082019050818103600083015261272981612216565b9050919050565b600060208201905061274560008301846122c0565b92915050565b600060208201905061276060008301846122ed565b92915050565b6000604051905081810181811067ffffffffffffffff8211171561278d5761278c6129d4565b5b8060405250919050565b600067ffffffffffffffff8211156127b2576127b16129d4565b5b601f19601f8301169050602081019050919050565b6000819050602082019050919050565b6000819050602082019050919050565b60008190508160005260206000209050919050565b600081519050919050565b600081519050919050565b600081519050919050565b6000602082019050919050565b6000602082019050919050565b600082825260208201905092915050565b600082825260208201905092915050565b600082825260208201905092915050565b600082825260208201905092915050565b600082825260208201905092915050565b600081905092915050565b60006128a2826128bf565b9050919050565b60008115159050919050565b6000819050919050565b600073ffffffffffffffffffffffffffffffffffffffff82169050919050565b6000819050919050565b600067ffffffffffffffff82169050919050565b600060ff82169050919050565b600061291582612964565b9050919050565b60006129278261292e565b9050919050565b6000612939826128bf565b9050919050565b600061294b82612952565b9050919050565b600061295d826128bf565b9050919050565b600061296f82612976565b9050919050565b6000612981826128bf565b9050919050565b82818337600083830152505050565b60005b838110156129b557808201518184015260208101905061299a565b838111156129c4576000848401525b50505050565b6000819050919050565bfe5b6000601f19601f8301169050919050565b6129f081612897565b81146129fb57600080fd5b50565b612a07816128a9565b8114612a1257600080fd5b50565b612a1e816128b5565b8114612a2957600080fd5b50565b612a35816128df565b8114612a4057600080fd5b50565b612a4c816128e9565b8114612a5757600080fd5b50565b612a63816128fd565b8114612a6e57600080fd5b5056fea264697066735822122015dc8c6d7c7dedf5ccc3225397d387c9c7ace0416d48dbbc8671b5e956657eac64736f6c63430007030033",
  "source": "// SPDX-License-Identifier: UNLICENSED\npragma solidity ^0.7.0;\n// pragma abicoder v2;\npragma experimental ABIEncoderV2;\nimport './Ownable.sol';\nimport \"./LibToken.sol\";\nimport \"./LIBWrapper.sol\";\n\ncontract BookLibrary is Ownable {\n    LIB public LIBToken;\n    WrapperContract public wrapperContract;\n\n    address wrapperAddress;\n    address tokenAddress;\n\n\n    struct Book {\n        string bookName;\n        uint64 numberOfCopies;\n        bytes32 bookId;\n        address[] borrowedFromAdresses;\n    }\n\n    //All books in library    \n    mapping (bytes32 => Book) public books;\n    //Holds information about the borrowed books by user \n    mapping (address => mapping(bytes32 => uint8)) public userBorrowedBooks;\n    //Array with the keys of all existing books \n    bytes32[] public bookKeys;\n    uint256 public rentPrice = 10000000000000000;\n    \n    //Adding events so the front-end could hook to them\n    event NewBookAdded(address _user, string _bookName, uint64 _quantity);\n    event BookBorrowed(address _user, string _bookName);\n    event BookReturned(address _user, string _bookName);\n    event UnwrapInBookContract(uint _amount);\n\n    constructor(address _libTokenAddress, address _libWrapperAddress) public {\n        address payable payableWrapperAddress = address(uint160(_libWrapperAddress));\n        tokenAddress = _libTokenAddress;\n        wrapperAddress = _libWrapperAddress;\n\n        LIBToken = LIB(_libTokenAddress);\n        wrapperContract = WrapperContract(payableWrapperAddress);\n\t}\n\n    modifier validTitle(string memory _bookName) {\n        require (bytes(_bookName).length > 0, \"You have to provide book name\");\n        _;\n    }\n\n    modifier validQuantity(uint64 _numberOfCopies) {\n        require (_numberOfCopies > 0, \"You need to provide valid quantity\");\n        _;\n    }\n    \n    modifier bookNotExist(string memory _bookName) {\n        require (bytes(books[keccak256(abi.encodePacked(_bookName))].bookName).length == 0, \"You already have this book in your library\");\n        _;\n    }\n    \n    modifier userAllowedToBorrowBook(bytes32 _bookId) {\n        require (bytes(books[_bookId].bookName).length != 0, \"Invalid book id\");\n        require(books[_bookId].numberOfCopies > 0, \"No quantity\");\n        require(userBorrowedBooks[msg.sender][_bookId] != 1, \"You are allowed to borrow only one copy of certain book\");\n        _;\n    }\n    \n    modifier userAllowedToReturnBook(bytes32 _bookId) {\n        require(userBorrowedBooks[msg.sender][_bookId] == 1, \"You haven't borrowed this book\");\n        _;\n    }\n    \n    function addBook (string memory _bookName, uint64 _numberOfCopies) public onlyOwner validTitle(_bookName) validQuantity(_numberOfCopies) bookNotExist(_bookName){\n        address[] memory borrowedFromAdresses;\n        bytes32 bookKey = keccak256(abi.encodePacked(_bookName));\n        Book memory newBook = Book(_bookName, _numberOfCopies, bookKey, borrowedFromAdresses);\n\n        books[bookKey] = newBook;\n        bookKeys.push(bookKey);\n        \n        emit NewBookAdded(msg.sender, _bookName, _numberOfCopies);\n    }\n    \n    function borrowBookById(bytes32 _bookId, uint256 value, uint256 deadline, uint8 v, bytes32 r, bytes32 s) public userAllowedToBorrowBook(_bookId) {\n        LIBToken.permit(msg.sender, address(this), value, deadline, v,r,s);\n\t\tLIBToken.transferFrom(msg.sender, address(this), rentPrice);\n\n        books[_bookId].numberOfCopies--;\n        books[_bookId].borrowedFromAdresses.push(msg.sender);\n        userBorrowedBooks[msg.sender][_bookId] = 1;\n        \n        emit BookBorrowed(msg.sender, books[_bookId].bookName);\n    }\n    \n    function returnBookById(bytes32 _bookId) public userAllowedToReturnBook(_bookId) {\n        books[_bookId].numberOfCopies++;\n        userBorrowedBooks[msg.sender][_bookId] = 0;\n        \n        emit BookReturned(msg.sender, books[_bookId].bookName);\n    }\n    \n    function getUsersBorrowedBook(bytes32 _bookId) public view returns(address[] memory) {\n        return books[_bookId].borrowedFromAdresses;\n    }\n    \n    function getCount() public view returns(uint count) {\n        return bookKeys.length;\n    }   \n    //Returns all the books as an array, so the user could have a list the books in the library.\n    //Implemented in case if user interacts with the contract using Remix interface. It might not be needed if user interacts with the contract using web3 client.\n    function getAllBooks() public view returns (Book[] memory) {\n        Book[] memory availableBooks = new Book[](bookKeys.length);\n\n        for(uint i=0; i < bookKeys.length; i++){\n            availableBooks[i] = books[bookKeys[i]];\n        }\n        \n        return availableBooks;\n    }\n    // unwrap contract tokens\n    function exchangeTokens(uint _amount) public onlyOwner {\n        LIBToken.approve(wrapperAddress, _amount);\n        emit UnwrapInBookContract(_amount);\n        wrapperContract.unwrap(_amount);\n        // msg.sender.transfer(_amount);\n\n    }\n    // send ETH to owner\n    function withdraw(uint256 value) public onlyOwner {\n        msg.sender.transfer(value);\n    }\n    // rent a book on behalf of abother user signed a message for this\n    function borrowWithSignature(bytes32 hashedMessage, uint8 v, bytes32 r, bytes32 s, address receiver, bytes32 bookId) public payable {\n\t\trequire(recoverSigner(hashedMessage, v,r,s) == receiver, 'Receiver does not signed the message');\n\n        LIBToken.transferFrom(receiver, address(this), rentPrice);\n\n        books[bookId].numberOfCopies--;\n        books[bookId].borrowedFromAdresses.push(receiver);\n        userBorrowedBooks[receiver][bookId] = 1;\n        \n        emit BookBorrowed(receiver, books[bookId].bookName);\n\t}\n\n    function recoverSigner(bytes32 hashedMessage, uint8 v, bytes32 r, bytes32 s) internal returns (address) {\n\t\tbytes32 messageDigest = keccak256(abi.encodePacked(\"\\x19Ethereum Signed Message:\\n32\", hashedMessage));\n        return ecrecover(messageDigest, v, r, s);\n\t}\n\n    receive() external payable {}\n\n}",
  "sourcePath": "/Users/dimitaratanasov/Desktop/limetraining/contracts/BookLibrary.sol",
  "compiler": {
    "name": "solc",
    "version": "0.7.3+commit.9bfce1f6.Emscripten.clang",
    "optimizer": false,
    "runs": 200
  },
  "schemaVersion": "2.3.5",
  "updatedAt": "2021-06-30T13:27:27.210Z"
}