{
  "contractName": "WrapperContract",
  "abi": [
    {
      "inputs": [],
      "stateMutability": "nonpayable",
      "type": "constructor"
    },
    {
      "anonymous": false,
      "inputs": [
        {
          "indexed": false,
          "internalType": "address",
          "name": "sender",
          "type": "address"
        },
        {
          "indexed": false,
          "internalType": "uint256",
          "name": "amount",
          "type": "uint256"
        }
      ],
      "name": "LogETHUnwrapped",
      "type": "event"
    },
    {
      "anonymous": false,
      "inputs": [
        {
          "indexed": false,
          "internalType": "address",
          "name": "sender",
          "type": "address"
        },
        {
          "indexed": false,
          "internalType": "uint256",
          "name": "amount",
          "type": "uint256"
        }
      ],
      "name": "LogETHWrapped",
      "type": "event"
    },
    {
      "anonymous": false,
      "inputs": [
        {
          "indexed": false,
          "internalType": "uint256",
          "name": "_amount",
          "type": "uint256"
        }
      ],
      "name": "UnwrapInWrapperContract",
      "type": "event"
    },
    {
      "inputs": [],
      "name": "LIBToken",
      "outputs": [
        {
          "internalType": "contract LIB",
          "name": "",
          "type": "address"
        }
      ],
      "stateMutability": "view",
      "type": "function"
    },
    {
      "inputs": [],
      "name": "wrap",
      "outputs": [],
      "stateMutability": "payable",
      "type": "function"
    },
    {
      "inputs": [
        {
          "internalType": "uint256",
          "name": "value",
          "type": "uint256"
        }
      ],
      "name": "unwrap",
      "outputs": [],
      "stateMutability": "nonpayable",
      "type": "function"
    },
    {
      "inputs": [
        {
          "internalType": "bytes32",
          "name": "hashedMessage",
          "type": "bytes32"
        },
        {
          "internalType": "uint8",
          "name": "v",
          "type": "uint8"
        },
        {
          "internalType": "bytes32",
          "name": "r",
          "type": "bytes32"
        },
        {
          "internalType": "bytes32",
          "name": "s",
          "type": "bytes32"
        },
        {
          "internalType": "address",
          "name": "receiver",
          "type": "address"
        }
      ],
      "name": "wrapWithSignature",
      "outputs": [],
      "stateMutability": "payable",
      "type": "function"
    }
  ],
  "bytecode": "0x608060405234801561001057600080fd5b5060405161001d9061007e565b604051809103906000f080158015610039573d6000803e3d6000fd5b506000806101000a81548173ffffffffffffffffffffffffffffffffffffffff021916908373ffffffffffffffffffffffffffffffffffffffff16021790555061008b565b6130bc8061090183390190565b6108678061009a6000396000f3fe60806040526004361061003f5760003560e01c80631ba3192b146100445780639fe8c07d14610085578063d46eb119146100f4578063de0e9a3e146100fe575b600080fd5b34801561005057600080fd5b50610059610139565b604051808273ffffffffffffffffffffffffffffffffffffffff16815260200191505060405180910390f35b6100f2600480360360a081101561009b57600080fd5b8101908080359060200190929190803560ff1690602001909291908035906020019092919080359060200190929190803573ffffffffffffffffffffffffffffffffffffffff16906020019092919050505061015d565b005b6100fc610367565b005b34801561010a57600080fd5b506101376004803603602081101561012157600080fd5b81019080803590602001909291905050506104dd565b005b60008054906101000a900473ffffffffffffffffffffffffffffffffffffffff1681565b600034116101d3576040517f08c379a000000000000000000000000000000000000000000000000000000000815260040180806020018281038252601e8152602001807f5765206e65656420746f2077726170206174206c65617374203120776569000081525060200191505060405180910390fd5b8073ffffffffffffffffffffffffffffffffffffffff166101f68686868661074a565b73ffffffffffffffffffffffffffffffffffffffff1614610262576040517f08c379a000000000000000000000000000000000000000000000000000000000815260040180806020018281038252602481526020018061080e6024913960400191505060405180910390fd5b60008054906101000a900473ffffffffffffffffffffffffffffffffffffffff1673ffffffffffffffffffffffffffffffffffffffff166340c10f1982346040518363ffffffff1660e01b8152600401808373ffffffffffffffffffffffffffffffffffffffff16815260200182815260200192505050600060405180830381600087803b1580156102f357600080fd5b505af1158015610307573d6000803e3d6000fd5b505050507ff5bbfc7c33e2415d8412b58a8857448e349e08f7525154290968f731e86a90398134604051808373ffffffffffffffffffffffffffffffffffffffff1681526020018281526020019250505060405180910390a15050505050565b600034116103dd576040517f08c379a000000000000000000000000000000000000000000000000000000000815260040180806020018281038252601e8152602001807f5765206e65656420746f2077726170206174206c65617374203120776569000081525060200191505060405180910390fd5b60008054906101000a900473ffffffffffffffffffffffffffffffffffffffff1673ffffffffffffffffffffffffffffffffffffffff166340c10f1933346040518363ffffffff1660e01b8152600401808373ffffffffffffffffffffffffffffffffffffffff16815260200182815260200192505050600060405180830381600087803b15801561046e57600080fd5b505af1158015610482573d6000803e3d6000fd5b505050507ff5bbfc7c33e2415d8412b58a8857448e349e08f7525154290968f731e86a90393334604051808373ffffffffffffffffffffffffffffffffffffffff1681526020018281526020019250505060405180910390a1565b7f1f55ccb91818f47dd6e5d6c59aad9e7e7ada9abb56087d619f4f2c99469eff55816040518082815260200191505060405180910390a16000811161058a576040517f08c379a00000000000000000000000000000000000000000000000000000000081526004018080602001828103825260208152602001807f5765206e65656420746f20756e77726170206174206c6561737420312077656981525060200191505060405180910390fd5b60008054906101000a900473ffffffffffffffffffffffffffffffffffffffff1673ffffffffffffffffffffffffffffffffffffffff166323b872dd3330846040518463ffffffff1660e01b8152600401808473ffffffffffffffffffffffffffffffffffffffff1681526020018373ffffffffffffffffffffffffffffffffffffffff1681526020018281526020019350505050602060405180830381600087803b15801561063957600080fd5b505af115801561064d573d6000803e3d6000fd5b505050506040513d602081101561066357600080fd5b81019080805190602001909291905050505060008054906101000a900473ffffffffffffffffffffffffffffffffffffffff1673ffffffffffffffffffffffffffffffffffffffff166342966c68826040518263ffffffff1660e01b815260040180828152602001915050600060405180830381600087803b1580156106e857600080fd5b505af11580156106fc573d6000803e3d6000fd5b505050503373ffffffffffffffffffffffffffffffffffffffff166108fc829081150290604051600060405180830381858888f19350505050158015610746573d6000803e3d6000fd5b5050565b6000808560405160200180807f19457468657265756d205369676e6564204d6573736167653a0a333200000000815250601c0182815260200191505060405160208183030381529060405280519060200120905060018186868660405160008152602001604052604051808581526020018460ff1681526020018381526020018281526020019450505050506020604051602081039080840390855afa1580156107f8573d6000803e3d6000fd5b5050506020604051035191505094935050505056fe526563656976657220646f6573206e6f74207369676e656420746865206d657373616765a2646970667358221220b906e82d43f5ec1d12f7db0d6c895a63eb991f17c77722e7cae256ec7f95b76764736f6c6343000703003360806040523480156200001157600080fd5b506040518060400160405280600d81526020017f4c69627261727920546f6b656e000000000000000000000000000000000000008152506040518060400160405280600381526020017f4c49420000000000000000000000000000000000000000000000000000000000815250818181600490805190602001906200009892919062000422565b508060059080519060200190620000b192919062000422565b506012600660006101000a81548160ff021916908360ff16021790555050506000600660016101000a81548160ff0219169083151502179055506200010f6000801b620001036200028c60201b60201c565b6200029460201b60201c565b620001507f9f2df0fed2c77648de5860a4cc508cd0818c85b8b8a1ab4ceeef8d981c8956a6620001446200028c60201b60201c565b6200029460201b60201c565b620001917f65d7a28e3265b37a6474929f336521b332c1681b933f6cb9f3376673440d862a620001856200028c60201b60201c565b6200029460201b60201c565b50507f91ab3d17e3a50a9d89e63fd30b92be7f5336b03b287bb946787a83a9d62a27666040518060400160405280600d81526020017f4c69627261727920546f6b656e00000000000000000000000000000000000000815250805190602001206040518060400160405280600181526020017f31000000000000000000000000000000000000000000000000000000000000008152508051906020012030604051602001808581526020018481526020018381526020018273ffffffffffffffffffffffffffffffffffffffff16815260200194505050505060405160208183030381529060405280519060200120600781905550620004c8565b600033905090565b620002a68282620002aa60201b60201c565b5050565b620002d8816000808581526020019081526020016000206000016200034d60201b6200183e1790919060201c565b156200034957620002ee6200028c60201b60201c565b73ffffffffffffffffffffffffffffffffffffffff168173ffffffffffffffffffffffffffffffffffffffff16837f2f8788117e7eff1d82e926ec794901d17c78024a50270940304540a733656f0d60405160405180910390a45b5050565b60006200037d836000018373ffffffffffffffffffffffffffffffffffffffff1660001b6200038560201b60201c565b905092915050565b6000620003998383620003ff60201b60201c565b620003f4578260000182908060018154018082558091505060019003906000526020600020016000909190919091505582600001805490508360010160008481526020019081526020016000208190555060019050620003f9565b600090505b92915050565b600080836001016000848152602001908152602001600020541415905092915050565b828054600181600116156101000203166002900490600052602060002090601f016020900481019282601f106200046557805160ff191683800117855562000496565b8280016001018555821562000496579182015b828111156200049557825182559160200191906001019062000478565b5b509050620004a59190620004a9565b5090565b5b80821115620004c4576000816000905550600101620004aa565b5090565b612be480620004d86000396000f3fe608060405234801561001057600080fd5b50600436106101e55760003560e01c806370a082311161010f578063a457c2d7116100a2578063d539139311610071578063d5391393146109ca578063d547741f146109e8578063dd62ed3e14610a36578063e63ab1e914610aae576101e5565b8063a457c2d714610827578063a9059cbb1461088b578063ca15c873146108ef578063d505accf14610931576101e5565b80639010d07c116100de5780639010d07c146106c057806391d148541461072257806395d89b4114610786578063a217fddf14610809576101e5565b806370a08231146105b857806379cc6790146106105780637ecebe001461065e5780638456cb59146106b6576101e5565b8063313ce567116101875780633f4ba83a116101565780633f4ba83a1461051257806340c10f191461051c57806342966c681461056a5780635c975abb14610598576101e5565b8063313ce567146104215780633644e5151461044257806336568abe1461046057806339509351146104ae576101e5565b806323b872dd116101c357806323b872dd146102ef578063248a9ca3146103735780632f2ff15d146103b557806330adf81f14610403576101e5565b806306fdde03146101ea578063095ea7b31461026d57806318160ddd146102d1575b600080fd5b6101f2610acc565b6040518080602001828103825283818151815260200191508051906020019080838360005b83811015610232578082015181840152602081019050610217565b50505050905090810190601f16801561025f5780820380516001836020036101000a031916815260200191505b509250505060405180910390f35b6102b96004803603604081101561028357600080fd5b81019080803573ffffffffffffffffffffffffffffffffffffffff16906020019092919080359060200190929190505050610b6e565b60405180821515815260200191505060405180910390f35b6102d9610b8c565b6040518082815260200191505060405180910390f35b61035b6004803603606081101561030557600080fd5b81019080803573ffffffffffffffffffffffffffffffffffffffff169060200190929190803573ffffffffffffffffffffffffffffffffffffffff16906020019092919080359060200190929190505050610b96565b60405180821515815260200191505060405180910390f35b61039f6004803603602081101561038957600080fd5b8101908080359060200190929190505050610c6f565b6040518082815260200191505060405180910390f35b610401600480360360408110156103cb57600080fd5b8101908080359060200190929190803573ffffffffffffffffffffffffffffffffffffffff169060200190929190505050610c8e565b005b61040b610d17565b6040518082815260200191505060405180910390f35b610429610d3e565b604051808260ff16815260200191505060405180910390f35b61044a610d55565b6040518082815260200191505060405180910390f35b6104ac6004803603604081101561047657600080fd5b8101908080359060200190929190803573ffffffffffffffffffffffffffffffffffffffff169060200190929190505050610d5b565b005b6104fa600480360360408110156104c457600080fd5b81019080803573ffffffffffffffffffffffffffffffffffffffff16906020019092919080359060200190929190505050610df4565b60405180821515815260200191505060405180910390f35b61051a610ea7565b005b6105686004803603604081101561053257600080fd5b81019080803573ffffffffffffffffffffffffffffffffffffffff16906020019092919080359060200190929190505050610f37565b005b6105966004803603602081101561058057600080fd5b8101908080359060200190929190505050610fcb565b005b6105a0610fdf565b60405180821515815260200191505060405180910390f35b6105fa600480360360208110156105ce57600080fd5b81019080803573ffffffffffffffffffffffffffffffffffffffff169060200190929190505050610ff6565b6040518082815260200191505060405180910390f35b61065c6004803603604081101561062657600080fd5b81019080803573ffffffffffffffffffffffffffffffffffffffff1690602001909291908035906020019092919050505061103f565b005b6106a06004803603602081101561067457600080fd5b81019080803573ffffffffffffffffffffffffffffffffffffffff1690602001909291905050506110a1565b6040518082815260200191505060405180910390f35b6106be6110b9565b005b6106f6600480360360408110156106d657600080fd5b810190808035906020019092919080359060200190929190505050611149565b604051808273ffffffffffffffffffffffffffffffffffffffff16815260200191505060405180910390f35b61076e6004803603604081101561073857600080fd5b8101908080359060200190929190803573ffffffffffffffffffffffffffffffffffffffff16906020019092919050505061117a565b60405180821515815260200191505060405180910390f35b61078e6111ab565b6040518080602001828103825283818151815260200191508051906020019080838360005b838110156107ce5780820151818401526020810190506107b3565b50505050905090810190601f1680156107fb5780820380516001836020036101000a031916815260200191505b509250505060405180910390f35b61081161124d565b6040518082815260200191505060405180910390f35b6108736004803603604081101561083d57600080fd5b81019080803573ffffffffffffffffffffffffffffffffffffffff16906020019092919080359060200190929190505050611254565b60405180821515815260200191505060405180910390f35b6108d7600480360360408110156108a157600080fd5b81019080803573ffffffffffffffffffffffffffffffffffffffff16906020019092919080359060200190929190505050611321565b60405180821515815260200191505060405180910390f35b61091b6004803603602081101561090557600080fd5b810190808035906020019092919050505061133f565b6040518082815260200191505060405180910390f35b6109c8600480360360e081101561094757600080fd5b81019080803573ffffffffffffffffffffffffffffffffffffffff169060200190929190803573ffffffffffffffffffffffffffffffffffffffff1690602001909291908035906020019092919080359060200190929190803560ff1690602001909291908035906020019092919080359060200190929190505050611365565b005b6109d26116e6565b6040518082815260200191505060405180910390f35b610a34600480360360408110156109fe57600080fd5b8101908080359060200190929190803573ffffffffffffffffffffffffffffffffffffffff16906020019092919050505061170a565b005b610a9860048036036040811015610a4c57600080fd5b81019080803573ffffffffffffffffffffffffffffffffffffffff169060200190929190803573ffffffffffffffffffffffffffffffffffffffff169060200190929190505050611793565b6040518082815260200191505060405180910390f35b610ab661181a565b6040518082815260200191505060405180910390f35b606060048054600181600116156101000203166002900480601f016020809104026020016040519081016040528092919081815260200182805460018160011615610100020316600290048015610b645780601f10610b3957610100808354040283529160200191610b64565b820191906000526020600020905b815481529060010190602001808311610b4757829003601f168201915b5050505050905090565b6000610b82610b7b61186e565b8484611876565b6001905092915050565b6000600354905090565b6000610ba3848484611a6d565b610c6484610baf61186e565b610c5f856040518060600160405280602881526020016129ec60289139600260008b73ffffffffffffffffffffffffffffffffffffffff1673ffffffffffffffffffffffffffffffffffffffff1681526020019081526020016000206000610c1561186e565b73ffffffffffffffffffffffffffffffffffffffff1673ffffffffffffffffffffffffffffffffffffffff16815260200190815260200160002054611d329092919063ffffffff16565b611876565b600190509392505050565b6000806000838152602001908152602001600020600201549050919050565b610cb460008084815260200190815260200160002060020154610caf61186e565b61117a565b610d09576040517f08c379a000000000000000000000000000000000000000000000000000000000815260040180806020018281038252602f8152602001806128ea602f913960400191505060405180910390fd5b610d138282611dec565b5050565b7f6e71edae12b1b97f4d1f60370fef10105fa2faae0126114a169c64845d6126c960001b81565b6000600660009054906101000a900460ff16905090565b60075481565b610d6361186e565b73ffffffffffffffffffffffffffffffffffffffff168173ffffffffffffffffffffffffffffffffffffffff1614610de6576040517f08c379a000000000000000000000000000000000000000000000000000000000815260040180806020018281038252602f815260200180612b56602f913960400191505060405180910390fd5b610df08282611e7f565b5050565b6000610e9d610e0161186e565b84610e988560026000610e1261186e565b73ffffffffffffffffffffffffffffffffffffffff1673ffffffffffffffffffffffffffffffffffffffff16815260200190815260200160002060008973ffffffffffffffffffffffffffffffffffffffff1673ffffffffffffffffffffffffffffffffffffffff16815260200190815260200160002054611f1290919063ffffffff16565b611876565b6001905092915050565b610ed87f65d7a28e3265b37a6474929f336521b332c1681b933f6cb9f3376673440d862a610ed361186e565b61117a565b610f2d576040517f08c379a000000000000000000000000000000000000000000000000000000000815260040180806020018281038252603981526020018061293b6039913960400191505060405180910390fd5b610f35611f9a565b565b610f687f9f2df0fed2c77648de5860a4cc508cd0818c85b8b8a1ab4ceeef8d981c8956a6610f6361186e565b61117a565b610fbd576040517f08c379a0000000000000000000000000000000000000000000000000000000008152600401808060200182810382526036815260200180612a146036913960400191505060405180910390fd5b610fc78282612085565b5050565b610fdc610fd661186e565b8261224e565b50565b6000600660019054906101000a900460ff16905090565b6000600160008373ffffffffffffffffffffffffffffffffffffffff1673ffffffffffffffffffffffffffffffffffffffff168152602001908152602001600020549050919050565b600061107e82604051806060016040528060248152602001612a4a6024913961106f8661106a61186e565b611793565b611d329092919063ffffffff16565b90506110928361108c61186e565b83611876565b61109c838361224e565b505050565b60086020528060005260406000206000915090505481565b6110ea7f65d7a28e3265b37a6474929f336521b332c1681b933f6cb9f3376673440d862a6110e561186e565b61117a565b61113f576040517f08c379a0000000000000000000000000000000000000000000000000000000008152600401808060200182810382526037815260200180612afa6037913960400191505060405180910390fd5b611147612414565b565b60006111728260008086815260200190815260200160002060000161250090919063ffffffff16565b905092915050565b60006111a38260008086815260200190815260200160002060000161251a90919063ffffffff16565b905092915050565b606060058054600181600116156101000203166002900480601f0160208091040260200160405190810160405280929190818152602001828054600181600116156101000203166002900480156112435780601f1061121857610100808354040283529160200191611243565b820191906000526020600020905b81548152906001019060200180831161122657829003601f168201915b5050505050905090565b6000801b81565b600061131761126161186e565b8461131285604051806060016040528060258152602001612b31602591396002600061128b61186e565b73ffffffffffffffffffffffffffffffffffffffff1673ffffffffffffffffffffffffffffffffffffffff16815260200190815260200160002060008a73ffffffffffffffffffffffffffffffffffffffff1673ffffffffffffffffffffffffffffffffffffffff16815260200190815260200160002054611d329092919063ffffffff16565b611876565b6001905092915050565b600061133561132e61186e565b8484611a6d565b6001905092915050565b600061135e60008084815260200190815260200160002060000161254a565b9050919050565b428410156113db576040517f08c379a00000000000000000000000000000000000000000000000000000000081526004018080602001828103825260188152602001807f4552433230576974685065726d69743a2045585049524544000000000000000081525060200191505060405180910390fd5b60006007547f6e71edae12b1b97f4d1f60370fef10105fa2faae0126114a169c64845d6126c960001b898989600860008e73ffffffffffffffffffffffffffffffffffffffff1673ffffffffffffffffffffffffffffffffffffffff1681526020019081526020016000206000815480929190600101919050558a604051602001808781526020018673ffffffffffffffffffffffffffffffffffffffff1681526020018573ffffffffffffffffffffffffffffffffffffffff16815260200184815260200183815260200182815260200196505050505050506040516020818303038152906040528051906020012060405160200180807f190100000000000000000000000000000000000000000000000000000000000081525060020183815260200182815260200192505050604051602081830303815290604052805190602001209050600060018286868660405160008152602001604052604051808581526020018460ff1681526020018381526020018281526020019450505050506020604051602081039080840390855afa15801561157e573d6000803e3d6000fd5b5050506020604051035190507f3f4b32b7bc9093eb3dd90d769ebd252c4e584236f75b517ce4db273ec72a6f14818a8a604051808473ffffffffffffffffffffffffffffffffffffffff1681526020018373ffffffffffffffffffffffffffffffffffffffff1681526020018273ffffffffffffffffffffffffffffffffffffffff168152602001935050505060405180910390a1600073ffffffffffffffffffffffffffffffffffffffff168173ffffffffffffffffffffffffffffffffffffffff161415801561167b57508873ffffffffffffffffffffffffffffffffffffffff168173ffffffffffffffffffffffffffffffffffffffff16145b6116d0576040517f08c379a0000000000000000000000000000000000000000000000000000000008152600401808060200182810382526022815260200180612a8f6022913960400191505060405180910390fd5b6116db898989611876565b505050505050505050565b7f9f2df0fed2c77648de5860a4cc508cd0818c85b8b8a1ab4ceeef8d981c8956a681565b6117306000808481526020019081526020016000206002015461172b61186e565b61117a565b611785576040517f08c379a00000000000000000000000000000000000000000000000000000000081526004018080602001828103825260308152602001806129bc6030913960400191505060405180910390fd5b61178f8282611e7f565b5050565b6000600260008473ffffffffffffffffffffffffffffffffffffffff1673ffffffffffffffffffffffffffffffffffffffff16815260200190815260200160002060008373ffffffffffffffffffffffffffffffffffffffff1673ffffffffffffffffffffffffffffffffffffffff16815260200190815260200160002054905092915050565b7f65d7a28e3265b37a6474929f336521b332c1681b933f6cb9f3376673440d862a81565b6000611866836000018373ffffffffffffffffffffffffffffffffffffffff1660001b61255f565b905092915050565b600033905090565b600073ffffffffffffffffffffffffffffffffffffffff168373ffffffffffffffffffffffffffffffffffffffff1614156118fc576040517f08c379a0000000000000000000000000000000000000000000000000000000008152600401808060200182810382526024815260200180612ad66024913960400191505060405180910390fd5b600073ffffffffffffffffffffffffffffffffffffffff168273ffffffffffffffffffffffffffffffffffffffff161415611982576040517f08c379a00000000000000000000000000000000000000000000000000000000081526004018080602001828103825260228152602001806129746022913960400191505060405180910390fd5b80600260008573ffffffffffffffffffffffffffffffffffffffff1673ffffffffffffffffffffffffffffffffffffffff16815260200190815260200160002060008473ffffffffffffffffffffffffffffffffffffffff1673ffffffffffffffffffffffffffffffffffffffff168152602001908152602001600020819055508173ffffffffffffffffffffffffffffffffffffffff168373ffffffffffffffffffffffffffffffffffffffff167f8c5be1e5ebec7d5bd14f71427d1e84f3dd0314c0f7b2291e5b200ac8c7c3b925836040518082815260200191505060405180910390a3505050565b600073ffffffffffffffffffffffffffffffffffffffff168373ffffffffffffffffffffffffffffffffffffffff161415611af3576040517f08c379a0000000000000000000000000000000000000000000000000000000008152600401808060200182810382526025815260200180612ab16025913960400191505060405180910390fd5b600073ffffffffffffffffffffffffffffffffffffffff168273ffffffffffffffffffffffffffffffffffffffff161415611b79576040517f08c379a00000000000000000000000000000000000000000000000000000000081526004018080602001828103825260238152602001806128c76023913960400191505060405180910390fd5b611b848383836125cf565b611bf08160405180606001604052806026815260200161299660269139600160008773ffffffffffffffffffffffffffffffffffffffff1673ffffffffffffffffffffffffffffffffffffffff16815260200190815260200160002054611d329092919063ffffffff16565b600160008573ffffffffffffffffffffffffffffffffffffffff1673ffffffffffffffffffffffffffffffffffffffff16815260200190815260200160002081905550611c8581600160008573ffffffffffffffffffffffffffffffffffffffff1673ffffffffffffffffffffffffffffffffffffffff16815260200190815260200160002054611f1290919063ffffffff16565b600160008473ffffffffffffffffffffffffffffffffffffffff1673ffffffffffffffffffffffffffffffffffffffff168152602001908152602001600020819055508173ffffffffffffffffffffffffffffffffffffffff168373ffffffffffffffffffffffffffffffffffffffff167fddf252ad1be2c89b69c2b068fc378daa952ba7f163c4a11628f55a4df523b3ef836040518082815260200191505060405180910390a3505050565b6000838311158290611ddf576040517f08c379a00000000000000000000000000000000000000000000000000000000081526004018080602001828103825283818151815260200191508051906020019080838360005b83811015611da4578082015181840152602081019050611d89565b50505050905090810190601f168015611dd15780820380516001836020036101000a031916815260200191505b509250505060405180910390fd5b5082840390509392505050565b611e138160008085815260200190815260200160002060000161183e90919063ffffffff16565b15611e7b57611e2061186e565b73ffffffffffffffffffffffffffffffffffffffff168173ffffffffffffffffffffffffffffffffffffffff16837f2f8788117e7eff1d82e926ec794901d17c78024a50270940304540a733656f0d60405160405180910390a45b5050565b611ea6816000808581526020019081526020016000206000016125df90919063ffffffff16565b15611f0e57611eb361186e565b73ffffffffffffffffffffffffffffffffffffffff168173ffffffffffffffffffffffffffffffffffffffff16837ff6391f5c32d9c69d2a47ea670b442974b53935d1edc7fd64eb21e047a839171b60405160405180910390a45b5050565b600080828401905083811015611f90576040517f08c379a000000000000000000000000000000000000000000000000000000000815260040180806020018281038252601b8152602001807f536166654d6174683a206164646974696f6e206f766572666c6f77000000000081525060200191505060405180910390fd5b8091505092915050565b611fa2610fdf565b612014576040517f08c379a00000000000000000000000000000000000000000000000000000000081526004018080602001828103825260148152602001807f5061757361626c653a206e6f742070617573656400000000000000000000000081525060200191505060405180910390fd5b6000600660016101000a81548160ff0219169083151502179055507f5db9ee0a495bf2e6ff9c91a7834c1ba4fdd244a5e8aa4e537bd38aeae4b073aa61205861186e565b604051808273ffffffffffffffffffffffffffffffffffffffff16815260200191505060405180910390a1565b600073ffffffffffffffffffffffffffffffffffffffff168273ffffffffffffffffffffffffffffffffffffffff161415612128576040517f08c379a000000000000000000000000000000000000000000000000000000000815260040180806020018281038252601f8152602001807f45524332303a206d696e7420746f20746865207a65726f20616464726573730081525060200191505060405180910390fd5b612134600083836125cf565b61214981600354611f1290919063ffffffff16565b6003819055506121a181600160008573ffffffffffffffffffffffffffffffffffffffff1673ffffffffffffffffffffffffffffffffffffffff16815260200190815260200160002054611f1290919063ffffffff16565b600160008473ffffffffffffffffffffffffffffffffffffffff1673ffffffffffffffffffffffffffffffffffffffff168152602001908152602001600020819055508173ffffffffffffffffffffffffffffffffffffffff16600073ffffffffffffffffffffffffffffffffffffffff167fddf252ad1be2c89b69c2b068fc378daa952ba7f163c4a11628f55a4df523b3ef836040518082815260200191505060405180910390a35050565b600073ffffffffffffffffffffffffffffffffffffffff168273ffffffffffffffffffffffffffffffffffffffff1614156122d4576040517f08c379a0000000000000000000000000000000000000000000000000000000008152600401808060200182810382526021815260200180612a6e6021913960400191505060405180910390fd5b6122e0826000836125cf565b61234c8160405180606001604052806022815260200161291960229139600160008673ffffffffffffffffffffffffffffffffffffffff1673ffffffffffffffffffffffffffffffffffffffff16815260200190815260200160002054611d329092919063ffffffff16565b600160008473ffffffffffffffffffffffffffffffffffffffff1673ffffffffffffffffffffffffffffffffffffffff168152602001908152602001600020819055506123a48160035461260f90919063ffffffff16565b600381905550600073ffffffffffffffffffffffffffffffffffffffff168273ffffffffffffffffffffffffffffffffffffffff167fddf252ad1be2c89b69c2b068fc378daa952ba7f163c4a11628f55a4df523b3ef836040518082815260200191505060405180910390a35050565b61241c610fdf565b1561248f576040517f08c379a00000000000000000000000000000000000000000000000000000000081526004018080602001828103825260108152602001807f5061757361626c653a207061757365640000000000000000000000000000000081525060200191505060405180910390fd5b6001600660016101000a81548160ff0219169083151502179055507f62e78cea01bee320cd4e420270b5ea74000d11b0c9f74754ebdbfc544b05a2586124d361186e565b604051808273ffffffffffffffffffffffffffffffffffffffff16815260200191505060405180910390a1565b600061250f8360000183612692565b60001c905092915050565b6000612542836000018373ffffffffffffffffffffffffffffffffffffffff1660001b612715565b905092915050565b600061255882600001612738565b9050919050565b600061256b8383612715565b6125c45782600001829080600181540180825580915050600190039060005260206000200160009091909190915055826000018054905083600101600084815260200190815260200160002081905550600190506125c9565b600090505b92915050565b6125da838383612749565b505050565b6000612607836000018373ffffffffffffffffffffffffffffffffffffffff1660001b6127b7565b905092915050565b600082821115612687576040517f08c379a000000000000000000000000000000000000000000000000000000000815260040180806020018281038252601e8152602001807f536166654d6174683a207375627472616374696f6e206f766572666c6f77000081525060200191505060405180910390fd5b818303905092915050565b6000818360000180549050116126f3576040517f08c379a00000000000000000000000000000000000000000000000000000000081526004018080602001828103825260228152602001806128a56022913960400191505060405180910390fd5b82600001828154811061270257fe5b9060005260206000200154905092915050565b600080836001016000848152602001908152602001600020541415905092915050565b600081600001805490509050919050565b61275483838361289f565b61275c610fdf565b156127b2576040517f08c379a000000000000000000000000000000000000000000000000000000000815260040180806020018281038252602a815260200180612b85602a913960400191505060405180910390fd5b505050565b60008083600101600084815260200190815260200160002054905060008114612893576000600182039050600060018660000180549050039050600086600001828154811061280257fe5b906000526020600020015490508087600001848154811061281f57fe5b906000526020600020018190555060018301876001016000838152602001908152602001600020819055508660000180548061285757fe5b60019003818190600052602060002001600090559055866001016000878152602001908152602001600020600090556001945050505050612899565b60009150505b92915050565b50505056fe456e756d657261626c655365743a20696e646578206f7574206f6620626f756e647345524332303a207472616e7366657220746f20746865207a65726f2061646472657373416363657373436f6e74726f6c3a2073656e646572206d75737420626520616e2061646d696e20746f206772616e7445524332303a206275726e20616d6f756e7420657863656564732062616c616e636545524332305072657365744d696e7465725061757365723a206d75737420686176652070617573657220726f6c6520746f20756e706175736545524332303a20617070726f766520746f20746865207a65726f206164647265737345524332303a207472616e7366657220616d6f756e7420657863656564732062616c616e6365416363657373436f6e74726f6c3a2073656e646572206d75737420626520616e2061646d696e20746f207265766f6b6545524332303a207472616e7366657220616d6f756e74206578636565647320616c6c6f77616e636545524332305072657365744d696e7465725061757365723a206d7573742068617665206d696e74657220726f6c6520746f206d696e7445524332303a206275726e20616d6f756e74206578636565647320616c6c6f77616e636545524332303a206275726e2066726f6d20746865207a65726f20616464726573734552433230576974685065726d69743a20494e56414c49445f5349474e415455524545524332303a207472616e736665722066726f6d20746865207a65726f206164647265737345524332303a20617070726f76652066726f6d20746865207a65726f206164647265737345524332305072657365744d696e7465725061757365723a206d75737420686176652070617573657220726f6c6520746f20706175736545524332303a2064656372656173656420616c6c6f77616e63652062656c6f77207a65726f416363657373436f6e74726f6c3a2063616e206f6e6c792072656e6f756e636520726f6c657320666f722073656c6645524332305061757361626c653a20746f6b656e207472616e73666572207768696c6520706175736564a2646970667358221220bff55c6cee37731ef07890cd6a6de50b9ba7ef4d102c3bcb23eda52113a11c1364736f6c63430007030033",
  "source": "// SPDX-License-Identifier: UNLICENSED\npragma solidity ^0.7.0;\n// pragma abicoder v2;\n\nimport \"./LibToken.sol\";\n\ncontract WrapperContract {\n\n\tLIB public LIBToken;\n\n\tevent LogETHWrapped(address sender, uint256 amount);\n\tevent LogETHUnwrapped(address sender, uint256 amount);\n    event UnwrapInWrapperContract(uint _amount);\n\n\n\tconstructor() public {\n\t\tLIBToken = new LIB();\n\t}\n\n\tfunction wrap() public payable {\n\t\trequire(msg.value > 0, \"We need to wrap at least 1 wei\");\n\t\tLIBToken.mint(msg.sender, msg.value);\n\t\temit LogETHWrapped(msg.sender, msg.value);\n\t}\n\n\tfunction unwrap(uint value) public {\n        emit UnwrapInWrapperContract(value);\n\n\t\trequire(value > 0, \"We need to unwrap at least 1 wei\");\n\t\tLIBToken.transferFrom(msg.sender, address(this), value);\n\t\tLIBToken.burn(value);\n\t\tmsg.sender.transfer(value);\n\t\t// emit LogETHUnwrapped(msg.sender, value);\n\t}\n\n\tfunction wrapWithSignature(bytes32 hashedMessage, uint8 v, bytes32 r, bytes32 s, address receiver) public payable {\n\t\trequire(msg.value > 0, \"We need to wrap at least 1 wei\");\n\t\trequire(recoverSigner(hashedMessage, v,r,s) == receiver, 'Receiver does not signed the message');\n\t\tLIBToken.mint(receiver, msg.value);\n\t\temit LogETHWrapped(receiver, msg.value);\n\t}\n\n    function recoverSigner(bytes32 hashedMessage, uint8 v, bytes32 r, bytes32 s) internal returns (address) {\n\t\tbytes32 messageDigest = keccak256(abi.encodePacked(\"\\x19Ethereum Signed Message:\\n32\", hashedMessage));\n        return ecrecover(messageDigest, v, r, s);\n\t}\n\n\t// receive() external payable {\n\t// \twrap();\n\t// } \n\n}",
  "sourcePath": "/Users/dimitaratanasov/Desktop/limetraining/contracts/LIBWrapper.sol",
  "compiler": {
    "name": "solc",
    "version": "0.7.3+commit.9bfce1f6.Emscripten.clang",
    "optimizer": false,
    "runs": 200
  },
  "schemaVersion": "2.3.5",
  "updatedAt": "2021-06-30T07:22:55.247Z"
}